{
  "_format": "hh-sol-artifact-1",
  "contractName": "CarbonCredit721",
  "sourceName": "contracts/carbonTokens/CarbonCredit721.sol",
  "abi": [
    {
      "inputs": [],
      "name": "AccessControlBadConfirmation",
      "type": "error"
    },
    {
      "inputs": [
        {
          "internalType": "address",
          "name": "account",
          "type": "address"
        },
        {
          "internalType": "bytes32",
          "name": "neededRole",
          "type": "bytes32"
        }
      ],
      "name": "AccessControlUnauthorizedAccount",
      "type": "error"
    },
    {
      "inputs": [
        {
          "internalType": "address",
          "name": "target",
          "type": "address"
        }
      ],
      "name": "AddressEmptyCode",
      "type": "error"
    },
    {
      "inputs": [],
      "name": "ApprovalCallerNotOwnerNorApproved",
      "type": "error"
    },
    {
      "inputs": [],
      "name": "ApprovalQueryForNonexistentToken",
      "type": "error"
    },
    {
      "inputs": [],
      "name": "BalanceQueryForZeroAddress",
      "type": "error"
    },
    {
      "inputs": [
        {
          "internalType": "address",
          "name": "implementation",
          "type": "address"
        }
      ],
      "name": "ERC1967InvalidImplementation",
      "type": "error"
    },
    {
      "inputs": [],
      "name": "ERC1967NonPayable",
      "type": "error"
    },
    {
      "inputs": [],
      "name": "FailedCall",
      "type": "error"
    },
    {
      "inputs": [],
      "name": "InvalidInitialization",
      "type": "error"
    },
    {
      "inputs": [],
      "name": "InvalidQueryRange",
      "type": "error"
    },
    {
      "inputs": [],
      "name": "MintERC2309QuantityExceedsLimit",
      "type": "error"
    },
    {
      "inputs": [],
      "name": "MintToZeroAddress",
      "type": "error"
    },
    {
      "inputs": [],
      "name": "MintZeroQuantity",
      "type": "error"
    },
    {
      "inputs": [],
      "name": "NoZeroAmount",
      "type": "error"
    },
    {
      "inputs": [],
      "name": "NotApproved",
      "type": "error"
    },
    {
      "inputs": [],
      "name": "NotCompatibleWithSpotMints",
      "type": "error"
    },
    {
      "inputs": [],
      "name": "NotInitializing",
      "type": "error"
    },
    {
      "inputs": [],
      "name": "OwnerQueryForNonexistentToken",
      "type": "error"
    },
    {
      "inputs": [],
      "name": "OwnershipNotInitializedForExtraData",
      "type": "error"
    },
    {
      "inputs": [],
      "name": "SequentialMintExceedsLimit",
      "type": "error"
    },
    {
      "inputs": [],
      "name": "SequentialUpToTooSmall",
      "type": "error"
    },
    {
      "inputs": [],
      "name": "SpotMintTokenIdTooSmall",
      "type": "error"
    },
    {
      "inputs": [],
      "name": "TokenAlreadyExists",
      "type": "error"
    },
    {
      "inputs": [],
      "name": "TransferCallerNotOwnerNorApproved",
      "type": "error"
    },
    {
      "inputs": [],
      "name": "TransferFromIncorrectOwner",
      "type": "error"
    },
    {
      "inputs": [],
      "name": "TransferToNonERC721ReceiverImplementer",
      "type": "error"
    },
    {
      "inputs": [],
      "name": "TransferToZeroAddress",
      "type": "error"
    },
    {
      "inputs": [],
      "name": "URIQueryForNonexistentToken",
      "type": "error"
    },
    {
      "inputs": [],
      "name": "UUPSUnauthorizedCallContext",
      "type": "error"
    },
    {
      "inputs": [
        {
          "internalType": "bytes32",
          "name": "slot",
          "type": "bytes32"
        }
      ],
      "name": "UUPSUnsupportedProxiableUUID",
      "type": "error"
    },
    {
      "anonymous": false,
      "inputs": [
        {
          "indexed": true,
          "internalType": "address",
          "name": "owner",
          "type": "address"
        },
        {
          "indexed": true,
          "internalType": "address",
          "name": "approved",
          "type": "address"
        },
        {
          "indexed": true,
          "internalType": "uint256",
          "name": "tokenId",
          "type": "uint256"
        }
      ],
      "name": "Approval",
      "type": "event"
    },
    {
      "anonymous": false,
      "inputs": [
        {
          "indexed": true,
          "internalType": "address",
          "name": "owner",
          "type": "address"
        },
        {
          "indexed": true,
          "internalType": "address",
          "name": "operator",
          "type": "address"
        },
        {
          "indexed": false,
          "internalType": "bool",
          "name": "approved",
          "type": "bool"
        }
      ],
      "name": "ApprovalForAll",
      "type": "event"
    },
    {
      "anonymous": false,
      "inputs": [
        {
          "indexed": true,
          "internalType": "uint256",
          "name": "fromTokenId",
          "type": "uint256"
        },
        {
          "indexed": false,
          "internalType": "uint256",
          "name": "toTokenId",
          "type": "uint256"
        },
        {
          "indexed": true,
          "internalType": "address",
          "name": "from",
          "type": "address"
        },
        {
          "indexed": true,
          "internalType": "address",
          "name": "to",
          "type": "address"
        }
      ],
      "name": "ConsecutiveTransfer",
      "type": "event"
    },
    {
      "anonymous": false,
      "inputs": [
        {
          "indexed": false,
          "internalType": "uint64",
          "name": "version",
          "type": "uint64"
        }
      ],
      "name": "Initialized",
      "type": "event"
    },
    {
      "anonymous": false,
      "inputs": [
        {
          "indexed": true,
          "internalType": "bytes32",
          "name": "role",
          "type": "bytes32"
        },
        {
          "indexed": true,
          "internalType": "bytes32",
          "name": "previousAdminRole",
          "type": "bytes32"
        },
        {
          "indexed": true,
          "internalType": "bytes32",
          "name": "newAdminRole",
          "type": "bytes32"
        }
      ],
      "name": "RoleAdminChanged",
      "type": "event"
    },
    {
      "anonymous": false,
      "inputs": [
        {
          "indexed": true,
          "internalType": "bytes32",
          "name": "role",
          "type": "bytes32"
        },
        {
          "indexed": true,
          "internalType": "address",
          "name": "account",
          "type": "address"
        },
        {
          "indexed": true,
          "internalType": "address",
          "name": "sender",
          "type": "address"
        }
      ],
      "name": "RoleGranted",
      "type": "event"
    },
    {
      "anonymous": false,
      "inputs": [
        {
          "indexed": true,
          "internalType": "bytes32",
          "name": "role",
          "type": "bytes32"
        },
        {
          "indexed": true,
          "internalType": "address",
          "name": "account",
          "type": "address"
        },
        {
          "indexed": true,
          "internalType": "address",
          "name": "sender",
          "type": "address"
        }
      ],
      "name": "RoleRevoked",
      "type": "event"
    },
    {
      "anonymous": false,
      "inputs": [
        {
          "indexed": true,
          "internalType": "address",
          "name": "from",
          "type": "address"
        },
        {
          "indexed": true,
          "internalType": "address",
          "name": "to",
          "type": "address"
        },
        {
          "indexed": true,
          "internalType": "uint256",
          "name": "tokenId",
          "type": "uint256"
        }
      ],
      "name": "Transfer",
      "type": "event"
    },
    {
      "anonymous": false,
      "inputs": [
        {
          "indexed": true,
          "internalType": "address",
          "name": "implementation",
          "type": "address"
        }
      ],
      "name": "Upgraded",
      "type": "event"
    },
    {
      "inputs": [],
      "name": "DEFAULT_ADMIN_ROLE",
      "outputs": [
        {
          "internalType": "bytes32",
          "name": "",
          "type": "bytes32"
        }
      ],
      "stateMutability": "view",
      "type": "function"
    },
    {
      "inputs": [],
      "name": "UPGRADE_INTERFACE_VERSION",
      "outputs": [
        {
          "internalType": "string",
          "name": "",
          "type": "string"
        }
      ],
      "stateMutability": "view",
      "type": "function"
    },
    {
      "inputs": [
        {
          "internalType": "address",
          "name": "to",
          "type": "address"
        },
        {
          "internalType": "uint256",
          "name": "tokenId",
          "type": "uint256"
        }
      ],
      "name": "approve",
      "outputs": [],
      "stateMutability": "payable",
      "type": "function"
    },
    {
      "inputs": [
        {
          "internalType": "address",
          "name": "owner",
          "type": "address"
        }
      ],
      "name": "balanceOf",
      "outputs": [
        {
          "internalType": "uint256",
          "name": "",
          "type": "uint256"
        }
      ],
      "stateMutability": "view",
      "type": "function"
    },
    {
      "inputs": [
        {
          "internalType": "uint256",
          "name": "tokenId",
          "type": "uint256"
        }
      ],
      "name": "burn",
      "outputs": [],
      "stateMutability": "nonpayable",
      "type": "function"
    },
    {
      "inputs": [
        {
          "internalType": "address",
          "name": "_owner",
          "type": "address"
        },
        {
          "internalType": "uint256",
          "name": "_tokenId",
          "type": "uint256"
        }
      ],
      "name": "burnFrom",
      "outputs": [],
      "stateMutability": "nonpayable",
      "type": "function"
    },
    {
      "inputs": [],
      "name": "carbonCredit20",
      "outputs": [
        {
          "internalType": "address",
          "name": "",
          "type": "address"
        }
      ],
      "stateMutability": "view",
      "type": "function"
    },
    {
      "inputs": [],
      "name": "carbonCredit20Vault",
      "outputs": [
        {
          "internalType": "address",
          "name": "",
          "type": "address"
        }
      ],
      "stateMutability": "view",
      "type": "function"
    },
    {
      "inputs": [
        {
          "internalType": "uint256",
          "name": "tokenId",
          "type": "uint256"
        }
      ],
      "name": "convertToCarbonCredit20",
      "outputs": [],
      "stateMutability": "nonpayable",
      "type": "function"
    },
    {
      "inputs": [
        {
          "internalType": "uint256",
          "name": "_id",
          "type": "uint256"
        }
      ],
      "name": "creditsById",
      "outputs": [
        {
          "internalType": "uint256",
          "name": "",
          "type": "uint256"
        }
      ],
      "stateMutability": "view",
      "type": "function"
    },
    {
      "inputs": [
        {
          "internalType": "uint256[]",
          "name": "_ids",
          "type": "uint256[]"
        }
      ],
      "name": "creditsByIds",
      "outputs": [
        {
          "internalType": "uint256[]",
          "name": "credits",
          "type": "uint256[]"
        }
      ],
      "stateMutability": "view",
      "type": "function"
    },
    {
      "inputs": [
        {
          "internalType": "uint256",
          "name": "tokenId",
          "type": "uint256"
        }
      ],
      "name": "explicitOwnershipOf",
      "outputs": [
        {
          "components": [
            {
              "internalType": "address",
              "name": "addr",
              "type": "address"
            },
            {
              "internalType": "uint64",
              "name": "startTimestamp",
              "type": "uint64"
            },
            {
              "internalType": "bool",
              "name": "burned",
              "type": "bool"
            },
            {
              "internalType": "uint24",
              "name": "extraData",
              "type": "uint24"
            }
          ],
          "internalType": "struct IERC721AUpgradeable.TokenOwnership",
          "name": "ownership",
          "type": "tuple"
        }
      ],
      "stateMutability": "view",
      "type": "function"
    },
    {
      "inputs": [
        {
          "internalType": "uint256[]",
          "name": "tokenIds",
          "type": "uint256[]"
        }
      ],
      "name": "explicitOwnershipsOf",
      "outputs": [
        {
          "components": [
            {
              "internalType": "address",
              "name": "addr",
              "type": "address"
            },
            {
              "internalType": "uint64",
              "name": "startTimestamp",
              "type": "uint64"
            },
            {
              "internalType": "bool",
              "name": "burned",
              "type": "bool"
            },
            {
              "internalType": "uint24",
              "name": "extraData",
              "type": "uint24"
            }
          ],
          "internalType": "struct IERC721AUpgradeable.TokenOwnership[]",
          "name": "",
          "type": "tuple[]"
        }
      ],
      "stateMutability": "view",
      "type": "function"
    },
    {
      "inputs": [
        {
          "internalType": "uint256",
          "name": "tokenId",
          "type": "uint256"
        }
      ],
      "name": "getApproved",
      "outputs": [
        {
          "internalType": "address",
          "name": "",
          "type": "address"
        }
      ],
      "stateMutability": "view",
      "type": "function"
    },
    {
      "inputs": [
        {
          "internalType": "bytes32",
          "name": "role",
          "type": "bytes32"
        }
      ],
      "name": "getRoleAdmin",
      "outputs": [
        {
          "internalType": "bytes32",
          "name": "",
          "type": "bytes32"
        }
      ],
      "stateMutability": "view",
      "type": "function"
    },
    {
      "inputs": [
        {
          "internalType": "bytes32",
          "name": "role",
          "type": "bytes32"
        },
        {
          "internalType": "address",
          "name": "account",
          "type": "address"
        }
      ],
      "name": "grantRole",
      "outputs": [],
      "stateMutability": "nonpayable",
      "type": "function"
    },
    {
      "inputs": [
        {
          "internalType": "bytes32",
          "name": "role",
          "type": "bytes32"
        },
        {
          "internalType": "address",
          "name": "account",
          "type": "address"
        }
      ],
      "name": "hasRole",
      "outputs": [
        {
          "internalType": "bool",
          "name": "",
          "type": "bool"
        }
      ],
      "stateMutability": "view",
      "type": "function"
    },
    {
      "inputs": [],
      "name": "imageURI",
      "outputs": [
        {
          "internalType": "string",
          "name": "",
          "type": "string"
        }
      ],
      "stateMutability": "view",
      "type": "function"
    },
    {
      "inputs": [
        {
          "internalType": "contract ICarbonCredit20",
          "name": "_carbonCredit20",
          "type": "address"
        },
        {
          "internalType": "address",
          "name": "_carbonCredit20Vault",
          "type": "address"
        },
        {
          "internalType": "address",
          "name": "_router",
          "type": "address"
        },
        {
          "internalType": "string",
          "name": "_name",
          "type": "string"
        },
        {
          "internalType": "string",
          "name": "_symbol",
          "type": "string"
        }
      ],
      "name": "init",
      "outputs": [],
      "stateMutability": "nonpayable",
      "type": "function"
    },
    {
      "inputs": [
        {
          "internalType": "address",
          "name": "owner",
          "type": "address"
        },
        {
          "internalType": "address",
          "name": "operator",
          "type": "address"
        }
      ],
      "name": "isApprovedForAll",
      "outputs": [
        {
          "internalType": "bool",
          "name": "",
          "type": "bool"
        }
      ],
      "stateMutability": "view",
      "type": "function"
    },
    {
      "inputs": [
        {
          "internalType": "address",
          "name": "_to",
          "type": "address"
        },
        {
          "internalType": "uint256",
          "name": "_creditAmount",
          "type": "uint256"
        }
      ],
      "name": "mint",
      "outputs": [],
      "stateMutability": "nonpayable",
      "type": "function"
    },
    {
      "inputs": [
        {
          "internalType": "address[]",
          "name": "_to",
          "type": "address[]"
        },
        {
          "internalType": "uint256[]",
          "name": "_creditAmount",
          "type": "uint256[]"
        }
      ],
      "name": "mintBatch",
      "outputs": [],
      "stateMutability": "nonpayable",
      "type": "function"
    },
    {
      "inputs": [],
      "name": "name",
      "outputs": [
        {
          "internalType": "string",
          "name": "",
          "type": "string"
        }
      ],
      "stateMutability": "view",
      "type": "function"
    },
    {
      "inputs": [
        {
          "internalType": "uint256",
          "name": "tokenId",
          "type": "uint256"
        }
      ],
      "name": "ownerOf",
      "outputs": [
        {
          "internalType": "address",
          "name": "",
          "type": "address"
        }
      ],
      "stateMutability": "view",
      "type": "function"
    },
    {
      "inputs": [],
      "name": "proxiableUUID",
      "outputs": [
        {
          "internalType": "bytes32",
          "name": "",
          "type": "bytes32"
        }
      ],
      "stateMutability": "view",
      "type": "function"
    },
    {
      "inputs": [
        {
          "internalType": "bytes32",
          "name": "role",
          "type": "bytes32"
        },
        {
          "internalType": "address",
          "name": "callerConfirmation",
          "type": "address"
        }
      ],
      "name": "renounceRole",
      "outputs": [],
      "stateMutability": "nonpayable",
      "type": "function"
    },
    {
      "inputs": [
        {
          "internalType": "bytes32",
          "name": "role",
          "type": "bytes32"
        },
        {
          "internalType": "address",
          "name": "account",
          "type": "address"
        }
      ],
      "name": "revokeRole",
      "outputs": [],
      "stateMutability": "nonpayable",
      "type": "function"
    },
    {
      "inputs": [
        {
          "internalType": "address",
          "name": "from",
          "type": "address"
        },
        {
          "internalType": "address",
          "name": "to",
          "type": "address"
        },
        {
          "internalType": "uint256",
          "name": "tokenId",
          "type": "uint256"
        }
      ],
      "name": "safeTransferFrom",
      "outputs": [],
      "stateMutability": "payable",
      "type": "function"
    },
    {
      "inputs": [
        {
          "internalType": "address",
          "name": "from",
          "type": "address"
        },
        {
          "internalType": "address",
          "name": "to",
          "type": "address"
        },
        {
          "internalType": "uint256",
          "name": "tokenId",
          "type": "uint256"
        },
        {
          "internalType": "bytes",
          "name": "_data",
          "type": "bytes"
        }
      ],
      "name": "safeTransferFrom",
      "outputs": [],
      "stateMutability": "payable",
      "type": "function"
    },
    {
      "inputs": [
        {
          "internalType": "address",
          "name": "operator",
          "type": "address"
        },
        {
          "internalType": "bool",
          "name": "approved",
          "type": "bool"
        }
      ],
      "name": "setApprovalForAll",
      "outputs": [],
      "stateMutability": "nonpayable",
      "type": "function"
    },
    {
      "inputs": [
        {
          "internalType": "contract ICarbonCredit20",
          "name": "_carbonCredit20",
          "type": "address"
        }
      ],
      "name": "setCarbonCredit20",
      "outputs": [],
      "stateMutability": "nonpayable",
      "type": "function"
    },
    {
      "inputs": [
        {
          "internalType": "address",
          "name": "_carbonCredit20Vault",
          "type": "address"
        }
      ],
      "name": "setCarbonCredit20Vault",
      "outputs": [],
      "stateMutability": "nonpayable",
      "type": "function"
    },
    {
      "inputs": [
        {
          "internalType": "string",
          "name": "_imageURI",
          "type": "string"
        }
      ],
      "name": "setImageURI",
      "outputs": [],
      "stateMutability": "nonpayable",
      "type": "function"
    },
    {
      "inputs": [
        {
          "internalType": "bytes4",
          "name": "interfaceId",
          "type": "bytes4"
        }
      ],
      "name": "supportsInterface",
      "outputs": [
        {
          "internalType": "bool",
          "name": "",
          "type": "bool"
        }
      ],
      "stateMutability": "view",
      "type": "function"
    },
    {
      "inputs": [],
      "name": "symbol",
      "outputs": [
        {
          "internalType": "string",
          "name": "",
          "type": "string"
        }
      ],
      "stateMutability": "view",
      "type": "function"
    },
    {
      "inputs": [
        {
          "internalType": "uint256",
          "name": "tokenId",
          "type": "uint256"
        }
      ],
      "name": "tokenURI",
      "outputs": [
        {
          "internalType": "string",
          "name": "metadata",
          "type": "string"
        }
      ],
      "stateMutability": "view",
      "type": "function"
    },
    {
      "inputs": [
        {
          "internalType": "address",
          "name": "owner",
          "type": "address"
        }
      ],
      "name": "tokensOfOwner",
      "outputs": [
        {
          "internalType": "uint256[]",
          "name": "",
          "type": "uint256[]"
        }
      ],
      "stateMutability": "view",
      "type": "function"
    },
    {
      "inputs": [
        {
          "internalType": "address",
          "name": "owner",
          "type": "address"
        },
        {
          "internalType": "uint256",
          "name": "start",
          "type": "uint256"
        },
        {
          "internalType": "uint256",
          "name": "stop",
          "type": "uint256"
        }
      ],
      "name": "tokensOfOwnerIn",
      "outputs": [
        {
          "internalType": "uint256[]",
          "name": "",
          "type": "uint256[]"
        }
      ],
      "stateMutability": "view",
      "type": "function"
    },
    {
      "inputs": [],
      "name": "totalSupply",
      "outputs": [
        {
          "internalType": "uint256",
          "name": "result",
          "type": "uint256"
        }
      ],
      "stateMutability": "view",
      "type": "function"
    },
    {
      "inputs": [
        {
          "internalType": "address",
          "name": "from",
          "type": "address"
        },
        {
          "internalType": "address",
          "name": "to",
          "type": "address"
        },
        {
          "internalType": "uint256",
          "name": "tokenId",
          "type": "uint256"
        }
      ],
      "name": "transferFrom",
      "outputs": [],
      "stateMutability": "payable",
      "type": "function"
    },
    {
      "inputs": [
        {
          "internalType": "address",
          "name": "newImplementation",
          "type": "address"
        },
        {
          "internalType": "bytes",
          "name": "data",
          "type": "bytes"
        }
      ],
      "name": "upgradeToAndCall",
      "outputs": [],
      "stateMutability": "payable",
      "type": "function"
    }
  ],
  "bytecode": "0x60a060405234602f57600e6034565b60405161441161007e823960805181818161343e015261352e015261441190f35b600080fd5b603a603c565b565b603a6071565b6054906057906001600160a01b031682565b90565b6001600160a01b031690565b6054906042565b6054906063565b607830606a565b60805256fe6080604052600436101561001257600080fd5b60003560e01c806301ffc9a7146102a257806304787ca21461029d57806306fdde0314610298578063081812fc14610293578063095ea7b31461028e578063135d088d1461028957806318160ddd146102845780631c67e7e21461027f5780631eb49a3f1461027a57806323b872dd14610275578063248a9ca3146102705780632f2ff15d1461026b57806336568abe1461026657806340c10f191461026157806342842e0e1461025c57806342966c68146102575780634f1ef2861461025257806352d1902d1461024d5780635bbb2177146102485780636352211e1461024357806370a082311461023e57806379cc6790146102395780637c88e3d9146102345780638462151c1461022f5780638e85643a1461022a57806391d148541461022557806395d89b411461022057806399a2557a1461021b578063a217fddf14610216578063a22cb46514610211578063ad3cb1cc1461020c578063b88d4fde14610207578063c23dc68f14610202578063c87b56dd146101fd578063cb19dae4146101f8578063d060c957146101f3578063d547741f146101ee578063d83e4e80146101e9578063e985e9c5146101e4578063f324b816146101df5763fb7961c8036102d257610e61565b610e49565b610e2d565b610df9565b610de0565b610dc5565b610dad565b610d92565b610d6b565b610cff565b610c94565b610c1e565b610bcb565b610b90565b610b4c565b610b30565b610b14565b610a86565b610a6a565b610a07565b6109ec565b6109bd565b610995565b6108e4565b6108d0565b610769565b610755565b61073c565b610723565b61070a565b6106cc565b6106b8565b610674565b61064c565b610564565b610549565b610535565b6104a7565b610440565b61038d565b610301565b7fffffffff0000000000000000000000000000000000000000000000000000000081165b036102d257565b600080fd5b905035906102e4826102a7565b565b906020828203126102d2576102fa916102d7565b90565b9052565b346102d25761032f61031c6103173660046102e6565b610e7c565b6040515b91829182901515815260200190565b0390f35b909182601f830112156102d25781359167ffffffffffffffff83116102d25760200192600183028401116102d257565b906020828203126102d257813567ffffffffffffffff81116102d2576103899201610333565b9091565b346102d2576103a66103a0366004610363565b906110dc565b604051005b60009103126102d257565b60005b8381106103c95750506000910152565b81810151838201526020016103b9565b6103fa61040360209361042b936103ee815190565b80835293849260200190565b958691016103b6565b601f017fffffffffffffffffffffffffffffffffffffffffffffffffffffffffffffffe01690565b0190565b60208082526102fa929101906103d9565b346102d2576104503660046103ab565b61032f61045b61119e565b6040519182918261042f565b806102cb565b905035906102e482610467565b906020828203126102d2576102fa9161046d565b73ffffffffffffffffffffffffffffffffffffffff1690565b346102d25761032f6104c26104bd36600461047a565b6111e3565b6040519182918273ffffffffffffffffffffffffffffffffffffffff909116815260200190565b73ffffffffffffffffffffffffffffffffffffffff81166102cb565b905035906102e4826104e9565b91906040838203126102d2576102fa90602061052e8286610505565b940161046d565b6103a6610543366004610512565b90611270565b346102d2576105593660046103ab565b61032f61045b61127c565b346102d2576105743660046103ab565b61032f61057f6112b8565b6040519182918290815260200190565b909182601f830112156102d25781359167ffffffffffffffff83116102d25760200192602083028401116102d257565b906020828203126102d257813567ffffffffffffffff81116102d257610389920161058f565b906106056105fe6105f4845190565b8084529260200190565b9260200190565b9060005b8181106106165750505090565b90919261063361062c6001928651815260200190565b9460200190565b929101610609565b60208082526102fa929101906105e5565b346102d25761032f6106686106623660046105bf565b906113ee565b6040519182918261063b565b346102d2576106843660046103ab565b61032f6104c261149e565b90916060828403126102d2576102fa6106a88484610505565b93604061052e8260208701610505565b6103a66106c636600461068f565b9161156f565b346102d25761032f61057f6106e236600461047a565b61185e565b91906040838203126102d2576102fa906020610703828661046d565b9401610505565b346102d2576103a661071d3660046106e7565b906118be565b346102d2576103a66107363660046106e7565b906118c8565b346102d2576103a661074f366004610512565b90611962565b6103a661076336600461068f565b91611ab7565b346102d2576103a661077c36600461047a565b611b0e565b7f4e487b7100000000000000000000000000000000000000000000000000000000600052604160045260246000fd5b90601f017fffffffffffffffffffffffffffffffffffffffffffffffffffffffffffffffe016810190811067ffffffffffffffff8211176107f057604052565b610781565b906102e461080260405190565b92836107b0565b67ffffffffffffffff81116107f057602090601f017fffffffffffffffffffffffffffffffffffffffffffffffffffffffffffffffe0160190565b90826000939282370152565b9092919261086561086082610809565b6107f5565b93818552818301116102d2576102e4916020850190610844565b9080601f830112156102d2578160206102fa93359101610850565b9190916040818403126102d2576108b18382610505565b92602082013567ffffffffffffffff81116102d2576102fa920161087f565b6103a66108de36600461089a565b90611b3e565b346102d2576108f43660046103ab565b61032f61057f611b8b565b9061090e6105fe6105f4845190565b9060005b81811061091f5750505090565b90919261097c61062c6001928651805173ffffffffffffffffffffffffffffffffffffffff16825260208082015167ffffffffffffffff169083015260408082015115159083015260609081015162ffffff169082015260800190565b929101610912565b60208082526102fa929101906108ff565b346102d25761032f6109b16109ab3660046105bf565b90611b95565b60405191829182610984565b346102d25761032f6104c26109d336600461047a565b611bde565b906020828203126102d2576102fa91610505565b346102d25761032f61057f610a023660046109d8565b611c15565b346102d2576103a6610a1a366004610512565b90611d22565b90916040828403126102d257813567ffffffffffffffff81116102d25783610a4991840161058f565b929093602082013567ffffffffffffffff81116102d257610389920161058f565b346102d2576103a6610a7d366004610a20565b92919091611d91565b346102d25761032f610668610a9c3660046109d8565b611ecd565b91909160a0818403126102d257610ab88382610505565b92610ac68160208401610505565b92610ad48260408501610505565b92606081013567ffffffffffffffff81116102d25783610af591830161087f565b92608082013567ffffffffffffffff81116102d2576102fa920161087f565b346102d2576103a6610b27366004610aa1565b9392909261235c565b346102d25761032f61031c610b463660046106e7565b90612369565b346102d257610b5c3660046103ab565b61032f61045b6123ab565b90916060828403126102d2576102fa610b808484610505565b93604061052e826020870161046d565b346102d25761032f610668610ba6366004610b67565b916123d6565b6102fa6102fa6102fa9290565b6102fa6000610bac565b6102fa610bb9565b346102d257610bdb3660046103ab565b61032f61057f610bc3565b8015156102cb565b905035906102e482610be6565b91906040838203126102d2576102fa906020610c178286610505565b9401610bee565b346102d2576103a6610c31366004610bfb565b906123e1565b90610c4461086083610809565b918252565b610c536005610c37565b7f352e302e30000000000000000000000000000000000000000000000000000000602082015290565b6102fa610c49565b6102fa610c7c565b6102fa610c84565b346102d257610ca43660046103ab565b61032f61045b610c8c565b906080828203126102d257610cc48183610505565b92610cd28260208501610505565b92610ce0836040830161046d565b92606082013567ffffffffffffffff81116102d2576102fa920161087f565b6103a6610d0d366004610caf565b92919091612453565b6080810192916102e49190805173ffffffffffffffffffffffffffffffffffffffff16825260208082015167ffffffffffffffff169083015260408082015115159083015260609081015162ffffff16910152565b346102d25761032f610d86610d8136600461047a565b6124f2565b60405191829182610d16565b346102d25761032f61045b610da836600461047a565b612797565b346102d2576103a6610dc03660046109d8565b612866565b346102d25761032f61057f610ddb36600461047a565b61286f565b346102d2576103a6610df33660046106e7565b906128c2565b346102d2576103a6610e0c3660046109d8565b612907565b91906040838203126102d2576102fa9060206107038286610505565b346102d25761032f61031c610e43366004610e11565b90612910565b346102d2576103a6610e5c36600461047a565b612976565b346102d257610e713660046103ab565b61032f6104c2612a28565b6102fa90612a53565b6102fa7f241ecf16d79d0f8dbfb92cbc07fe17840425976cf0667f022fe9877caa831b08610bac565b906102e491610ec3610ebe610e85565b612aad565b6110b1565b7f4e487b7100000000000000000000000000000000000000000000000000000000600052602260045260246000fd5b9060016002830492168015610f17575b6020831014610f1257565b610ec8565b91607f1691610f07565b91906008610f3b910291610f36600019841b90565b921b90565b9181191691161790565b9190610f566102fa610f5e93610bac565b908354610f21565b9055565b6102e491600091610f45565b818110610f79575050565b80610f876000600193610f62565b01610f6e565b9190601f8111610f9c57505050565b610fae6102e493600052602060002090565b906020601f840181900483019310610fd0575b6020601f909101040190610f6e565b9091508190610fc1565b919067ffffffffffffffff82116107f057610fff82610ff98554610ef7565b85610f8d565b600090601f831160011461103a57610f5e92916000918361102f575b5050600019600883021c1916906002021790565b01359050388061101b565b90601f1983169161105085600052602060002090565b92825b81811061108e57509160029391856001969410611074575b50505002019055565b0135600019601f84166008021c19165b905538808061106b565b92936020600181928786013581550195019301611053565b906102e49291610fda565b6102e491907fbcc05c61c7d0d195434463965fc0e4773cef5b2831056a0cd4dd5dbb8ec965026110a6565b906102e491610eae565b805460009392916111036110f983610ef7565b8085529360200190565b9160018116908115611155575060011461111c57505050565b61112f9192939450600052602060002090565b916000925b8184106111415750500190565b805484840152602090930192600101611134565b92949550505060ff1916825215156020020190565b906102fa916110e6565b906102e461118e9261118560405190565b9384809261116a565b03836107b0565b6102fa90611174565b6102fa60027f2569078dfb4b0305704d3008e7403993ae9601b85f7ae5e742de3de8f8011c405b01611195565b906111d590610bac565b600052602052604060002090565b6111f36111ef82612aeb565b1590565b61124a57600061122f6102fa9260066112297f2569078dfb4b0305704d3008e7403993ae9601b85f7ae5e742de3de8f8011c4090565b016111cb565b015473ffffffffffffffffffffffffffffffffffffffff1690565b7fcf4700e400000000000000000000000000000000000000000000000000000000612b9f565b6102e491600191612ba8565b6102fa60027fbcc05c61c7d0d195434463965fc0e4773cef5b2831056a0cd4dd5dbb8ec965006111c5565b6102fa9081565b6102fa90546112a7565b7f2569078dfb4b0305704d3008e7403993ae9601b85f7ae5e742de3de8f8011c40906113026112fa6112e9846112ae565b6112f5600186016112ae565b900390565b6112f5610bb9565b809261130d60001990565b6000199061131a565b9190565b03611323575050565b6102fa929350600861042b91016112ae565b67ffffffffffffffff81116107f05760208091020190565b90610c4461086083611335565b369037565b906102e461137561136f8461134d565b93611335565b7fffffffffffffffffffffffffffffffffffffffffffffffffffffffffffffffe0016020840161135a565b7f4e487b7100000000000000000000000000000000000000000000000000000000600052603260045260246000fd5b906113d8825190565b8110156113e9576020809102010190565b6113a0565b507fbcc05c61c7d0d195434463965fc0e4773cef5b2831056a0cd4dd5dbb8ec965006114198261135f565b92839060005b845b8110156114615761145a816114546114476114426114219560038a016111cb565b6112ae565b611451838b6113cf565b52565b60010190565b905061141f565b509250925050565b61048e6102fa6102fa9273ffffffffffffffffffffffffffffffffffffffff1690565b6102fa90611469565b6102fa9061148c565b6102fa6114cc60007fbcc05c61c7d0d195434463965fc0e4773cef5b2831056a0cd4dd5dbb8ec9650061122f565b611495565b6102fa6102fa6102fa9273ffffffffffffffffffffffffffffffffffffffff1690565b6102fa73ffffffffffffffffffffffffffffffffffffffff610bac565b61048e6102fa6102fa9290565b906111d590611495565b9060001990610f3b565b906115426102fa610f5e92610bac565b8254611528565b6102fa7c0200000000000000000000000000000000000000000000000000000000610bac565b91909161158c61158761158184612c92565b9261148c565b6114d1565b916115a86115a361159b6114f4565b809516611511565b61148c565b936115b56115a384611511565b6115ea73ffffffffffffffffffffffffffffffffffffffff87165b9173ffffffffffffffffffffffffffffffffffffffff1690565b036118325784926115fa83612dd6565b336116096111ef828985612e14565b6117ea575b50611316959493611748979361171c93611587936117e0575b507f2569078dfb4b0305704d3008e7403993ae9601b85f7ae5e742de3de8f8011c40906116a961169d847f2569078dfb4b0305704d3008e7403993ae9601b85f7ae5e742de3de8f8011c4561169861167f8d8361151e565b61169261168b826112ae565b6000190190565b90611532565b61151e565b611692611454826112ae565b6116e26116bf82856116b9611549565b9b612e9f565b89178473ffffffffffffffffffffffffffffffffffffffff16904260a01b171790565b6116f960048401916116f48a846111cb565b611532565b60009861170e6117088b610bac565b91841690565b14611775575b50505061148c565b1680957fddf252ad1be2c89b69c2b068fc378daa952ba7f163c4a11628f55a4df523b3ef8480a4610bac565b1461174f57565b7fea553b3400000000000000000000000000000000000000000000000000000000612b9f565b886117886117836001610bac565b8a0190565b9361179661144286856111cb565b6117a261131684610bac565b146117af575b5050611714565b6117bd916102fa91016112ae565b83036117cb575b88816117a8565b6117d8926116f4916111cb565b3880806117c4565b6000905538611627565b6111ef906117fc929894969597612910565b61180c578694929391953861160e565b7f59c896be00000000000000000000000000000000000000000000000000000000612b9f565b7fa114810000000000000000000000000000000000000000000000000000000000612b9f565b906111d5565b600161189a6102fa9261186f600090565b5060007f02dd7bc7dec4dceedda775e58dd541e08a116c6c53815c0bd028192f7b6268005b01611858565b016112ae565b906102e4916118b1610ebe8261185e565b906118bb91612ede565b50565b906102e4916118a0565b906118d23361048e565b73ffffffffffffffffffffffffffffffffffffffff8216036118f7576118bb91612f78565b7f6697b23200000000000000000000000000000000000000000000000000000000600090815260045b036000fd5b73ffffffffffffffffffffffffffffffffffffffff9182168152911660208201526060810192916102e49160400152565b6040513d6000823e3d90fd5b600061196d81610bac565b8314611a7d577fbcc05c61c7d0d195434463965fc0e4773cef5b2831056a0cd4dd5dbb8ec96500926119b86114cc8386015473ffffffffffffffffffffffffffffffffffffffff1690565b600185015473ffffffffffffffffffffffffffffffffffffffff1690803b156102d257828491611a0c93836119ec60405190565b809681958294611a006323b872dd60e01b90565b84523360048501611925565b03925af18015611a78576102e495611a3b946116f493600393611a4b575b505001611a35612ff7565b906111cb565b611a456001610bac565b9061302c565b81611a6a92903d10611a71575b611a6281836107b0565b8101906103ab565b3880611a2a565b503d611a58565b611956565b7fe8580803000000000000000000000000000000000000000000000000000000008152600490fd5b6102fa6000610c37565b6102fa611aa5565b90916102e492611ac5611aaf565b92612453565b6102fa7fc1afd8425b8b41464386646c3e1045d33b9103e915d44771f2b8986b8c964dc5610bac565b6102e490611b03610ebe611acb565b60016102e491613224565b6102e490611af4565b906102e491611b24613433565b906102e491611b34610ebe610e85565b906102e491613501565b906102e491611b17565b6102fa90611b5461350b565b611b82565b6102fa7f360894a13ba1a3210667c828492db98dca3e2076cc3735a920a3ca505d382bbc610bac565b506102fa611b59565b6102fa6000611b48565b90916040519280845260051b8060208501016040525b611bb56000610bac565b8114611bd9576020900390611bcc828401356124f2565b8260208601015290611bab565b509050565b6115a3611bf66102fa92611bf0600090565b50612c92565b611511565b6102fa90611511565b6102fa67ffffffffffffffff610bac565b611c2261048e6000611bfb565b73ffffffffffffffffffffffffffffffffffffffff821614611c8057611442611c74916005611c6e7f2569078dfb4b0305704d3008e7403993ae9601b85f7ae5e742de3de8f8011c4090565b0161151e565b611c7c611c04565b1690565b7f8f4eb60400000000000000000000000000000000000000000000000000000000612b9f565b906102e491611cb6610ebe611acb565b611cc1903390612910565b8015611d04575b155b611cd95760006102e491613224565b7fc19f17a9000000000000000000000000000000000000000000000000000000006000908152600490fd5b50611cca611d11826111e3565b611d1a336115d0565b149050611cc8565b906102e491611ca6565b91908110156113e9576020020190565b356102fa81610467565b7f4e487b7100000000000000000000000000000000000000000000000000000000600052601160045260246000fd5b91908201809211611d8257565b611d46565b356102fa816104e9565b9093909184937fbcc05c61c7d0d195434463965fc0e4773cef5b2831056a0cd4dd5dbb8ec9650091600093845b87811015611e4557611dd9611dd4828686611d2c565b611d3c565b956000611de581610bac565b8814611a7d575086611df691611d75565b9560038601611e03612ff7565b611e0c916111cb565b90611e1691611532565b611e21818a89611d2c565b611e2a90611d87565b611e346001610bac565b611e3d9161302c565b600101611dbe565b509650505092509050611e936001611e776114cc600086015473ffffffffffffffffffffffffffffffffffffffff1690565b93015473ffffffffffffffffffffffffffffffffffffffff1690565b90823b156102d257611eac92600092836119ec60405190565b03925af18015611a7857611ebd5750565b6102e4906000611a6281836107b0565b6060611ed7610bb9565b611edf612ff7565b9192828203611eef575b50505090565b611ef9935061355a565b388080611ee9565b6102fa9060081c5b60ff1690565b6102fa9054611f01565b6102fa90611f09565b6102fa9054611f19565b15611f3357565b6040517f08c379a000000000000000000000000000000000000000000000000000000000815260206004820152603760248201527f455243373231415f5f496e697469616c697a61626c653a20636f6e747261637460448201527f20697320616c726561647920696e697469616c697a65640000000000000000006064820152608490fd5b9061ff009060081b610f3b565b90611fd56102fa610f5e92151590565b8254611fb8565b9060ff90610f3b565b90611ff56102fa610f5e92151590565b8254611fdc565b9093909261205f927fee151c8401928dc223602bb187aff91b9a56c7cae5476ef1b3287b085a16c85f95869561203187611f0f565b1561208d5761204661204161378c565b611f2c565b6120526111ef88611f0f565b9687612072575b5061215d565b6120665750565b6102e490600090611fc5565b6001816120828261208794611fc5565b611fe5565b38612059565b6120466120416111ef8a611f22565b6102fa9060401c611f09565b6102fa905461209c565b6102fa905b67ffffffffffffffff1690565b6102fa90546120b2565b6120b76102fa6102fa9290565b9067ffffffffffffffff90610f3b565b6120b76102fa6102fa9267ffffffffffffffff1690565b906121126102fa610f5e926120eb565b82546120db565b9068ff00000000000000009060401b610f3b565b9061213d6102fa610f5e92151590565b8254612119565b6102fd906120ce565b6020810192916102e49190612144565b92939091907ff0c57e16840df040f15088dc2f81fe391c3923bec73e23a9662efc9c229c6a0094859261219b6121956111ef866120a8565b946120c4565b946000966121a8886120ce565b67ffffffffffffffff881614806122c1575b6001976121d76121c98a6120ce565b9167ffffffffffffffff1690565b14908161229d575b155b9081612294575b5061226c5790612215949392918661220c8a6122038b6120ce565b9c019b8c612102565b61225d576122fb565b61221e57505050565b61224c612258927fc7f505b2f371ae2175ee4913f4499e1f2633a7b5936321eed1cdaeb6115181d29461212d565b6040519182918261214d565b0390a1565b612267888b61212d565b6122fb565b7ff92ee8a9000000000000000000000000000000000000000000000000000000008852600488fd5b159050386121e8565b90506121e16122ab30611495565b3b6122b86113168c610bac565b149190506121df565b50856121ba565b9073ffffffffffffffffffffffffffffffffffffffff90610f3b565b906122f46102fa610f5e92611495565b82546122c8565b926123426118bb95926001612347959661233c6123357fbcc05c61c7d0d195434463965fc0e4773cef5b2831056a0cd4dd5dbb8ec9650090565b91826122e4565b016122e4565b613873565b61234f6138a6565b612357611acb565b612ede565b906102e494939291611ffc565b6102fa916000611c6e6123a69361237e600090565b50827f02dd7bc7dec4dceedda775e58dd541e08a116c6c53815c0bd028192f7b626800611894565b611f22565b6102fa60037f2569078dfb4b0305704d3008e7403993ae9601b85f7ae5e742de3de8f8011c406111c5565b6102fa92919061355a565b7f17307eab39ab6107e8899845ad3d59bd9653f200f220920489ca2b5937696c3161244e61244461243e336114cc8761208288611698857f2569078dfb4b0305704d3008e7403993ae9601b85f7ae5e742de3de8f8011c4761151e565b93611495565b9361032060405190565b0390a3565b9192909261246281858561156f565b833b6124716113166000610bac565b0361247d575b50505050565b61248a936111ef9361396a565b6124975738808080612477565b7fd1a57ed600000000000000000000000000000000000000000000000000000000612b9f565b6102fa60806107f5565b6124cf6124bd565b60008082526020820181905260408201819052606082015290565b6102fa6124c7565b906124fb6124ea565b916125076102fa610bb9565b8110156125115750565b61251c6102fa612ff7565b81106125255750565b9091505b6125356111ef82613a9a565b156125435760001901612529565b6102fa90613a5a565b61042b6125649260209261255e815190565b94859290565b938491016103b6565b8054600093929161258461258083610ef7565b9390565b91600181169081156125d5575060011461259d57505050565b6125b09192939450600052602060002090565b6000905b8382106125c15750500190565b6001816020925484860152019101906125b4565b7fffffffffffffffffffffffffffffffffffffffffffffffffffffffffffffff001683525050811515909102019150565b61276e9361264f61267e6102fa979561264f6126556127689761264f61273f987f7b226e616d65223a2022000000000000000000000000000000000000000000008152600a0190565b9061254c565b7f2023000000000000000000000000000000000000000000000000000000000000815260020190565b7f222c20226465736372697074696f6e223a20224120436172626f6e204372656481527f697420373231206261636b65642062792074686520616d6f756e74206f66204360208201527f6172626f6e20437265646974203230222c202261747472696275746573223a2060408201527f5b7b2274726169745f74797065223a2022436172626f6e20437265646974222c60608201527f202276616c7565223a20220000000000000000000000000000000000000000006080820152608b0190565b7f227d5d2c2022696d616765223a000000000000000000000000000000000000008152600d0190565b9061256d565b7f7d00000000000000000000000000000000000000000000000000000000000000815260010190565b6102fa907fbcc05c61c7d0d195434463965fc0e4773cef5b2831056a0cd4dd5dbb8ec965009082906127ec611442827fbcc05c61c7d0d195434463965fc0e4773cef5b2831056a0cd4dd5dbb8ec965036111cb565b9061281f600261280661280061280061119e565b94613b0f565b950161281160405190565b958694602086019485612606565b908103825203826107b0565b6102e49061283a610ebe610e85565b6102e49060007fbcc05c61c7d0d195434463965fc0e4773cef5b2831056a0cd4dd5dbb8ec9650061233c565b6102e49061282b565b6114426102fa9161287e600090565b5060037fbcc05c61c7d0d195434463965fc0e4773cef5b2831056a0cd4dd5dbb8ec96500611229565b906102e4916128b8610ebe8261185e565b906118bb91612f78565b906102e4916128a7565b6102e4906128db610ebe610e85565b6102e49060017fbcc05c61c7d0d195434463965fc0e4773cef5b2831056a0cd4dd5dbb8ec9650061233c565b6102e4906128cc565b6102fa916116986123a692612923600090565b5060077f2569078dfb4b0305704d3008e7403993ae9601b85f7ae5e742de3de8f8011c40611c6e565b73ffffffffffffffffffffffffffffffffffffffff90911681526040810192916102e49160200152565b612981600182613224565b6129d96114427fbcc05c61c7d0d195434463965fc0e4773cef5b2831056a0cd4dd5dbb8ec965009260036129d26114cc6114cc600188015473ffffffffffffffffffffffffffffffffffffffff1690565b94016111cb565b90803b156102d257611eac6000929183926129f360405190565b94859384928391907f9dab7601000000000000000000000000000000000000000000000000000000008352336004840161294c565b6102fa60017fbcc05c61c7d0d195434463965fc0e4773cef5b2831056a0cd4dd5dbb8ec9650061122f565b7f7965db0b000000000000000000000000000000000000000000000000000000007fffffffff00000000000000000000000000000000000000000000000000000000821614908115612aa3575090565b6102fa9150613bae565b6102e4903390613bd7565b8015611d82576000190190565b6102fa7c0100000000000000000000000000000000000000000000000000000000610bac565b90600091612af7610bb9565b811015612b015750565b7f2569078dfb4b0305704d3008e7403993ae9601b85f7ae5e742de3de8f8011c40612b2e6102fa826112ae565b8210612b38575050565b9192505b612b4c61144282600485016111cb565b80612b5a6113166000610bac565b03612b7e5750611442600492612b72612b4c93612ab8565b9093509150612b3c9050565b915050612b9b612b8c612ac5565b612b966000610bac565b921690565b1490565b60005260046000fd5b91612bb282611bde565b9080612c6a575b612c32575b612bfb61243e612c01926114cc86600061233c8860066112297f2569078dfb4b0305704d3008e7403993ae9601b85f7ae5e742de3de8f8011c4090565b91610bac565b917f8c5be1e5ebec7d5bd14f71427d1e84f3dd0314c0f7b2291e5b200ac8c7c3b925612c2c60405190565b600090a4565b612c3f6111ef3383612910565b15612bbe577fcfb3b94200000000000000000000000000000000000000000000000000000000612b9f565b5033612c8b73ffffffffffffffffffffffffffffffffffffffff83166115d0565b1415612bb9565b612c9a610bb9565b811015612cc8575b7fdf2d9b4200000000000000000000000000000000000000000000000000000000612b9f565b7f2569078dfb4b0305704d3008e7403993ae9601b85f7ae5e742de3de8f8011c407f2569078dfb4b0305704d3008e7403993ae9601b85f7ae5e742de3de8f8011c44612d1761144284836111cb565b92600092612d2484610bac565b8514612d4f57505050612d47612d41612d3b612ac5565b92610bac565b91831690565b03612ca25790565b83612d6292939495506102fa91016112ae565b811015612ca257909190600019015b91612d7f61144284836111cb565b92612d8983610bac565b8414612dca575050612d9f612d41612d3b612ac5565b146102fa577fdf2d9b4200000000000000000000000000000000000000000000000000000000612b9f565b90925060001901612d71565b6102fa612e0e91612de5600090565b5060067f2569078dfb4b0305704d3008e7403993ae9601b85f7ae5e742de3de8f8011c40611229565b90815490565b919073ffffffffffffffffffffffffffffffffffffffff8091612e35600090565b5016911691821491141790565b6102fa60e8610bac565b6102fa90612e5d6113166102fa9490565b901c90565b612e6f6102fa6102fa9290565b62ffffff1690565b6102fa6102fa6102fa9262ffffff1690565b6102fa90612e9a6113166102fa9490565b901b90565b612ed4612ed9916102fa9493612eb3600090565b50612ece612ec9612ec2612e42565b8097612e4c565b612e62565b91613c1f565b612e77565b612e89565b7f02dd7bc7dec4dceedda775e58dd541e08a116c6c53815c0bd028192f7b626800612f0c6111ef8484612369565b15612f70576001612082846000611c6e8682612f289701611858565b612f3c612f3661243e339390565b91611495565b917f2f8788117e7eff1d82e926ec794901d17c78024a50270940304540a733656f0d612f6760405190565b600090a4600190565b505050600090565b7f02dd7bc7dec4dceedda775e58dd541e08a116c6c53815c0bd028192f7b626800612fa38383612369565b15612f705760006120828482611c6e8682612fbe9701611858565b612fcc612f3661243e339390565b917ff6391f5c32d9c69d2a47ea670b442974b53935d1edc7fd64eb21e047a839171b612f6760405190565b6102fa60007f2569078dfb4b0305704d3008e7403993ae9601b85f7ae5e742de3de8f8011c4061189a565b6102fa6040610bac565b9091907f2569078dfb4b0305704d3008e7403993ae9601b85f7ae5e742de3de8f8011c409061305a826112ae565b9160009161306783610bac565b86146131f45780866130d16130c46130856130fb9a60011460e11b90565b6130a261309189611bfb565b61309a8a610bac565b978891612e9f565b178473ffffffffffffffffffffffffffffffffffffffff16904260a01b171790565b6116f488600488016111cb565b61311b6115876001936115a36131016130e8613022565b6130f26001610bac565b9d8e9182612e89565b17860290565b6116926131118460058c0161151e565b9161042b836112ae565b6131236114f4565b169283146131ce576131389086019597860390565b613143600019611316565b116131a8576001815b613160575b5050506102e493945001611532565b15613196575b83908783867fddf252ad1be2c89b69c2b068fc378daa952ba7f163c4a11628f55a4df523b3ef8180a4908161314c565b95600101958487036131665780613151565b7f81647e3a00000000000000000000000000000000000000000000000000000000612b9f565b7f2e07630000000000000000000000000000000000000000000000000000000000612b9f565b7fb562e8dd00000000000000000000000000000000000000000000000000000000612b9f565b6102fa6080610bac565b61322d81612c92565b9161323a6115a384611511565b9061324483612dd6565b90916133f9575b92613362612bfb61243e613284956102e498956001986133ef575b5061328861327261321a565b61327b8a610bac565b98899182612e89565b0390565b7f2569078dfb4b0305704d3008e7403993ae9601b85f7ae5e742de3de8f8011c4097906132dc90611692613111857f2569078dfb4b0305704d3008e7403993ae9601b85f7ae5e742de3de8f8011c4561151e565b6132e4612ac5565b966132ed611549565b8098179760009261332e61330085611bfb565b9a61330c858d89612e9f565b178673ffffffffffffffffffffffffffffffffffffffff16904260a01b171790565b9161334160048d01936116f48c866111cb565b61335361334d86610bac565b91851690565b1461339e575b50505050611495565b917fddf252ad1be2c89b69c2b068fc378daa952ba7f163c4a11628f55a4df523b3ef61338d60405190565b600090a401611692611454826112ae565b8801926133ae61144285846111cb565b6133ba61131683610bac565b03613359576102fa6133cd918c016112ae565b83036133da575b80613359565b6133e7926116f4916111cb565b3880806133d4565b6000905538613266565b336134086111ef828685612e14565b613413575b5061324b565b6111ef61342591859794969395612910565b61180c57929093913861340d565b61343c30611495565b7f00000000000000000000000000000000000000000000000000000000000000009061347d73ffffffffffffffffffffffffffffffffffffffff83166115d0565b149081156134b8575b5061348d57565b7fe07c8dba000000000000000000000000000000000000000000000000000000006000908152600490fd5b90506134e26115d06134c8613c2a565b9273ffffffffffffffffffffffffffffffffffffffff1690565b141538613486565b906102e4916134f7613433565b906102e491613c5b565b906102e4916134ea565b61351430611495565b61355373ffffffffffffffffffffffffffffffffffffffff7f0000000000000000000000000000000000000000000000000000000000000000166115d0565b0361348d57565b6060939291828110156137665761356f610bb9565b80821061375e575b50613580612ff7565b600093600019929190613758565b80821015613750575b506135a185611c15565b948184101561373e575b6000926135b784610bac565b87036135c8575b5050505050505050565b909192949698506135dc8484999597990390565b88811115613736575b506000906040519460018a0160051b8601998a604052613604896124f2565b93886000956136196111ef6040830151151590565b613715575b505060009c9b9a99949c509560015b156136e1575b8b9c899c9a9b9c9a6136a8575b61364986613a5a565b60408101511561366b575050600189955b01998c6040529c9b9a99949c61362d565b809691965161369f575b5086861860601b1561368a575b60019061365a565b6001909701600581901b890188905296613682565b51955038613675565b8486146136c7575b8b86111561364057506136c289611bfb565b613640565b94506136db6136d66001610bac565b8c0190565b946136b0565b808514801561370c575b156136335750509850505050935094505050825238808080808080806135be565b508682146136eb565b015173ffffffffffffffffffffffffffffffffffffffff169450883861361e565b9750386135e5565b945061374a6000610bac565b946135ab565b905038613597565b8161358e565b905038613577565b7f32c1995a00000000000000000000000000000000000000000000000000000000612b9f565b61379530611495565b3b612b9b6113166000610bac565b156137aa57565b6040517f08c379a000000000000000000000000000000000000000000000000000000000815260206004820152603460248201527f455243373231415f5f496e697469616c697a61626c653a20636f6e747261637460448201527f206973206e6f7420696e697469616c697a696e670000000000000000000000006064820152608490fd5b6102e4919061386961386460007fee151c8401928dc223602bb187aff91b9a56c7cae5476ef1b3287b085a16c85f5b01611f0f565b6137a3565b906102e491613f1c565b906102e49161382f565b613885613f26565b6102e461389a613893610e85565b3390612ede565b506118bb613893610bb9565b6102e461387d565b905051906102e4826102a7565b906020828203126102d2576102fa916138ae565b73ffffffffffffffffffffffffffffffffffffffff91821681529116602082015260408101919091526080606082018190526102fa929101906103d9565b6139266139206102fa9263ffffffff1690565b60e01b90565b7fffffffff000000000000000000000000000000000000000000000000000000001690565b3d156139655761395a3d610c37565b903d6000602084013e565b606090565b9093929160209061397f6114cc600097611495565b63150b7a02936000336139b061399460405190565b988996879586946139a58c60e01b90565b8652600486016138cf565b03925af160009281613a29575b506139f057505060016139cc57565b6139d461394b565b80516139e36113166000610bac565b1461249757805190602001fd5b612b9b91929350613926613a039161390d565b917fffffffff000000000000000000000000000000000000000000000000000000001690565b613a4c91935060203d602011613a53575b613a4481836107b0565b8101906138bb565b91386139bd565b503d613a3a565b613a956114426102fa92613a6c6124ea565b5060047f2569078dfb4b0305704d3008e7403993ae9601b85f7ae5e742de3de8f8011c40611229565b613f6c565b611442613aa991613a6c600090565b613ab66113166000610bac565b141590565b906102e4611375613acb84610c37565b93610809565b7f4e487b7100000000000000000000000000000000000000000000000000000000600052601260045260246000fd5b8115613b0a570490565b613ad1565b613b1881614011565b90613b2960019261042b6001610bac565b9180613b3484613abb565b936020018401905b613b465750505090565b8115613ba957613b8d9060001901927f3031323334353637383961626364656600000000000000000000000000000000600a82061a8453613b87600a610bac565b90613b00565b9081613b9c6113166000610bac565b14613ba957909181613b3c565b611ee9565b612b9b7f01ffc9a700000000000000000000000000000000000000000000000000000000613a03565b90613be56111ef8284612369565b613bed575050565b7fe2517d3f0000000000000000000000000000000000000000000000000000000060009081529161192091600461294c565b5050506102fa600090565b6102fa600061122f6102fa611b59565b905051906102e482610467565b906020828203126102d2576102fa91613c3a565b90613c686114cc83611495565b906020613c7460405190565b7f52d1902d00000000000000000000000000000000000000000000000000000000815292839060049082905afa60009281613d51575b50613d025750506001613cba5750565b7f4c9c8ce300000000000000000000000000000000000000000000000000000000600090815273ffffffffffffffffffffffffffffffffffffffff9091166004526024036000fd5b909291613d106102fa611b59565b8403613d21576102e49293506141b3565b7faa1d49a40000000000000000000000000000000000000000000000000000000060009081526004859052602490fd5b613d7491935060203d602011613d7b575b613d6c81836107b0565b810190613c47565b9138613caa565b503d613d62565b6102e49190613db561386460007fee151c8401928dc223602bb187aff91b9a56c7cae5476ef1b3287b085a16c85f61385e565b613e8a565b90613dc3815190565b9067ffffffffffffffff82116107f057613de182610ff98554610ef7565b602090601f8311600114613e1b57610f5e929160009183613e10575050600019600883021c1916906002021790565b01519050388061101b565b601f19831691613e3085600052602060002090565b9260005b818110613e6857509160029391856001969410613e545750505002019055565b01516000196008601f8516021c1916611084565b91936020600181928787015181550195019201613e34565b906102e491613dba565b613ee290613ed1600093613ec8613ebe7f2569078dfb4b0305704d3008e7403993ae9601b85f7ae5e742de3de8f8011c4090565b9360028501613e80565b60038301613e80565b613ed9610bb9565b92839101611532565b613eef6113166000199290565b10613ef657565b7ffed8210f00000000000000000000000000000000000000000000000000000000612b9f565b906102e491613d82565b613f316111ef61421c565b613f3757565b7fd7e6bcf8000000000000000000000000000000000000000000000000000000006000908152600490fd5b6102fa60a0610bac565b906102e4613f786124ea565b6060614007612ec98396613fab613f916115a383611511565b73ffffffffffffffffffffffffffffffffffffffff168652565b613fd8613fc7613fc2613fbc613f62565b84612e4c565b6120ce565b67ffffffffffffffff166020870152565b613ff9613fe3612ac5565b613ff06117086000610bac565b14156040870152565b614001612e42565b90612e4c565b62ffffff16910152565b61401b6000610bac565b907a184f03e93ff9f4daa797ed6e38ed64bf6a1f01000000000000000061404181610bac565b821015614191575b506d04ee2d6d415b85acef810000000061406281610bac565b82101561416f575b50662386f26fc1000061407c81610bac565b82101561414d575b506305f5e10061409381610bac565b82101561412b575b506127106140a881610bac565b821015614109575b506140bb6064610bac565b8110156140e7575b6140d0611316600a610bac565b10156140d95790565b6102fa9061042b6001610bac565b6140f861410391613b876064610bac565b9161042b6002610bac565b906140c3565b61412491613b8761411992610bac565b9161042b6004610bac565b90386140b0565b61414691613b8761413b92610bac565b9161042b6008610bac565b903861409b565b61416891613b8761415d92610bac565b9161042b6010610bac565b9038614084565b61418a91613b8761417f92610bac565b9161042b6020610bac565b903861406a565b6141ac91613b876141a192610bac565b9161042b6040610bac565b9038614049565b906141bd82614245565b6141c682611495565b7fbc7cd75a20ee27fd9adebab32041f755214dbc6bffa90cc0225b39da2e5c2d3b6141f060405190565b600090a280516142036113166000610bac565b1115614212576118bb916142ec565b50506102e46142b0565b6102fa7ff0c57e16840df040f15088dc2f81fe391c3923bec73e23a9662efc9c229c6a006120a8565b6000813b61425561131683610bac565b1461426a57906102e49161233c6102fa611b59565b7f4c9c8ce300000000000000000000000000000000000000000000000000000000815273ffffffffffffffffffffffffffffffffffffffff919091166004820152602490fd5b60006142bb81610bac565b34116142c45750565b7fb398979f000000000000000000000000000000000000000000000000000000008152600490fd5b6000806102fa936142fb606090565b50602081519101845af461430d61394b565b91906143195750614393565b81519060009161432b61131684610bac565b148061437e575b61433b57505090565b7f9996b31500000000000000000000000000000000000000000000000000000000825273ffffffffffffffffffffffffffffffffffffffff166004820152602490fd5b50803b61438d61131684610bac565b14614332565b80516000906143a461131683610bac565b11156143b35750805190602001fd5b7fd6bda275000000000000000000000000000000000000000000000000000000008152600490fdfea264697066735822122058c18eae2007eb6790c381d41e4fa8b625a67ca54ff99cddaa315d38bff5c41664736f6c634300081c0033",
  "linkReferences": {},
  "deployedLinkReferences": {},
  "networkId": 11155111,
  "address": "0x839d891523Da1622b15C030043B6FaAaCaE9595D"
}