{
  "_format": "hh-sol-artifact-1",
  "contractName": "RouterVault",
  "sourceName": "contracts/vaults/RouterVault.sol",
  "abi": [
    {
      "inputs": [],
      "name": "AccessControlBadConfirmation",
      "type": "error"
    },
    {
      "inputs": [
        {
          "internalType": "address",
          "name": "account",
          "type": "address"
        },
        {
          "internalType": "bytes32",
          "name": "neededRole",
          "type": "bytes32"
        }
      ],
      "name": "AccessControlUnauthorizedAccount",
      "type": "error"
    },
    {
      "inputs": [
        {
          "internalType": "address",
          "name": "target",
          "type": "address"
        }
      ],
      "name": "AddressEmptyCode",
      "type": "error"
    },
    {
      "inputs": [
        {
          "internalType": "address",
          "name": "implementation",
          "type": "address"
        }
      ],
      "name": "ERC1967InvalidImplementation",
      "type": "error"
    },
    {
      "inputs": [],
      "name": "ERC1967NonPayable",
      "type": "error"
    },
    {
      "inputs": [],
      "name": "FailedCall",
      "type": "error"
    },
    {
      "inputs": [],
      "name": "InvalidInitialization",
      "type": "error"
    },
    {
      "inputs": [],
      "name": "NotInitializing",
      "type": "error"
    },
    {
      "inputs": [],
      "name": "TransactionFailed",
      "type": "error"
    },
    {
      "inputs": [],
      "name": "UUPSUnauthorizedCallContext",
      "type": "error"
    },
    {
      "inputs": [
        {
          "internalType": "bytes32",
          "name": "slot",
          "type": "bytes32"
        }
      ],
      "name": "UUPSUnsupportedProxiableUUID",
      "type": "error"
    },
    {
      "anonymous": false,
      "inputs": [
        {
          "indexed": false,
          "internalType": "uint64",
          "name": "version",
          "type": "uint64"
        }
      ],
      "name": "Initialized",
      "type": "event"
    },
    {
      "anonymous": false,
      "inputs": [
        {
          "indexed": true,
          "internalType": "bytes32",
          "name": "role",
          "type": "bytes32"
        },
        {
          "indexed": true,
          "internalType": "bytes32",
          "name": "previousAdminRole",
          "type": "bytes32"
        },
        {
          "indexed": true,
          "internalType": "bytes32",
          "name": "newAdminRole",
          "type": "bytes32"
        }
      ],
      "name": "RoleAdminChanged",
      "type": "event"
    },
    {
      "anonymous": false,
      "inputs": [
        {
          "indexed": true,
          "internalType": "bytes32",
          "name": "role",
          "type": "bytes32"
        },
        {
          "indexed": true,
          "internalType": "address",
          "name": "account",
          "type": "address"
        },
        {
          "indexed": true,
          "internalType": "address",
          "name": "sender",
          "type": "address"
        }
      ],
      "name": "RoleGranted",
      "type": "event"
    },
    {
      "anonymous": false,
      "inputs": [
        {
          "indexed": true,
          "internalType": "bytes32",
          "name": "role",
          "type": "bytes32"
        },
        {
          "indexed": true,
          "internalType": "address",
          "name": "account",
          "type": "address"
        },
        {
          "indexed": true,
          "internalType": "address",
          "name": "sender",
          "type": "address"
        }
      ],
      "name": "RoleRevoked",
      "type": "event"
    },
    {
      "anonymous": false,
      "inputs": [
        {
          "indexed": true,
          "internalType": "address",
          "name": "implementation",
          "type": "address"
        }
      ],
      "name": "Upgraded",
      "type": "event"
    },
    {
      "inputs": [],
      "name": "DEFAULT_ADMIN_ROLE",
      "outputs": [
        {
          "internalType": "bytes32",
          "name": "",
          "type": "bytes32"
        }
      ],
      "stateMutability": "view",
      "type": "function"
    },
    {
      "inputs": [],
      "name": "UPGRADE_INTERFACE_VERSION",
      "outputs": [
        {
          "internalType": "string",
          "name": "",
          "type": "string"
        }
      ],
      "stateMutability": "view",
      "type": "function"
    },
    {
      "inputs": [
        {
          "internalType": "bytes32",
          "name": "role",
          "type": "bytes32"
        }
      ],
      "name": "getRoleAdmin",
      "outputs": [
        {
          "internalType": "bytes32",
          "name": "",
          "type": "bytes32"
        }
      ],
      "stateMutability": "view",
      "type": "function"
    },
    {
      "inputs": [
        {
          "internalType": "bytes32",
          "name": "role",
          "type": "bytes32"
        },
        {
          "internalType": "address",
          "name": "account",
          "type": "address"
        }
      ],
      "name": "grantRole",
      "outputs": [],
      "stateMutability": "nonpayable",
      "type": "function"
    },
    {
      "inputs": [
        {
          "internalType": "bytes32",
          "name": "role",
          "type": "bytes32"
        },
        {
          "internalType": "address",
          "name": "account",
          "type": "address"
        }
      ],
      "name": "hasRole",
      "outputs": [
        {
          "internalType": "bool",
          "name": "",
          "type": "bool"
        }
      ],
      "stateMutability": "view",
      "type": "function"
    },
    {
      "inputs": [],
      "name": "init",
      "outputs": [],
      "stateMutability": "nonpayable",
      "type": "function"
    },
    {
      "inputs": [],
      "name": "proxiableUUID",
      "outputs": [
        {
          "internalType": "bytes32",
          "name": "",
          "type": "bytes32"
        }
      ],
      "stateMutability": "view",
      "type": "function"
    },
    {
      "inputs": [
        {
          "internalType": "bytes32",
          "name": "role",
          "type": "bytes32"
        },
        {
          "internalType": "address",
          "name": "callerConfirmation",
          "type": "address"
        }
      ],
      "name": "renounceRole",
      "outputs": [],
      "stateMutability": "nonpayable",
      "type": "function"
    },
    {
      "inputs": [
        {
          "internalType": "bytes32",
          "name": "role",
          "type": "bytes32"
        },
        {
          "internalType": "address",
          "name": "account",
          "type": "address"
        }
      ],
      "name": "revokeRole",
      "outputs": [],
      "stateMutability": "nonpayable",
      "type": "function"
    },
    {
      "inputs": [
        {
          "internalType": "bytes4",
          "name": "interfaceId",
          "type": "bytes4"
        }
      ],
      "name": "supportsInterface",
      "outputs": [
        {
          "internalType": "bool",
          "name": "",
          "type": "bool"
        }
      ],
      "stateMutability": "view",
      "type": "function"
    },
    {
      "inputs": [
        {
          "internalType": "address",
          "name": "newImplementation",
          "type": "address"
        },
        {
          "internalType": "bytes",
          "name": "data",
          "type": "bytes"
        }
      ],
      "name": "upgradeToAndCall",
      "outputs": [],
      "stateMutability": "payable",
      "type": "function"
    },
    {
      "inputs": [
        {
          "internalType": "address",
          "name": "_to",
          "type": "address"
        },
        {
          "internalType": "uint256",
          "name": "_amount",
          "type": "uint256"
        }
      ],
      "name": "withdraw",
      "outputs": [],
      "stateMutability": "nonpayable",
      "type": "function"
    },
    {
      "stateMutability": "payable",
      "type": "receive"
    }
  ],
  "bytecode": "0x60a060405234602f57600e6034565b60405161130261007e8239608051818181610ceb0152610df1015261130290f35b600080fd5b603a603c565b565b603a6071565b6054906057906001600160a01b031682565b90565b6001600160a01b031690565b6054906042565b6054906063565b607830606a565b60805256fe6080604052600436101561001b575b361561001957600080fd5b005b60003560e01c806301ffc9a7146100db578063248a9ca3146100d65780632f2ff15d146100d157806336568abe146100cc5780634f1ef286146100c757806352d1902d146100c257806391d14854146100bd578063a217fddf146100b8578063ad3cb1cc146100b3578063d547741f146100ae578063e1c7392a146100a95763f3fef3a30361000e5761059a565b61055f565b610546565b61051f565b610421565b6103e6565b6103cb565b6103ac565b610240565b610222565b610192565b61013a565b7fffffffff0000000000000000000000000000000000000000000000000000000081165b0361010b57565b600080fd5b9050359061011d826100e0565b565b9060208282031261010b5761013391610110565b90565b9052565b3461010b5761016761015561015036600461011f565b6105b3565b60405191829182901515815260200190565b0390f35b80610104565b9050359061011d8261016b565b9060208282031261010b5761013391610171565b3461010b576101676101ad6101a836600461017e565b610670565b6040519182918290815260200190565b73ffffffffffffffffffffffffffffffffffffffff1690565b73ffffffffffffffffffffffffffffffffffffffff8116610104565b9050359061011d826101d6565b919060408382031261010b5761013390602061021b8286610171565b94016101f2565b3461010b5761023b6102353660046101ff565b906106d5565b604051005b3461010b5761023b6102533660046101ff565b906106df565b7f4e487b7100000000000000000000000000000000000000000000000000000000600052604160045260246000fd5b90601f017fffffffffffffffffffffffffffffffffffffffffffffffffffffffffffffffe016810190811067ffffffffffffffff8211176102c857604052565b610259565b9061011d6102da60405190565b9283610288565b67ffffffffffffffff81116102c857602090601f017fffffffffffffffffffffffffffffffffffffffffffffffffffffffffffffffe0160190565b0190565b90826000939282370152565b9092919261034161033c826102e1565b6102cd565b938185528183011161010b5761011d916020850190610320565b9080601f8301121561010b578160206101339335910161032c565b91909160408184031261010b5761038d83826101f2565b92602082013567ffffffffffffffff811161010b57610133920161035b565b61023b6103ba366004610376565b90610791565b600091031261010b57565b3461010b576103db3660046103c0565b6101676101ad6107de565b3461010b576101676101556103fc3660046101ff565b9061083c565b6101336101336101339290565b6101336000610402565b61013361040f565b3461010b576104313660046103c0565b6101676101ad610419565b9061044961033c836102e1565b918252565b610458600561043c565b7f352e302e30000000000000000000000000000000000000000000000000000000602082015290565b61013361044e565b610133610481565b610133610489565b60005b8381106104ac5750506000910152565b818101518382015260200161049c565b6104dd6104e660209361031c936104d1815190565b80835293849260200190565b95869101610499565b601f017fffffffffffffffffffffffffffffffffffffffffffffffffffffffffffffffe01690565b6020808252610133929101906104bc565b3461010b5761052f3660046103c0565b61016761053a610491565b6040519182918261050e565b3461010b5761023b6105593660046101ff565b9061089f565b3461010b5761056f3660046103c0565b61023b610af5565b919060408382031261010b5761013390602061059382866101f2565b9401610171565b3461010b5761023b6105ad366004610577565b90610b87565b7f7965db0b000000000000000000000000000000000000000000000000000000007fffffffff00000000000000000000000000000000000000000000000000000000821614908115610603575090565b61013391507fffffffff00000000000000000000000000000000000000000000000000000000167f01ffc9a7000000000000000000000000000000000000000000000000000000001490565b905b600052602052604060002090565b6101339081565b610133905461065f565b60016106ac61013392610681600090565b5060007f02dd7bc7dec4dceedda775e58dd541e08a116c6c53815c0bd028192f7b6268005b0161064f565b01610666565b9061011d916106c86106c382610670565b610b91565b906106d291610bbc565b50565b9061011d916106b2565b906106e9336101bd565b73ffffffffffffffffffffffffffffffffffffffff82160361070e576106d291610c61565b7f6697b23200000000000000000000000000000000000000000000000000000000600090815260045b036000fd5b9061011d91610749610ce0565b610777565b6101337f241ecf16d79d0f8dbfb92cbc07fe17840425976cf0667f022fe9877caa831b08610402565b9061011d916107876106c361074e565b9061011d91610dc4565b9061011d9161073c565b610133906107a7610dce565b6107d5565b6101337f360894a13ba1a3210667c828492db98dca3e2076cc3735a920a3ca505d382bbc610402565b506101336107ac565b610133600061079b565b6101bd6101336101339273ffffffffffffffffffffffffffffffffffffffff1690565b610133906107e8565b6101339061080b565b9061065190610814565b610133905b60ff1690565b6101339054610827565b61013391600061087961087f93610851600090565b50827f02dd7bc7dec4dceedda775e58dd541e08a116c6c53815c0bd028192f7b6268006106a6565b0161081d565b610832565b9061011d916108956106c382610670565b906106d291610c61565b9061011d91610884565b6101339060401c61082c565b61013390546108a9565b610133905b67ffffffffffffffff1690565b61013390546108bf565b6108c46101336101339290565b9067ffffffffffffffff905b9181191691161790565b6108c46101336101339267ffffffffffffffff1690565b9061092561013361092c926108fe565b82546108e8565b9055565b9068ff00000000000000009060401b6108f4565b9061095461013361092c92151590565b8254610930565b610136906108db565b60208101929161011d919061095b565b7ff0c57e16840df040f15088dc2f81fe391c3923bec73e23a9662efc9c229c6a00806109af6109a96109a5836108b5565b1590565b916108d1565b6000916109bb836108db565b67ffffffffffffffff83161480610ad4575b6001926109ea6109dc856108db565b9167ffffffffffffffff1690565b149081610aac575b155b9081610aa3575b50610a7b5780610a1784610a0e856108db565b96019586610915565b610a6c575b610a24610adb565b610a2d57505050565b610a5b610a67927fc7f505b2f371ae2175ee4913f4499e1f2633a7b5936321eed1cdaeb6115181d294610944565b60405191829182610964565b0390a1565b610a768285610944565b610a1c565b7ff92ee8a9000000000000000000000000000000000000000000000000000000008352600483fd5b159050386109fb565b90506109f4610aba30610814565b3b610acb610ac787610402565b9190565b149190506109f2565b50806109cd565b610ae3610e3f565b6106d2610aee61074e565b3390610bbc565b61011d610974565b9061011d91610b0d6106c361074e565b610b31565b3d15610b2c57610b213d61043c565b903d6000602084013e565b606090565b60008091610b5693610b4260405190565b90818003925af1610b51610b12565b501590565b610b5c57565b7fbf961a28000000000000000000000000000000000000000000000000000000006000908152600490fd5b9061011d91610afd565b61011d903390610e71565b9060ff906108f4565b90610bb561013361092c92151590565b8254610b9c565b7f02dd7bc7dec4dceedda775e58dd541e08a116c6c53815c0bd028192f7b626800610bea6109a5848461083c565b15610c59576001610c068460006108798682610c0b970161064f565b610ba5565b610c25610c1f610c19339390565b93610814565b91610814565b917f2f8788117e7eff1d82e926ec794901d17c78024a50270940304540a733656f0d610c5060405190565b600090a4600190565b505050600090565b7f02dd7bc7dec4dceedda775e58dd541e08a116c6c53815c0bd028192f7b626800610c8c838361083c565b15610c59576000610c0684826108798682610ca7970161064f565b610cb5610c1f610c19339390565b917ff6391f5c32d9c69d2a47ea670b442974b53935d1edc7fd64eb21e047a839171b610c5060405190565b610ce930610814565b7f000000000000000000000000000000000000000000000000000000000000000090610d4073ffffffffffffffffffffffffffffffffffffffff83165b9173ffffffffffffffffffffffffffffffffffffffff1690565b14908115610d7b575b50610d5057565b7fe07c8dba000000000000000000000000000000000000000000000000000000006000908152600490fd5b9050610da5610d26610d8b610ecc565b9273ffffffffffffffffffffffffffffffffffffffff1690565b141538610d49565b9061011d91610dba610ce0565b9061011d91610f03565b9061011d91610dad565b610dd730610814565b610e1673ffffffffffffffffffffffffffffffffffffffff7f000000000000000000000000000000000000000000000000000000000000000016610d26565b03610d5057565b610e2561102f565b61011d610e33610aee61074e565b506106d2610aee61040f565b61011d610e1d565b73ffffffffffffffffffffffffffffffffffffffff909116815260408101929161011d9160200152565b90610e7f6109a5828461083c565b610e87575050565b7fe2517d3f00000000000000000000000000000000000000000000000000000000600090815291610737916004610e47565b610133906101bd565b6101339054610eb9565b6101336000610edc6101336107ac565b01610ec2565b9050519061011d8261016b565b9060208282031261010b5761013391610ee2565b90610f15610f1083610814565b610814565b906020610f2160405190565b7f52d1902d00000000000000000000000000000000000000000000000000000000815292839060049082905afa60009281610ffe575b50610faf5750506001610f675750565b7f4c9c8ce300000000000000000000000000000000000000000000000000000000600090815273ffffffffffffffffffffffffffffffffffffffff9091166004526024036000fd5b909291610fbd6101336107ac565b8403610fce5761011d92935061106b565b7faa1d49a40000000000000000000000000000000000000000000000000000000060009081526004859052602490fd5b61102191935060203d602011611028575b6110198183610288565b810190610eef565b9138610f57565b503d61100f565b61103a6109a56110d4565b61104057565b7fd7e6bcf8000000000000000000000000000000000000000000000000000000006000908152600490fd5b9061107582611130565b61107e82610814565b7fbc7cd75a20ee27fd9adebab32041f755214dbc6bffa90cc0225b39da2e5c2d3b6110a860405190565b600090a280516110bb610ac76000610402565b11156110ca576106d2916111dd565b505061011d6111a1565b6101337ff0c57e16840df040f15088dc2f81fe391c3923bec73e23a9662efc9c229c6a006108b5565b9073ffffffffffffffffffffffffffffffffffffffff906108f4565b9061112961013361092c92610814565b82546110fd565b6000813b611140610ac783610402565b1461115b579061011d916111556101336107ac565b01611119565b7f4c9c8ce300000000000000000000000000000000000000000000000000000000815273ffffffffffffffffffffffffffffffffffffffff919091166004820152602490fd5b60006111ac81610402565b34116111b55750565b7fb398979f000000000000000000000000000000000000000000000000000000008152600490fd5b600080610133936111ec606090565b50602081519101845af46111fe610b12565b919061120a5750611284565b81519060009161121c610ac784610402565b148061126f575b61122c57505090565b7f9996b31500000000000000000000000000000000000000000000000000000000825273ffffffffffffffffffffffffffffffffffffffff166004820152602490fd5b50803b61127e610ac784610402565b14611223565b8051600090611295610ac783610402565b11156112a45750805190602001fd5b7fd6bda275000000000000000000000000000000000000000000000000000000008152600490fdfea2646970667358221220a21ce7ecfc093ac5934ef6e189b0f1040711911ecfcf18ad01ccb59a562d0dd664736f6c634300081c0033",
  "linkReferences": {},
  "deployedLinkReferences": {},
  "networkId": 11155111,
  "address": "0x11E028ACE918499F76783F79D2ebDbE27E2BfEA9"
}