{
  "_format": "hh-sol-artifact-1",
  "contractName": "Router",
  "sourceName": "contracts/router/Router.sol",
  "abi": [
    {
      "inputs": [],
      "name": "AccessControlBadConfirmation",
      "type": "error"
    },
    {
      "inputs": [
        {
          "internalType": "address",
          "name": "account",
          "type": "address"
        },
        {
          "internalType": "bytes32",
          "name": "neededRole",
          "type": "bytes32"
        }
      ],
      "name": "AccessControlUnauthorizedAccount",
      "type": "error"
    },
    {
      "inputs": [
        {
          "internalType": "address",
          "name": "target",
          "type": "address"
        }
      ],
      "name": "AddressEmptyCode",
      "type": "error"
    },
    {
      "inputs": [
        {
          "internalType": "address",
          "name": "implementation",
          "type": "address"
        }
      ],
      "name": "ERC1967InvalidImplementation",
      "type": "error"
    },
    {
      "inputs": [],
      "name": "ERC1967NonPayable",
      "type": "error"
    },
    {
      "inputs": [],
      "name": "FailedCall",
      "type": "error"
    },
    {
      "inputs": [],
      "name": "InvalidInitialization",
      "type": "error"
    },
    {
      "inputs": [],
      "name": "NotInitializing",
      "type": "error"
    },
    {
      "inputs": [],
      "name": "ReentrancyGuardReentrantCall",
      "type": "error"
    },
    {
      "inputs": [],
      "name": "UUPSUnauthorizedCallContext",
      "type": "error"
    },
    {
      "inputs": [
        {
          "internalType": "bytes32",
          "name": "slot",
          "type": "bytes32"
        }
      ],
      "name": "UUPSUnsupportedProxiableUUID",
      "type": "error"
    },
    {
      "inputs": [],
      "name": "insufficientAmount",
      "type": "error"
    },
    {
      "inputs": [],
      "name": "tooSmallAmount",
      "type": "error"
    },
    {
      "inputs": [],
      "name": "transactionFailed",
      "type": "error"
    },
    {
      "anonymous": false,
      "inputs": [
        {
          "indexed": false,
          "internalType": "uint64",
          "name": "version",
          "type": "uint64"
        }
      ],
      "name": "Initialized",
      "type": "event"
    },
    {
      "anonymous": false,
      "inputs": [
        {
          "indexed": true,
          "internalType": "bytes32",
          "name": "role",
          "type": "bytes32"
        },
        {
          "indexed": true,
          "internalType": "bytes32",
          "name": "previousAdminRole",
          "type": "bytes32"
        },
        {
          "indexed": true,
          "internalType": "bytes32",
          "name": "newAdminRole",
          "type": "bytes32"
        }
      ],
      "name": "RoleAdminChanged",
      "type": "event"
    },
    {
      "anonymous": false,
      "inputs": [
        {
          "indexed": true,
          "internalType": "bytes32",
          "name": "role",
          "type": "bytes32"
        },
        {
          "indexed": true,
          "internalType": "address",
          "name": "account",
          "type": "address"
        },
        {
          "indexed": true,
          "internalType": "address",
          "name": "sender",
          "type": "address"
        }
      ],
      "name": "RoleGranted",
      "type": "event"
    },
    {
      "anonymous": false,
      "inputs": [
        {
          "indexed": true,
          "internalType": "bytes32",
          "name": "role",
          "type": "bytes32"
        },
        {
          "indexed": true,
          "internalType": "address",
          "name": "account",
          "type": "address"
        },
        {
          "indexed": true,
          "internalType": "address",
          "name": "sender",
          "type": "address"
        }
      ],
      "name": "RoleRevoked",
      "type": "event"
    },
    {
      "anonymous": false,
      "inputs": [
        {
          "indexed": true,
          "internalType": "address",
          "name": "implementation",
          "type": "address"
        }
      ],
      "name": "Upgraded",
      "type": "event"
    },
    {
      "inputs": [],
      "name": "DEFAULT_ADMIN_ROLE",
      "outputs": [
        {
          "internalType": "bytes32",
          "name": "",
          "type": "bytes32"
        }
      ],
      "stateMutability": "view",
      "type": "function"
    },
    {
      "inputs": [],
      "name": "UPGRADE_INTERFACE_VERSION",
      "outputs": [
        {
          "internalType": "string",
          "name": "",
          "type": "string"
        }
      ],
      "stateMutability": "view",
      "type": "function"
    },
    {
      "inputs": [
        {
          "internalType": "uint256",
          "name": "_amount",
          "type": "uint256"
        }
      ],
      "name": "burnCredit20",
      "outputs": [],
      "stateMutability": "nonpayable",
      "type": "function"
    },
    {
      "inputs": [
        {
          "internalType": "uint256",
          "name": "_id",
          "type": "uint256"
        }
      ],
      "name": "burnCredit721",
      "outputs": [],
      "stateMutability": "nonpayable",
      "type": "function"
    },
    {
      "inputs": [],
      "name": "buyCredit20",
      "outputs": [],
      "stateMutability": "payable",
      "type": "function"
    },
    {
      "inputs": [],
      "name": "carbonCredit20",
      "outputs": [
        {
          "internalType": "address",
          "name": "",
          "type": "address"
        }
      ],
      "stateMutability": "view",
      "type": "function"
    },
    {
      "inputs": [],
      "name": "carbonCredit721",
      "outputs": [
        {
          "internalType": "address",
          "name": "",
          "type": "address"
        }
      ],
      "stateMutability": "view",
      "type": "function"
    },
    {
      "inputs": [
        {
          "internalType": "bytes32",
          "name": "role",
          "type": "bytes32"
        }
      ],
      "name": "getRoleAdmin",
      "outputs": [
        {
          "internalType": "bytes32",
          "name": "",
          "type": "bytes32"
        }
      ],
      "stateMutability": "view",
      "type": "function"
    },
    {
      "inputs": [
        {
          "internalType": "bytes32",
          "name": "role",
          "type": "bytes32"
        },
        {
          "internalType": "address",
          "name": "account",
          "type": "address"
        }
      ],
      "name": "grantRole",
      "outputs": [],
      "stateMutability": "nonpayable",
      "type": "function"
    },
    {
      "inputs": [
        {
          "internalType": "bytes32",
          "name": "role",
          "type": "bytes32"
        },
        {
          "internalType": "address",
          "name": "account",
          "type": "address"
        }
      ],
      "name": "hasRole",
      "outputs": [
        {
          "internalType": "bool",
          "name": "",
          "type": "bool"
        }
      ],
      "stateMutability": "view",
      "type": "function"
    },
    {
      "inputs": [
        {
          "internalType": "contract ICarbonCredit20",
          "name": "_carbonCredit20",
          "type": "address"
        },
        {
          "internalType": "contract ICarbonCredit721",
          "name": "_carbonCredit721",
          "type": "address"
        },
        {
          "internalType": "contract IUserStorage",
          "name": "_userStorage",
          "type": "address"
        },
        {
          "internalType": "address",
          "name": "_routerVault",
          "type": "address"
        },
        {
          "internalType": "uint256",
          "name": "_pricePerToken",
          "type": "uint256"
        }
      ],
      "name": "init",
      "outputs": [],
      "stateMutability": "nonpayable",
      "type": "function"
    },
    {
      "inputs": [],
      "name": "pricePerToken",
      "outputs": [
        {
          "internalType": "uint256",
          "name": "",
          "type": "uint256"
        }
      ],
      "stateMutability": "view",
      "type": "function"
    },
    {
      "inputs": [],
      "name": "proxiableUUID",
      "outputs": [
        {
          "internalType": "bytes32",
          "name": "",
          "type": "bytes32"
        }
      ],
      "stateMutability": "view",
      "type": "function"
    },
    {
      "inputs": [
        {
          "internalType": "bytes32",
          "name": "role",
          "type": "bytes32"
        },
        {
          "internalType": "address",
          "name": "callerConfirmation",
          "type": "address"
        }
      ],
      "name": "renounceRole",
      "outputs": [],
      "stateMutability": "nonpayable",
      "type": "function"
    },
    {
      "inputs": [
        {
          "internalType": "bytes32",
          "name": "role",
          "type": "bytes32"
        },
        {
          "internalType": "address",
          "name": "account",
          "type": "address"
        }
      ],
      "name": "revokeRole",
      "outputs": [],
      "stateMutability": "nonpayable",
      "type": "function"
    },
    {
      "inputs": [
        {
          "internalType": "contract ICarbonCredit20",
          "name": "_carbonCredit20",
          "type": "address"
        }
      ],
      "name": "setCarbonCredit20",
      "outputs": [],
      "stateMutability": "nonpayable",
      "type": "function"
    },
    {
      "inputs": [
        {
          "internalType": "contract ICarbonCredit721",
          "name": "_carbonCredit721",
          "type": "address"
        }
      ],
      "name": "setCarbonCredit721",
      "outputs": [],
      "stateMutability": "nonpayable",
      "type": "function"
    },
    {
      "inputs": [
        {
          "internalType": "uint256",
          "name": "_pricePerToken",
          "type": "uint256"
        }
      ],
      "name": "setPricePerToken",
      "outputs": [],
      "stateMutability": "nonpayable",
      "type": "function"
    },
    {
      "inputs": [
        {
          "internalType": "bytes4",
          "name": "interfaceId",
          "type": "bytes4"
        }
      ],
      "name": "supportsInterface",
      "outputs": [
        {
          "internalType": "bool",
          "name": "",
          "type": "bool"
        }
      ],
      "stateMutability": "view",
      "type": "function"
    },
    {
      "inputs": [
        {
          "internalType": "address",
          "name": "newImplementation",
          "type": "address"
        },
        {
          "internalType": "bytes",
          "name": "data",
          "type": "bytes"
        }
      ],
      "name": "upgradeToAndCall",
      "outputs": [],
      "stateMutability": "payable",
      "type": "function"
    }
  ],
  "bytecode": "0x60a060405234602f57600e6034565b604051611c536100808239608051818181611606015261170c0152611c5390f35b600080fd5b603a603c565b565b603a603a6073565b6056906059906001600160a01b031682565b90565b6001600160a01b031690565b6056906044565b6056906065565b607a30606c565b60805256fe6080604052600436101561001257600080fd5b60003560e01c806301ffc9a7146101525780631a20f5611461014d5780631eb49a3f14610148578063248a9ca3146101435780632bf2762f1461013e5780632f2ff15d1461013957806336568abe146101345780634f1ef2861461012f57806352d1902d1461012a5780635e9ab149146101255780636ef1c407146101205780637b1b1de61461011b57806391d1485414610116578063a0225d4814610111578063a217fddf1461010c578063a229adba14610107578063ad3cb1cc14610102578063cb19dae4146100fd578063d547741f146100f85763db274361036101825761073a565b610721565b610709565b6106e2565b6105e7565b6105b8565b610581565b610565565b61054a565b610537565b61051b565b6104b4565b6104a0565b610334565b61031b565b6102b7565b61028c565b61024a565b610209565b6101b1565b7fffffffff0000000000000000000000000000000000000000000000000000000081165b0361018257565b600080fd5b9050359061019482610157565b565b90602082820312610182576101aa91610187565b90565b9052565b34610182576101de6101cc6101c7366004610196565b610755565b60405191829182901515815260200190565b0390f35b8061017b565b90503590610194826101e2565b90602082820312610182576101aa916101e8565b346101825761022161021c3660046101f5565b61087d565b604051005b600091031261018257565b73ffffffffffffffffffffffffffffffffffffffff1690565b346101825761025a366004610226565b6101de610265610aa8565b6040519182918273ffffffffffffffffffffffffffffffffffffffff909116815260200190565b34610182576101de6102a76102a23660046101f5565b610b0e565b6040519182918290815260200190565b34610182576102216102ca3660046101f5565b610c09565b73ffffffffffffffffffffffffffffffffffffffff811661017b565b90503590610194826102cf565b9190604083820312610182576101aa90602061031482866101e8565b94016102eb565b346101825761022161032e3660046102f8565b90610c30565b34610182576102216103473660046102f8565b90610c3a565b7f4e487b7100000000000000000000000000000000000000000000000000000000600052604160045260246000fd5b90601f017fffffffffffffffffffffffffffffffffffffffffffffffffffffffffffffffe016810190811067ffffffffffffffff8211176103bc57604052565b61034d565b906101946103ce60405190565b928361037c565b67ffffffffffffffff81116103bc57602090601f017fffffffffffffffffffffffffffffffffffffffffffffffffffffffffffffffe0160190565b0190565b90826000939282370152565b90929192610435610430826103d5565b6103c1565b938185528183011161018257610194916020850190610414565b9080601f83011215610182578160206101aa93359101610420565b9190916040818403126101825761048183826102eb565b92602082013567ffffffffffffffff8111610182576101aa920161044f565b6102216104ae36600461046a565b90610cbe565b34610182576104c4366004610226565b6101de6102a7610d0b565b919060a083820312610182576104e581846102eb565b926104f382602083016102eb565b926101aa61050484604085016102eb565b93608061051482606087016102eb565b94016101e8565b346101825761022161052e3660046104cf565b93929092611043565b610542366004610226565b6102216112ac565b346101825761055a366004610226565b6101de6102a76112b4565b34610182576101de6101cc61057b3660046102f8565b906112fc565b34610182576102216105943660046101f5565b611344565b6101aa6101aa6101aa9290565b6101aa6000610599565b6101aa6105a6565b34610182576105c8366004610226565b6101de6102a76105b0565b90602082820312610182576101aa916102eb565b34610182576102216105fa3660046105d3565b61140c565b9061060c610430836103d5565b918252565b61061b60056105ff565b7f352e302e30000000000000000000000000000000000000000000000000000000602082015290565b6101aa610611565b6101aa610644565b6101aa61064c565b60005b83811061066f5750506000910152565b818101518382015260200161065f565b6106a06106a960209361041093610694815190565b80835293849260200190565b9586910161065c565b601f017fffffffffffffffffffffffffffffffffffffffffffffffffffffffffffffffe01690565b60208082526101aa9291019061067f565b34610182576106f2366004610226565b6101de6106fd610654565b604051918291826106d1565b346101825761022161071c3660046105d3565b611450565b34610182576102216107343660046102f8565b90611474565b346101825761074a366004610226565b6101de61026561147e565b7f7965db0b000000000000000000000000000000000000000000000000000000007fffffffff000000000000000000000000000000000000000000000000000000008216149081156107a5575090565b6101aa91507fffffffff00000000000000000000000000000000000000000000000000000000167f01ffc9a7000000000000000000000000000000000000000000000000000000001490565b6102316101aa6101aa9273ffffffffffffffffffffffffffffffffffffffff1690565b6101aa906107f1565b6101aa90610814565b90505190610194826101e2565b90602082820312610182576101aa91610826565b6040513d6000823e3d90fd5b73ffffffffffffffffffffffffffffffffffffffff90911681526040810192916101949160200152565b7f21ee9d3a16ed29692cd9ba7b5fdf553408a78fa2381c1aba80b44637807eb101907f21ee9d3a16ed29692cd9ba7b5fdf553408a78fa2381c1aba80b44637807eb100906108e76108e2845473ffffffffffffffffffffffffffffffffffffffff1690565b61081d565b9260206108f360405190565b7fd060c9570000000000000000000000000000000000000000000000000000000081526004810184905294859060249082905afa938415610a5457600094610a6f575b50546109579073ffffffffffffffffffffffffffffffffffffffff1661081d565b803b15610182576109a660009291839261097060405190565b94859384928391907f79cc6790000000000000000000000000000000000000000000000000000000005b83523360048401610853565b03925af18015610a54576109dc926108e292600292610a59575b50015473ffffffffffffffffffffffffffffffffffffffff1690565b803b1561018257610a236000929183926109f560405190565b94859384928391907f9a075e5f0000000000000000000000000000000000000000000000000000000061099a565b03925af18015610a5457610a345750565b6101949060005b610a45818361037c565b810190610226565b503d610a3b565b610847565b610a69906000610a45818361037c565b386109c0565b610957919450610a996108e29160203d602011610aa1575b610a91818361037c565b810190610833565b949150610936565b503d610a87565b6101aa6108e260007f21ee9d3a16ed29692cd9ba7b5fdf553408a78fa2381c1aba80b44637807eb1005b015473ffffffffffffffffffffffffffffffffffffffff1690565b905b600052602052604060002090565b6101aa9081565b6101aa9054610afd565b6001610b4a6101aa92610b1f600090565b5060007f02dd7bc7dec4dceedda775e58dd541e08a116c6c53815c0bd028192f7b6268005b01610aed565b01610b04565b6101aa7f241ecf16d79d0f8dbfb92cbc07fe17840425976cf0667f022fe9877caa831b08610599565b61019490610b8d610b88610b50565b6114ac565b610bdb565b907fffffffffffffffffffffffffffffffffffffffffffffffffffffffffffffffff905b9181191691161790565b90610bd06101aa610bd792610599565b8254610b92565b9055565b6101949060047f21ee9d3a16ed29692cd9ba7b5fdf553408a78fa2381c1aba80b44637807eb1005b01610bc0565b61019490610b79565b9061019491610c23610b8882610b0e565b90610c2d916114d7565b50565b9061019491610c12565b90610c4433610231565b73ffffffffffffffffffffffffffffffffffffffff821603610c6957610c2d9161157c565b7f6697b23200000000000000000000000000000000000000000000000000000000600090815260045b036000fd5b9061019491610ca46115fb565b9061019491610cb4610b88610b50565b90610194916116df565b9061019491610c97565b6101aa90610cd46116e9565b610d02565b6101aa7f360894a13ba1a3210667c828492db98dca3e2076cc3735a920a3ca505d382bbc610599565b506101aa610cd9565b6101aa6000610cc8565b6101aa9060401c5b60ff1690565b6101aa9054610d15565b6101aa905b67ffffffffffffffff1690565b6101aa9054610d2d565b610d326101aa6101aa9290565b9067ffffffffffffffff90610bb6565b610d326101aa6101aa9267ffffffffffffffff1690565b90610d8d6101aa610bd792610d66565b8254610d56565b9068ff00000000000000009060401b610bb6565b90610db86101aa610bd792151590565b8254610d94565b6101ad90610d49565b6020810192916101949190610dbf565b92939091907ff0c57e16840df040f15088dc2f81fe391c3923bec73e23a9662efc9c229c6a00948592610e1a610e14610e1086610d23565b1590565b94610d3f565b94600096610e2788610d49565b67ffffffffffffffff88161480610f44575b600197610e56610e488a610d49565b9167ffffffffffffffff1690565b149081610f1c575b155b9081610f13575b50610eeb5790610e949493929186610e8b8a610e828b610d49565b9c019b8c610d7d565b610edc57610fa7565b610e9d57505050565b610ecb610ed7927fc7f505b2f371ae2175ee4913f4499e1f2633a7b5936321eed1cdaeb6115181d294610da8565b60405191829182610dc8565b0390a1565b610ee6888b610da8565b610fa7565b7ff92ee8a9000000000000000000000000000000000000000000000000000000008852600488fd5b15905038610e67565b9050610e60610f2a3061081d565b3b610f3b610f378c610599565b9190565b14919050610e5e565b5085610e39565b9073ffffffffffffffffffffffffffffffffffffffff90610bb6565b90610f776101aa610bd79261081d565b8254610f4b565b6101aa7fc1afd8425b8b41464386646c3e1045d33b9103e915d44771f2b8986b8c964dc5610599565b92610c2d94600461103d94610c0361100d94611004610fe37f21ee9d3a16ed29692cd9ba7b5fdf553408a78fa2381c1aba80b44637807eb10090565b93610fee8b86610f67565b610ffb8960018701610f67565b60028501610f67565b60038301610f67565b611015611761565b61101d61177c565b61103761103161102b610f7e565b9461081d565b846114d7565b5061081d565b906114d7565b9061019494939291610dd8565b61105861178e565b61106061110c565b610194611805565b7f4e487b7100000000000000000000000000000000000000000000000000000000600052601160045260246000fd5b818102929181159184041417156110aa57565b611068565b7f4e487b7100000000000000000000000000000000000000000000000000000000600052601260045260246000fd5b81156110e8570490565b6110af565b3d15611107576110fc3d6105ff565b903d6000602084013e565b606090565b7f21ee9d3a16ed29692cd9ba7b5fdf553408a78fa2381c1aba80b44637807eb10061115c61114a611144670de0b6b3a7640000610599565b34611097565b61115660048401610b04565b906110de565b60009161116883610599565b3414801561129b575b611273576111986108e28483015473ffffffffffffffffffffffffffffffffffffffff1690565b803b15610182576111de84939184926111b060405190565b95869384928391907f40c10f190000000000000000000000000000000000000000000000000000000061099a565b03925af1908115610a5457611217600385939261122e95859461125d5750015473ffffffffffffffffffffffffffffffffffffffff1690565b60405160009134905af16112296110ed565b501590565b6112355750565b7fdccf81a9000000000000000000000000000000000000000000000000000000008152600490fd5b610a6990853d8711610a4d57610a45818361037c565b7fd84739b1000000000000000000000000000000000000000000000000000000008352600483fd5b506112a583610599565b8214611171565b610194611050565b6101aa60047f21ee9d3a16ed29692cd9ba7b5fdf553408a78fa2381c1aba80b44637807eb100610b4a565b90610aef9061081d565b6101aa90610d1d565b6101aa90546112e9565b6101aa91600061133961133f93611311600090565b50827f02dd7bc7dec4dceedda775e58dd541e08a116c6c53815c0bd028192f7b626800610b44565b016112df565b6112f2565b7f21ee9d3a16ed29692cd9ba7b5fdf553408a78fa2381c1aba80b44637807eb1006113866108e2825473ffffffffffffffffffffffffffffffffffffffff1690565b803b1561018257600061139860405190565b9182907f79cc67900000000000000000000000000000000000000000000000000000000082528183816109a6893360048401610853565b610194906113de610b88610b50565b6101949060017f21ee9d3a16ed29692cd9ba7b5fdf553408a78fa2381c1aba80b44637807eb1005b01610f67565b610194906113cf565b61019490611424610b88610b50565b6101949060007f21ee9d3a16ed29692cd9ba7b5fdf553408a78fa2381c1aba80b44637807eb100611406565b61019490611415565b906101949161146a610b8882610b0e565b90610c2d9161157c565b9061019491611459565b6101aa6108e260017f21ee9d3a16ed29692cd9ba7b5fdf553408a78fa2381c1aba80b44637807eb100610ad2565b61019490339061183a565b9060ff90610bb6565b906114d06101aa610bd792151590565b82546114b7565b7f02dd7bc7dec4dceedda775e58dd541e08a116c6c53815c0bd028192f7b626800611505610e1084846112fc565b1561157457600161152184600061133986826115269701610aed565b6114c0565b61154061153a611534339390565b9361081d565b9161081d565b917f2f8788117e7eff1d82e926ec794901d17c78024a50270940304540a733656f0d61156b60405190565b600090a4600190565b505050600090565b7f02dd7bc7dec4dceedda775e58dd541e08a116c6c53815c0bd028192f7b6268006115a783836112fc565b15611574576000611521848261133986826115c29701610aed565b6115d061153a611534339390565b917ff6391f5c32d9c69d2a47ea670b442974b53935d1edc7fd64eb21e047a839171b61156b60405190565b6116043061081d565b7f00000000000000000000000000000000000000000000000000000000000000009061165b73ffffffffffffffffffffffffffffffffffffffff83165b9173ffffffffffffffffffffffffffffffffffffffff1690565b14908115611696575b5061166b57565b7fe07c8dba000000000000000000000000000000000000000000000000000000006000908152600490fd5b90506116c06116416116a6611882565b9273ffffffffffffffffffffffffffffffffffffffff1690565b141538611664565b90610194916116d56115fb565b9061019491611892565b90610194916116c8565b6116f23061081d565b61173173ffffffffffffffffffffffffffffffffffffffff7f000000000000000000000000000000000000000000000000000000000000000016611641565b0361166b57565b6117406119a9565b61019461175561174e610b50565b33906114d7565b50610c2d61174e6105a6565b610194611738565b6117716119a9565b6101946101946119ed565b610194611769565b6101aa6002610599565b7f9b779b17422d0df92223018b32b4d1fa46e071723d6817e2486d003becc55f006117b881610b04565b6117c0611784565b9081146117d05761019491610bc0565b7f3ee5aeb5000000000000000000000000000000000000000000000000000000006000908152600490fd5b6101aa6001610599565b6101947f9b779b17422d0df92223018b32b4d1fa46e071723d6817e2486d003becc55f0060006118336117fb565b9101610bc0565b90611848610e1082846112fc565b611850575050565b7fe2517d3f00000000000000000000000000000000000000000000000000000000600090815291610c92916004610853565b6101aa6000610ad26101aa610cd9565b9061189f6108e28361081d565b9060206118ab60405190565b7f52d1902d00000000000000000000000000000000000000000000000000000000815292839060049082905afa60009281611988575b5061193957505060016118f15750565b7f4c9c8ce300000000000000000000000000000000000000000000000000000000600090815273ffffffffffffffffffffffffffffffffffffffff9091166004526024036000fd5b9092916119476101aa610cd9565b8403611958576101949293506119f5565b7faa1d49a40000000000000000000000000000000000000000000000000000000060009081526004859052602490fd5b6119a291935060203d602011610aa157610a91818361037c565b91386118e1565b6119b4610e10611a5e565b6119ba57565b7fd7e6bcf8000000000000000000000000000000000000000000000000000000006000908152600490fd5b6110606119a9565b6101946119e5565b906119ff82611a87565b611a088261081d565b7fbc7cd75a20ee27fd9adebab32041f755214dbc6bffa90cc0225b39da2e5c2d3b611a3260405190565b600090a28051611a45610f376000610599565b1115611a5457610c2d91611b2e565b5050610194611af2565b6101aa7ff0c57e16840df040f15088dc2f81fe391c3923bec73e23a9662efc9c229c6a00610d23565b6000813b611a97610f3783610599565b14611aac5790610194916114066101aa610cd9565b7f4c9c8ce300000000000000000000000000000000000000000000000000000000815273ffffffffffffffffffffffffffffffffffffffff919091166004820152602490fd5b6000611afd81610599565b3411611b065750565b7fb398979f000000000000000000000000000000000000000000000000000000008152600490fd5b6000806101aa93611b3d606090565b50602081519101845af4611b4f6110ed565b9190611b5b5750611bd5565b815190600091611b6d610f3784610599565b1480611bc0575b611b7d57505090565b7f9996b31500000000000000000000000000000000000000000000000000000000825273ffffffffffffffffffffffffffffffffffffffff166004820152602490fd5b50803b611bcf610f3784610599565b14611b74565b8051600090611be6610f3783610599565b1115611bf55750805190602001fd5b7fd6bda275000000000000000000000000000000000000000000000000000000008152600490fdfea264697066735822122072cdf20a043bc230acf72414c242f4470791836b8f0835b53927d65e1b626f0164736f6c634300081c0033",
  "linkReferences": {},
  "deployedLinkReferences": {},
  "networkId": 11155111,
  "address": "0x776879967655F1506441CC2146A648eF27f4E7c5"
}