{
  "_format": "hh-sol-artifact-1",
  "contractName": "UserStorage",
  "sourceName": "contracts/storage/UserStorage.sol",
  "abi": [
    {
      "inputs": [],
      "name": "AccessControlBadConfirmation",
      "type": "error"
    },
    {
      "inputs": [
        {
          "internalType": "address",
          "name": "account",
          "type": "address"
        },
        {
          "internalType": "bytes32",
          "name": "neededRole",
          "type": "bytes32"
        }
      ],
      "name": "AccessControlUnauthorizedAccount",
      "type": "error"
    },
    {
      "inputs": [
        {
          "internalType": "address",
          "name": "target",
          "type": "address"
        }
      ],
      "name": "AddressEmptyCode",
      "type": "error"
    },
    {
      "inputs": [],
      "name": "AlreadyRegistered",
      "type": "error"
    },
    {
      "inputs": [
        {
          "internalType": "address",
          "name": "implementation",
          "type": "address"
        }
      ],
      "name": "ERC1967InvalidImplementation",
      "type": "error"
    },
    {
      "inputs": [],
      "name": "ERC1967NonPayable",
      "type": "error"
    },
    {
      "inputs": [],
      "name": "FailedCall",
      "type": "error"
    },
    {
      "inputs": [],
      "name": "InvalidInitialization",
      "type": "error"
    },
    {
      "inputs": [],
      "name": "NotInitializing",
      "type": "error"
    },
    {
      "inputs": [],
      "name": "UUPSUnauthorizedCallContext",
      "type": "error"
    },
    {
      "inputs": [
        {
          "internalType": "bytes32",
          "name": "slot",
          "type": "bytes32"
        }
      ],
      "name": "UUPSUnsupportedProxiableUUID",
      "type": "error"
    },
    {
      "inputs": [],
      "name": "UserNotRegistered",
      "type": "error"
    },
    {
      "anonymous": false,
      "inputs": [
        {
          "indexed": false,
          "internalType": "uint64",
          "name": "version",
          "type": "uint64"
        }
      ],
      "name": "Initialized",
      "type": "event"
    },
    {
      "anonymous": false,
      "inputs": [
        {
          "indexed": true,
          "internalType": "bytes32",
          "name": "role",
          "type": "bytes32"
        },
        {
          "indexed": true,
          "internalType": "bytes32",
          "name": "previousAdminRole",
          "type": "bytes32"
        },
        {
          "indexed": true,
          "internalType": "bytes32",
          "name": "newAdminRole",
          "type": "bytes32"
        }
      ],
      "name": "RoleAdminChanged",
      "type": "event"
    },
    {
      "anonymous": false,
      "inputs": [
        {
          "indexed": true,
          "internalType": "bytes32",
          "name": "role",
          "type": "bytes32"
        },
        {
          "indexed": true,
          "internalType": "address",
          "name": "account",
          "type": "address"
        },
        {
          "indexed": true,
          "internalType": "address",
          "name": "sender",
          "type": "address"
        }
      ],
      "name": "RoleGranted",
      "type": "event"
    },
    {
      "anonymous": false,
      "inputs": [
        {
          "indexed": true,
          "internalType": "bytes32",
          "name": "role",
          "type": "bytes32"
        },
        {
          "indexed": true,
          "internalType": "address",
          "name": "account",
          "type": "address"
        },
        {
          "indexed": true,
          "internalType": "address",
          "name": "sender",
          "type": "address"
        }
      ],
      "name": "RoleRevoked",
      "type": "event"
    },
    {
      "anonymous": false,
      "inputs": [
        {
          "indexed": true,
          "internalType": "address",
          "name": "implementation",
          "type": "address"
        }
      ],
      "name": "Upgraded",
      "type": "event"
    },
    {
      "inputs": [],
      "name": "DEFAULT_ADMIN_ROLE",
      "outputs": [
        {
          "internalType": "bytes32",
          "name": "",
          "type": "bytes32"
        }
      ],
      "stateMutability": "view",
      "type": "function"
    },
    {
      "inputs": [],
      "name": "UPGRADE_INTERFACE_VERSION",
      "outputs": [
        {
          "internalType": "string",
          "name": "",
          "type": "string"
        }
      ],
      "stateMutability": "view",
      "type": "function"
    },
    {
      "inputs": [
        {
          "internalType": "address",
          "name": "_user",
          "type": "address"
        }
      ],
      "name": "emittedCarbonAmountOf",
      "outputs": [
        {
          "internalType": "uint256",
          "name": "emittedCarbon",
          "type": "uint256"
        },
        {
          "internalType": "uint256",
          "name": "surPlusCarbonCredits",
          "type": "uint256"
        },
        {
          "internalType": "uint256",
          "name": "totalBurnedCarbonCredits",
          "type": "uint256"
        }
      ],
      "stateMutability": "view",
      "type": "function"
    },
    {
      "inputs": [
        {
          "internalType": "bytes32",
          "name": "role",
          "type": "bytes32"
        }
      ],
      "name": "getRoleAdmin",
      "outputs": [
        {
          "internalType": "bytes32",
          "name": "",
          "type": "bytes32"
        }
      ],
      "stateMutability": "view",
      "type": "function"
    },
    {
      "inputs": [
        {
          "internalType": "bytes32",
          "name": "role",
          "type": "bytes32"
        },
        {
          "internalType": "address",
          "name": "account",
          "type": "address"
        }
      ],
      "name": "grantRole",
      "outputs": [],
      "stateMutability": "nonpayable",
      "type": "function"
    },
    {
      "inputs": [
        {
          "internalType": "bytes32",
          "name": "role",
          "type": "bytes32"
        },
        {
          "internalType": "address",
          "name": "account",
          "type": "address"
        }
      ],
      "name": "hasRole",
      "outputs": [
        {
          "internalType": "bool",
          "name": "",
          "type": "bool"
        }
      ],
      "stateMutability": "view",
      "type": "function"
    },
    {
      "inputs": [
        {
          "internalType": "address",
          "name": "_user",
          "type": "address"
        },
        {
          "internalType": "uint256",
          "name": "_amount",
          "type": "uint256"
        }
      ],
      "name": "increaseBurntCarbonCredit",
      "outputs": [],
      "stateMutability": "nonpayable",
      "type": "function"
    },
    {
      "inputs": [
        {
          "internalType": "address",
          "name": "_router",
          "type": "address"
        },
        {
          "internalType": "uint256",
          "name": "_speed",
          "type": "uint256"
        }
      ],
      "name": "init",
      "outputs": [],
      "stateMutability": "nonpayable",
      "type": "function"
    },
    {
      "inputs": [],
      "name": "proxiableUUID",
      "outputs": [
        {
          "internalType": "bytes32",
          "name": "",
          "type": "bytes32"
        }
      ],
      "stateMutability": "view",
      "type": "function"
    },
    {
      "inputs": [],
      "name": "register",
      "outputs": [],
      "stateMutability": "nonpayable",
      "type": "function"
    },
    {
      "inputs": [
        {
          "internalType": "bytes32",
          "name": "role",
          "type": "bytes32"
        },
        {
          "internalType": "address",
          "name": "callerConfirmation",
          "type": "address"
        }
      ],
      "name": "renounceRole",
      "outputs": [],
      "stateMutability": "nonpayable",
      "type": "function"
    },
    {
      "inputs": [
        {
          "internalType": "bytes32",
          "name": "role",
          "type": "bytes32"
        },
        {
          "internalType": "address",
          "name": "account",
          "type": "address"
        }
      ],
      "name": "revokeRole",
      "outputs": [],
      "stateMutability": "nonpayable",
      "type": "function"
    },
    {
      "inputs": [
        {
          "internalType": "uint256",
          "name": "_speed",
          "type": "uint256"
        }
      ],
      "name": "setSpeed",
      "outputs": [],
      "stateMutability": "nonpayable",
      "type": "function"
    },
    {
      "inputs": [],
      "name": "speed",
      "outputs": [
        {
          "internalType": "uint256",
          "name": "",
          "type": "uint256"
        }
      ],
      "stateMutability": "view",
      "type": "function"
    },
    {
      "inputs": [
        {
          "internalType": "bytes4",
          "name": "interfaceId",
          "type": "bytes4"
        }
      ],
      "name": "supportsInterface",
      "outputs": [
        {
          "internalType": "bool",
          "name": "",
          "type": "bool"
        }
      ],
      "stateMutability": "view",
      "type": "function"
    },
    {
      "inputs": [
        {
          "internalType": "address",
          "name": "newImplementation",
          "type": "address"
        },
        {
          "internalType": "bytes",
          "name": "data",
          "type": "bytes"
        }
      ],
      "name": "upgradeToAndCall",
      "outputs": [],
      "stateMutability": "payable",
      "type": "function"
    },
    {
      "inputs": [
        {
          "internalType": "address",
          "name": "_user",
          "type": "address"
        }
      ],
      "name": "userStartedAt",
      "outputs": [
        {
          "internalType": "uint256",
          "name": "",
          "type": "uint256"
        }
      ],
      "stateMutability": "view",
      "type": "function"
    }
  ],
  "bytecode": "0x60a060405234602f57600e6034565b60405161172961007e823960805181818161111d0152611223015261172990f35b600080fd5b603a603c565b565b603a6071565b6054906057906001600160a01b031682565b90565b6001600160a01b031690565b6054906042565b6054906063565b607830606a565b60805256fe6080604052600436101561001257600080fd5b60003560e01c806301ffc9a7146101225780631aa3a0081461011d578063248a9ca3146101185780632f2ff15d1461011357806336568abe1461010e578063399ae7241461010957806344644e9f146101045780634f1ef286146100ff57806352d1902d146100fa578063576dbbf6146100f557806391d14854146100f057806392fb2015146100eb5780639a075e5f146100e6578063a217fddf146100e1578063ad3cb1cc146100dc578063c20906ac146100d75763d547741f03610152576106a7565b61068c565b610665565b610567565b61052f565b610505565b6104c8565b6104b0565b610495565b610481565b610313565b6102e6565b6102aa565b610291565b610201565b6101bd565b610181565b7fffffffff0000000000000000000000000000000000000000000000000000000081165b0361015257565b600080fd5b9050359061016482610127565b565b906020828203126101525761017a91610157565b90565b9052565b34610152576101ae61019c610197366004610166565b6106c0565b60405191829182901515815260200190565b0390f35b600091031261015257565b34610152576101cd3660046101b2565b6101d5610803565b604051005b8061014b565b90503590610164826101da565b906020828203126101525761017a916101e0565b34610152576101ae61021c6102173660046101ed565b61089a565b6040519182918290815260200190565b73ffffffffffffffffffffffffffffffffffffffff1690565b73ffffffffffffffffffffffffffffffffffffffff811661014b565b9050359061016482610245565b91906040838203126101525761017a90602061028a82866101e0565b9401610261565b34610152576101d56102a436600461026e565b906108f9565b34610152576101d56102bd36600461026e565b90610903565b91906040838203126101525761017a9060206102df8286610261565b94016101e0565b34610152576101d56102f93660046102c3565b90610bfd565b906020828203126101525761017a91610261565b34610152576101ae61021c6103293660046102ff565b610c07565b7f4e487b7100000000000000000000000000000000000000000000000000000000600052604160045260246000fd5b90601f017fffffffffffffffffffffffffffffffffffffffffffffffffffffffffffffffe016810190811067ffffffffffffffff82111761039d57604052565b61032e565b906101646103af60405190565b928361035d565b67ffffffffffffffff811161039d57602090601f017fffffffffffffffffffffffffffffffffffffffffffffffffffffffffffffffe0160190565b0190565b90826000939282370152565b90929192610416610411826103b6565b6103a2565b9381855281830111610152576101649160208501906103f5565b9080601f830112156101525781602061017a93359101610401565b919091604081840312610152576104628382610261565b92602082013567ffffffffffffffff81116101525761017a9201610430565b6101d561048f36600461044b565b90610c97565b34610152576104a53660046101b2565b6101ae61021c610ce4565b34610152576101d56104c33660046101ed565b610d29565b34610152576101ae61019c6104de36600461026e565b90610d45565b908152606081019392610164929091604091610501906020830152565b0152565b34610152576101ae61052061051b3660046102ff565b610ddb565b604051919391938493846104e4565b34610152576101d56105423660046102c3565b90610f38565b61017a61017a61017a9290565b61017a6000610548565b61017a610555565b34610152576105773660046101b2565b6101ae61021c61055f565b9061058f610411836103b6565b918252565b61059e6005610582565b7f352e302e30000000000000000000000000000000000000000000000000000000602082015290565b61017a610594565b61017a6105c7565b61017a6105cf565b60005b8381106105f25750506000910152565b81810151838201526020016105e2565b61062361062c6020936103f193610617815190565b80835293849260200190565b958691016105df565b601f017fffffffffffffffffffffffffffffffffffffffffffffffffffffffffffffffe01690565b602080825261017a92910190610602565b34610152576106753660046101b2565b6101ae6106806105d7565b60405191829182610654565b346101525761069c3660046101b2565b6101ae61021c610f42565b34610152576101d56106ba36600461026e565b90610f88565b7f7965db0b000000000000000000000000000000000000000000000000000000007fffffffff00000000000000000000000000000000000000000000000000000000821614908115610710575090565b61017a91507fffffffff00000000000000000000000000000000000000000000000000000000167f01ffc9a7000000000000000000000000000000000000000000000000000000001490565b61022c61017a61017a9273ffffffffffffffffffffffffffffffffffffffff1690565b61017a9061075c565b61017a9061077f565b9061079b90610788565b600052602052604060002090565b61017a9081565b61017a90546107a9565b907fffffffffffffffffffffffffffffffffffffffffffffffffffffffffffffffff905b9181191691161790565b906107f861017a6107ff92610548565b82546107ba565b9055565b7f97621522b778c381691faae1ef61181b820eb92426d7df22f5286bde10e2b90061083960006108333384610791565b016107b0565b9060009161084d61084984610548565b9190565b0361086b57906108638161016493013390610791565b4291016107e8565b507f3a81d6fc000000000000000000000000000000000000000000000000000000008152600490fd5b9061079b565b600161083361017a926108ab600090565b5060007f02dd7bc7dec4dceedda775e58dd541e08a116c6c53815c0bd028192f7b6268005b01610894565b90610164916108ec6108e78261089a565b610f92565b906108f691610fbd565b50565b90610164916108d6565b9061090d3361022c565b73ffffffffffffffffffffffffffffffffffffffff821603610932576108f691611062565b7f6697b23200000000000000000000000000000000000000000000000000000000600090815260045b036000fd5b61017a9060401c5b60ff1690565b61017a9054610960565b61017a905b67ffffffffffffffff1690565b61017a9054610978565b61097d61017a61017a9290565b9067ffffffffffffffff906107de565b61097d61017a61017a9267ffffffffffffffff1690565b906109d861017a6107ff926109b1565b82546109a1565b9068ff00000000000000009060401b6107de565b90610a0361017a6107ff92151590565b82546109df565b61017d90610994565b6020810192916101649190610a0a565b7ff0c57e16840df040f15088dc2f81fe391c3923bec73e23a9662efc9c229c6a009182610a5f610a59610a558361096e565b1590565b9161098a565b91600093610a6c85610994565b67ffffffffffffffff85161480610b82575b600194610a9b610a8d87610994565b9167ffffffffffffffff1690565b149081610b5e575b155b9081610b55575b50610b2d5790610ad69183610acd87610ac488610994565b990198896109c8565b610b1e57610bb2565b610adf57505050565b610b0d610b19927fc7f505b2f371ae2175ee4913f4499e1f2633a7b5936321eed1cdaeb6115181d2946109f3565b60405191829182610a13565b0390a1565b610b2885886109f3565b610bb2565b7ff92ee8a9000000000000000000000000000000000000000000000000000000008552600485fd5b15905038610aac565b9050610aa5610b6c30610788565b3b610b7961084989610548565b14919050610aa3565b5082610a7e565b61017a7fc1afd8425b8b41464386646c3e1045d33b9103e915d44771f2b8986b8c964dc5610548565b610be86108f6926001610be27f97621522b778c381691faae1ef61181b820eb92426d7df22f5286bde10e2b90090565b016107e8565b610bf061110a565b610bf8610b89565b610fbd565b9061016491610a23565b600061083361017a92610c18600090565b50827f97621522b778c381691faae1ef61181b820eb92426d7df22f5286bde10e2b9005b01610791565b9061016491610c4f611112565b610c7d565b61017a7f241ecf16d79d0f8dbfb92cbc07fe17840425976cf0667f022fe9877caa831b08610548565b9061016491610c8d6108e7610c54565b90610164916111f6565b9061016491610c42565b61017a90610cad611200565b610cdb565b61017a7f360894a13ba1a3210667c828492db98dca3e2076cc3735a920a3ca505d382bbc610548565b5061017a610cb2565b61017a6000610ca1565b61016490610cfd6108e7610c54565b6101649060017f97621522b778c381691faae1ef61181b820eb92426d7df22f5286bde10e2b900610be2565b61016490610cee565b61017a90610968565b61017a9054610d32565b61017a916000610c3c610d8293610d5a600090565b50827f02dd7bc7dec4dceedda775e58dd541e08a116c6c53815c0bd028192f7b6268006108d0565b610d3b565b7f4e487b7100000000000000000000000000000000000000000000000000000000600052601160045260246000fd5b91908203918211610dc357565b610d87565b81810292918115918404141715610dc357565b90610e32610e0d61017a7f97621522b778c381691faae1ef61181b820eb92426d7df22f5286bde10e2b9009485610791565b92610e2c6001610e25610e1f876107b0565b42610db6565b92016107b0565b90610dc8565b90610e4060018394016107b0565b8092610e498290565b811115610e695750610e5b9192930390565b91610e666000610548565b91565b9193500390610e786000610548565b92565b9061016491610e8b6108e7610b89565b610e9d565b91908201809211610dc357565b91907f97621522b778c381691faae1ef61181b820eb92426d7df22f5286bde10e2b90092610ed060006108338387610791565b93600094610ee061084987610548565b14610f1057610efa610f0a92610164959660019301610791565b0191610f05836107b0565b610e90565b906107e8565b7f2163950f000000000000000000000000000000000000000000000000000000008552600485fd5b9061016491610e7b565b61017a60017f97621522b778c381691faae1ef61181b820eb92426d7df22f5286bde10e2b900610833565b9061016491610f7e6108e78261089a565b906108f691611062565b9061016491610f6d565b610164903390611279565b9060ff906107de565b90610fb661017a6107ff92151590565b8254610f9d565b7f02dd7bc7dec4dceedda775e58dd541e08a116c6c53815c0bd028192f7b626800610feb610a558484610d45565b1561105a576001611007846000610c3c868261100c9701610894565b610fa6565b61102661102061101a339390565b93610788565b91610788565b917f2f8788117e7eff1d82e926ec794901d17c78024a50270940304540a733656f0d61105160405190565b600090a4600190565b505050600090565b7f02dd7bc7dec4dceedda775e58dd541e08a116c6c53815c0bd028192f7b62680061108d8383610d45565b1561105a5760006110078482610c3c86826110a89701610894565b6110b661102061101a339390565b917ff6391f5c32d9c69d2a47ea670b442974b53935d1edc7fd64eb21e047a839171b61105160405190565b6110e96112c1565b6101646110fe6110f7610c54565b3390610fbd565b506108f66110f7610555565b6101646110e1565b61111b30610788565b7f00000000000000000000000000000000000000000000000000000000000000009061117273ffffffffffffffffffffffffffffffffffffffff83165b9173ffffffffffffffffffffffffffffffffffffffff1690565b149081156111ad575b5061118257565b7fe07c8dba000000000000000000000000000000000000000000000000000000006000908152600490fd5b90506111d76111586111bd611310565b9273ffffffffffffffffffffffffffffffffffffffff1690565b14153861117b565b90610164916111ec611112565b9061016491611347565b90610164916111df565b61120930610788565b61124873ffffffffffffffffffffffffffffffffffffffff7f000000000000000000000000000000000000000000000000000000000000000016611158565b0361118257565b73ffffffffffffffffffffffffffffffffffffffff90911681526040810192916101649160200152565b90611287610a558284610d45565b61128f575050565b7fe2517d3f0000000000000000000000000000000000000000000000000000000060009081529161095b91600461124f565b6112cc610a55611473565b6112d257565b7fd7e6bcf8000000000000000000000000000000000000000000000000000000006000908152600490fd5b61017a9061022c565b61017a90546112fd565b61017a600061132061017a610cb2565b01611306565b90505190610164826101da565b906020828203126101525761017a91611326565b9061135961135483610788565b610788565b90602061136560405190565b7f52d1902d00000000000000000000000000000000000000000000000000000000815292839060049082905afa60009281611442575b506113f357505060016113ab5750565b7f4c9c8ce300000000000000000000000000000000000000000000000000000000600090815273ffffffffffffffffffffffffffffffffffffffff9091166004526024036000fd5b90929161140161017a610cb2565b84036114125761016492935061149c565b7faa1d49a40000000000000000000000000000000000000000000000000000000060009081526004859052602490fd5b61146591935060203d60201161146c575b61145d818361035d565b810190611333565b913861139b565b503d611453565b61017a7ff0c57e16840df040f15088dc2f81fe391c3923bec73e23a9662efc9c229c6a0061096e565b906114a682611538565b6114af82610788565b7fbc7cd75a20ee27fd9adebab32041f755214dbc6bffa90cc0225b39da2e5c2d3b6114d960405190565b600090a280516114ec6108496000610548565b11156114fb576108f691611604565b50506101646115a9565b9073ffffffffffffffffffffffffffffffffffffffff906107de565b9061153161017a6107ff92610788565b8254611505565b6000813b61154861084983610548565b1461156357906101649161155d61017a610cb2565b01611521565b7f4c9c8ce300000000000000000000000000000000000000000000000000000000815273ffffffffffffffffffffffffffffffffffffffff919091166004820152602490fd5b60006115b481610548565b34116115bd5750565b7fb398979f000000000000000000000000000000000000000000000000000000008152600490fd5b3d156115ff576115f43d610582565b903d6000602084013e565b606090565b60008061017a93611613606090565b50602081519101845af46116256115e5565b919061163157506116ab565b81519060009161164361084984610548565b1480611696575b61165357505090565b7f9996b31500000000000000000000000000000000000000000000000000000000825273ffffffffffffffffffffffffffffffffffffffff166004820152602490fd5b50803b6116a561084984610548565b1461164a565b80516000906116bc61084983610548565b11156116cb5750805190602001fd5b7fd6bda275000000000000000000000000000000000000000000000000000000008152600490fdfea2646970667358221220bfc87aaa83957261b5cadc0d59f3417d5498608fbfe5512df26ad2a5de929b1a64736f6c634300081c0033",
  "linkReferences": {},
  "deployedLinkReferences": {},
  "networkId": 11155111,
  "address": "0xFDeaED448134C1456CF7a797Cb8D82850eE44f8C"
}