{
  "_format": "hh-sol-artifact-1",
  "contractName": "CarbonCredit721",
  "sourceName": "contracts/carbonTokens/CarbonCredit721.sol",
  "abi": [
    {
      "inputs": [],
      "name": "AccessControlBadConfirmation",
      "type": "error"
    },
    {
      "inputs": [
        {
          "internalType": "address",
          "name": "account",
          "type": "address"
        },
        {
          "internalType": "bytes32",
          "name": "neededRole",
          "type": "bytes32"
        }
      ],
      "name": "AccessControlUnauthorizedAccount",
      "type": "error"
    },
    {
      "inputs": [
        {
          "internalType": "address",
          "name": "target",
          "type": "address"
        }
      ],
      "name": "AddressEmptyCode",
      "type": "error"
    },
    {
      "inputs": [],
      "name": "ApprovalCallerNotOwnerNorApproved",
      "type": "error"
    },
    {
      "inputs": [],
      "name": "ApprovalQueryForNonexistentToken",
      "type": "error"
    },
    {
      "inputs": [],
      "name": "BalanceQueryForZeroAddress",
      "type": "error"
    },
    {
      "inputs": [
        {
          "internalType": "address",
          "name": "implementation",
          "type": "address"
        }
      ],
      "name": "ERC1967InvalidImplementation",
      "type": "error"
    },
    {
      "inputs": [],
      "name": "ERC1967NonPayable",
      "type": "error"
    },
    {
      "inputs": [],
      "name": "FailedCall",
      "type": "error"
    },
    {
      "inputs": [],
      "name": "InvalidInitialization",
      "type": "error"
    },
    {
      "inputs": [],
      "name": "InvalidQueryRange",
      "type": "error"
    },
    {
      "inputs": [],
      "name": "MintERC2309QuantityExceedsLimit",
      "type": "error"
    },
    {
      "inputs": [],
      "name": "MintToZeroAddress",
      "type": "error"
    },
    {
      "inputs": [],
      "name": "MintZeroQuantity",
      "type": "error"
    },
    {
      "inputs": [],
      "name": "NoZeroAmount",
      "type": "error"
    },
    {
      "inputs": [],
      "name": "NotApproved",
      "type": "error"
    },
    {
      "inputs": [],
      "name": "NotCompatibleWithSpotMints",
      "type": "error"
    },
    {
      "inputs": [],
      "name": "NotInitializing",
      "type": "error"
    },
    {
      "inputs": [],
      "name": "OwnerQueryForNonexistentToken",
      "type": "error"
    },
    {
      "inputs": [],
      "name": "OwnershipNotInitializedForExtraData",
      "type": "error"
    },
    {
      "inputs": [],
      "name": "ReentrancyGuardReentrantCall",
      "type": "error"
    },
    {
      "inputs": [],
      "name": "SequentialMintExceedsLimit",
      "type": "error"
    },
    {
      "inputs": [],
      "name": "SequentialUpToTooSmall",
      "type": "error"
    },
    {
      "inputs": [],
      "name": "SpotMintTokenIdTooSmall",
      "type": "error"
    },
    {
      "inputs": [],
      "name": "TokenAlreadyExists",
      "type": "error"
    },
    {
      "inputs": [],
      "name": "TransferCallerNotOwnerNorApproved",
      "type": "error"
    },
    {
      "inputs": [],
      "name": "TransferFromIncorrectOwner",
      "type": "error"
    },
    {
      "inputs": [],
      "name": "TransferToNonERC721ReceiverImplementer",
      "type": "error"
    },
    {
      "inputs": [],
      "name": "TransferToZeroAddress",
      "type": "error"
    },
    {
      "inputs": [],
      "name": "URIQueryForNonexistentToken",
      "type": "error"
    },
    {
      "inputs": [],
      "name": "UUPSUnauthorizedCallContext",
      "type": "error"
    },
    {
      "inputs": [
        {
          "internalType": "bytes32",
          "name": "slot",
          "type": "bytes32"
        }
      ],
      "name": "UUPSUnsupportedProxiableUUID",
      "type": "error"
    },
    {
      "anonymous": false,
      "inputs": [
        {
          "indexed": true,
          "internalType": "address",
          "name": "owner",
          "type": "address"
        },
        {
          "indexed": true,
          "internalType": "address",
          "name": "approved",
          "type": "address"
        },
        {
          "indexed": true,
          "internalType": "uint256",
          "name": "tokenId",
          "type": "uint256"
        }
      ],
      "name": "Approval",
      "type": "event"
    },
    {
      "anonymous": false,
      "inputs": [
        {
          "indexed": true,
          "internalType": "address",
          "name": "owner",
          "type": "address"
        },
        {
          "indexed": true,
          "internalType": "address",
          "name": "operator",
          "type": "address"
        },
        {
          "indexed": false,
          "internalType": "bool",
          "name": "approved",
          "type": "bool"
        }
      ],
      "name": "ApprovalForAll",
      "type": "event"
    },
    {
      "anonymous": false,
      "inputs": [
        {
          "indexed": true,
          "internalType": "uint256",
          "name": "fromTokenId",
          "type": "uint256"
        },
        {
          "indexed": false,
          "internalType": "uint256",
          "name": "toTokenId",
          "type": "uint256"
        },
        {
          "indexed": true,
          "internalType": "address",
          "name": "from",
          "type": "address"
        },
        {
          "indexed": true,
          "internalType": "address",
          "name": "to",
          "type": "address"
        }
      ],
      "name": "ConsecutiveTransfer",
      "type": "event"
    },
    {
      "anonymous": false,
      "inputs": [
        {
          "indexed": false,
          "internalType": "uint64",
          "name": "version",
          "type": "uint64"
        }
      ],
      "name": "Initialized",
      "type": "event"
    },
    {
      "anonymous": false,
      "inputs": [
        {
          "indexed": true,
          "internalType": "bytes32",
          "name": "role",
          "type": "bytes32"
        },
        {
          "indexed": true,
          "internalType": "bytes32",
          "name": "previousAdminRole",
          "type": "bytes32"
        },
        {
          "indexed": true,
          "internalType": "bytes32",
          "name": "newAdminRole",
          "type": "bytes32"
        }
      ],
      "name": "RoleAdminChanged",
      "type": "event"
    },
    {
      "anonymous": false,
      "inputs": [
        {
          "indexed": true,
          "internalType": "bytes32",
          "name": "role",
          "type": "bytes32"
        },
        {
          "indexed": true,
          "internalType": "address",
          "name": "account",
          "type": "address"
        },
        {
          "indexed": true,
          "internalType": "address",
          "name": "sender",
          "type": "address"
        }
      ],
      "name": "RoleGranted",
      "type": "event"
    },
    {
      "anonymous": false,
      "inputs": [
        {
          "indexed": true,
          "internalType": "bytes32",
          "name": "role",
          "type": "bytes32"
        },
        {
          "indexed": true,
          "internalType": "address",
          "name": "account",
          "type": "address"
        },
        {
          "indexed": true,
          "internalType": "address",
          "name": "sender",
          "type": "address"
        }
      ],
      "name": "RoleRevoked",
      "type": "event"
    },
    {
      "anonymous": false,
      "inputs": [
        {
          "indexed": true,
          "internalType": "address",
          "name": "from",
          "type": "address"
        },
        {
          "indexed": true,
          "internalType": "address",
          "name": "to",
          "type": "address"
        },
        {
          "indexed": true,
          "internalType": "uint256",
          "name": "tokenId",
          "type": "uint256"
        }
      ],
      "name": "Transfer",
      "type": "event"
    },
    {
      "anonymous": false,
      "inputs": [
        {
          "indexed": true,
          "internalType": "address",
          "name": "implementation",
          "type": "address"
        }
      ],
      "name": "Upgraded",
      "type": "event"
    },
    {
      "inputs": [],
      "name": "DEFAULT_ADMIN_ROLE",
      "outputs": [
        {
          "internalType": "bytes32",
          "name": "",
          "type": "bytes32"
        }
      ],
      "stateMutability": "view",
      "type": "function"
    },
    {
      "inputs": [],
      "name": "UPGRADE_INTERFACE_VERSION",
      "outputs": [
        {
          "internalType": "string",
          "name": "",
          "type": "string"
        }
      ],
      "stateMutability": "view",
      "type": "function"
    },
    {
      "inputs": [
        {
          "internalType": "address",
          "name": "to",
          "type": "address"
        },
        {
          "internalType": "uint256",
          "name": "tokenId",
          "type": "uint256"
        }
      ],
      "name": "approve",
      "outputs": [],
      "stateMutability": "payable",
      "type": "function"
    },
    {
      "inputs": [
        {
          "internalType": "address",
          "name": "owner",
          "type": "address"
        }
      ],
      "name": "balanceOf",
      "outputs": [
        {
          "internalType": "uint256",
          "name": "",
          "type": "uint256"
        }
      ],
      "stateMutability": "view",
      "type": "function"
    },
    {
      "inputs": [
        {
          "internalType": "uint256",
          "name": "tokenId",
          "type": "uint256"
        }
      ],
      "name": "burn",
      "outputs": [],
      "stateMutability": "nonpayable",
      "type": "function"
    },
    {
      "inputs": [
        {
          "internalType": "address",
          "name": "_owner",
          "type": "address"
        },
        {
          "internalType": "uint256",
          "name": "_tokenId",
          "type": "uint256"
        }
      ],
      "name": "burnFrom",
      "outputs": [],
      "stateMutability": "nonpayable",
      "type": "function"
    },
    {
      "inputs": [],
      "name": "carbonCredit20",
      "outputs": [
        {
          "internalType": "address",
          "name": "",
          "type": "address"
        }
      ],
      "stateMutability": "view",
      "type": "function"
    },
    {
      "inputs": [],
      "name": "carbonCredit20Vault",
      "outputs": [
        {
          "internalType": "address",
          "name": "",
          "type": "address"
        }
      ],
      "stateMutability": "view",
      "type": "function"
    },
    {
      "inputs": [
        {
          "internalType": "uint256",
          "name": "tokenId",
          "type": "uint256"
        }
      ],
      "name": "convertToCarbonCredit20",
      "outputs": [],
      "stateMutability": "nonpayable",
      "type": "function"
    },
    {
      "inputs": [
        {
          "internalType": "uint256",
          "name": "_id",
          "type": "uint256"
        }
      ],
      "name": "creditsById",
      "outputs": [
        {
          "internalType": "uint256",
          "name": "",
          "type": "uint256"
        }
      ],
      "stateMutability": "view",
      "type": "function"
    },
    {
      "inputs": [
        {
          "internalType": "uint256[]",
          "name": "_ids",
          "type": "uint256[]"
        }
      ],
      "name": "creditsByIds",
      "outputs": [
        {
          "internalType": "uint256[]",
          "name": "credits",
          "type": "uint256[]"
        }
      ],
      "stateMutability": "view",
      "type": "function"
    },
    {
      "inputs": [
        {
          "internalType": "uint256",
          "name": "tokenId",
          "type": "uint256"
        }
      ],
      "name": "explicitOwnershipOf",
      "outputs": [
        {
          "components": [
            {
              "internalType": "address",
              "name": "addr",
              "type": "address"
            },
            {
              "internalType": "uint64",
              "name": "startTimestamp",
              "type": "uint64"
            },
            {
              "internalType": "bool",
              "name": "burned",
              "type": "bool"
            },
            {
              "internalType": "uint24",
              "name": "extraData",
              "type": "uint24"
            }
          ],
          "internalType": "struct IERC721AUpgradeable.TokenOwnership",
          "name": "ownership",
          "type": "tuple"
        }
      ],
      "stateMutability": "view",
      "type": "function"
    },
    {
      "inputs": [
        {
          "internalType": "uint256[]",
          "name": "tokenIds",
          "type": "uint256[]"
        }
      ],
      "name": "explicitOwnershipsOf",
      "outputs": [
        {
          "components": [
            {
              "internalType": "address",
              "name": "addr",
              "type": "address"
            },
            {
              "internalType": "uint64",
              "name": "startTimestamp",
              "type": "uint64"
            },
            {
              "internalType": "bool",
              "name": "burned",
              "type": "bool"
            },
            {
              "internalType": "uint24",
              "name": "extraData",
              "type": "uint24"
            }
          ],
          "internalType": "struct IERC721AUpgradeable.TokenOwnership[]",
          "name": "",
          "type": "tuple[]"
        }
      ],
      "stateMutability": "view",
      "type": "function"
    },
    {
      "inputs": [
        {
          "internalType": "uint256",
          "name": "tokenId",
          "type": "uint256"
        }
      ],
      "name": "getApproved",
      "outputs": [
        {
          "internalType": "address",
          "name": "",
          "type": "address"
        }
      ],
      "stateMutability": "view",
      "type": "function"
    },
    {
      "inputs": [
        {
          "internalType": "bytes32",
          "name": "role",
          "type": "bytes32"
        }
      ],
      "name": "getRoleAdmin",
      "outputs": [
        {
          "internalType": "bytes32",
          "name": "",
          "type": "bytes32"
        }
      ],
      "stateMutability": "view",
      "type": "function"
    },
    {
      "inputs": [
        {
          "internalType": "bytes32",
          "name": "role",
          "type": "bytes32"
        },
        {
          "internalType": "address",
          "name": "account",
          "type": "address"
        }
      ],
      "name": "grantRole",
      "outputs": [],
      "stateMutability": "nonpayable",
      "type": "function"
    },
    {
      "inputs": [
        {
          "internalType": "bytes32",
          "name": "role",
          "type": "bytes32"
        },
        {
          "internalType": "address",
          "name": "account",
          "type": "address"
        }
      ],
      "name": "hasRole",
      "outputs": [
        {
          "internalType": "bool",
          "name": "",
          "type": "bool"
        }
      ],
      "stateMutability": "view",
      "type": "function"
    },
    {
      "inputs": [],
      "name": "imageURI",
      "outputs": [
        {
          "internalType": "string",
          "name": "",
          "type": "string"
        }
      ],
      "stateMutability": "view",
      "type": "function"
    },
    {
      "inputs": [
        {
          "internalType": "contract ICarbonCredit20",
          "name": "_carbonCredit20",
          "type": "address"
        },
        {
          "internalType": "address",
          "name": "_carbonCredit20Vault",
          "type": "address"
        },
        {
          "internalType": "address",
          "name": "_router",
          "type": "address"
        },
        {
          "internalType": "string",
          "name": "_name",
          "type": "string"
        },
        {
          "internalType": "string",
          "name": "_symbol",
          "type": "string"
        }
      ],
      "name": "init",
      "outputs": [],
      "stateMutability": "nonpayable",
      "type": "function"
    },
    {
      "inputs": [
        {
          "internalType": "address",
          "name": "owner",
          "type": "address"
        },
        {
          "internalType": "address",
          "name": "operator",
          "type": "address"
        }
      ],
      "name": "isApprovedForAll",
      "outputs": [
        {
          "internalType": "bool",
          "name": "",
          "type": "bool"
        }
      ],
      "stateMutability": "view",
      "type": "function"
    },
    {
      "inputs": [
        {
          "internalType": "address",
          "name": "_to",
          "type": "address"
        },
        {
          "internalType": "uint256",
          "name": "_creditAmount",
          "type": "uint256"
        }
      ],
      "name": "mint",
      "outputs": [],
      "stateMutability": "nonpayable",
      "type": "function"
    },
    {
      "inputs": [
        {
          "internalType": "address[]",
          "name": "_to",
          "type": "address[]"
        },
        {
          "internalType": "uint256[]",
          "name": "_creditAmount",
          "type": "uint256[]"
        }
      ],
      "name": "mintBatch",
      "outputs": [],
      "stateMutability": "nonpayable",
      "type": "function"
    },
    {
      "inputs": [],
      "name": "name",
      "outputs": [
        {
          "internalType": "string",
          "name": "",
          "type": "string"
        }
      ],
      "stateMutability": "view",
      "type": "function"
    },
    {
      "inputs": [
        {
          "internalType": "uint256",
          "name": "tokenId",
          "type": "uint256"
        }
      ],
      "name": "ownerOf",
      "outputs": [
        {
          "internalType": "address",
          "name": "",
          "type": "address"
        }
      ],
      "stateMutability": "view",
      "type": "function"
    },
    {
      "inputs": [],
      "name": "proxiableUUID",
      "outputs": [
        {
          "internalType": "bytes32",
          "name": "",
          "type": "bytes32"
        }
      ],
      "stateMutability": "view",
      "type": "function"
    },
    {
      "inputs": [
        {
          "internalType": "bytes32",
          "name": "role",
          "type": "bytes32"
        },
        {
          "internalType": "address",
          "name": "callerConfirmation",
          "type": "address"
        }
      ],
      "name": "renounceRole",
      "outputs": [],
      "stateMutability": "nonpayable",
      "type": "function"
    },
    {
      "inputs": [
        {
          "internalType": "bytes32",
          "name": "role",
          "type": "bytes32"
        },
        {
          "internalType": "address",
          "name": "account",
          "type": "address"
        }
      ],
      "name": "revokeRole",
      "outputs": [],
      "stateMutability": "nonpayable",
      "type": "function"
    },
    {
      "inputs": [
        {
          "internalType": "address",
          "name": "from",
          "type": "address"
        },
        {
          "internalType": "address",
          "name": "to",
          "type": "address"
        },
        {
          "internalType": "uint256",
          "name": "tokenId",
          "type": "uint256"
        }
      ],
      "name": "safeTransferFrom",
      "outputs": [],
      "stateMutability": "payable",
      "type": "function"
    },
    {
      "inputs": [
        {
          "internalType": "address",
          "name": "from",
          "type": "address"
        },
        {
          "internalType": "address",
          "name": "to",
          "type": "address"
        },
        {
          "internalType": "uint256",
          "name": "tokenId",
          "type": "uint256"
        },
        {
          "internalType": "bytes",
          "name": "_data",
          "type": "bytes"
        }
      ],
      "name": "safeTransferFrom",
      "outputs": [],
      "stateMutability": "payable",
      "type": "function"
    },
    {
      "inputs": [
        {
          "internalType": "address",
          "name": "operator",
          "type": "address"
        },
        {
          "internalType": "bool",
          "name": "approved",
          "type": "bool"
        }
      ],
      "name": "setApprovalForAll",
      "outputs": [],
      "stateMutability": "nonpayable",
      "type": "function"
    },
    {
      "inputs": [
        {
          "internalType": "contract ICarbonCredit20",
          "name": "_carbonCredit20",
          "type": "address"
        }
      ],
      "name": "setCarbonCredit20",
      "outputs": [],
      "stateMutability": "nonpayable",
      "type": "function"
    },
    {
      "inputs": [
        {
          "internalType": "address",
          "name": "_carbonCredit20Vault",
          "type": "address"
        }
      ],
      "name": "setCarbonCredit20Vault",
      "outputs": [],
      "stateMutability": "nonpayable",
      "type": "function"
    },
    {
      "inputs": [
        {
          "internalType": "string",
          "name": "_imageURI",
          "type": "string"
        }
      ],
      "name": "setImageURI",
      "outputs": [],
      "stateMutability": "nonpayable",
      "type": "function"
    },
    {
      "inputs": [
        {
          "internalType": "bytes4",
          "name": "interfaceId",
          "type": "bytes4"
        }
      ],
      "name": "supportsInterface",
      "outputs": [
        {
          "internalType": "bool",
          "name": "",
          "type": "bool"
        }
      ],
      "stateMutability": "view",
      "type": "function"
    },
    {
      "inputs": [],
      "name": "symbol",
      "outputs": [
        {
          "internalType": "string",
          "name": "",
          "type": "string"
        }
      ],
      "stateMutability": "view",
      "type": "function"
    },
    {
      "inputs": [
        {
          "internalType": "uint256",
          "name": "tokenId",
          "type": "uint256"
        }
      ],
      "name": "tokenURI",
      "outputs": [
        {
          "internalType": "string",
          "name": "metadata",
          "type": "string"
        }
      ],
      "stateMutability": "view",
      "type": "function"
    },
    {
      "inputs": [
        {
          "internalType": "address",
          "name": "owner",
          "type": "address"
        }
      ],
      "name": "tokensOfOwner",
      "outputs": [
        {
          "internalType": "uint256[]",
          "name": "",
          "type": "uint256[]"
        }
      ],
      "stateMutability": "view",
      "type": "function"
    },
    {
      "inputs": [
        {
          "internalType": "address",
          "name": "owner",
          "type": "address"
        },
        {
          "internalType": "uint256",
          "name": "start",
          "type": "uint256"
        },
        {
          "internalType": "uint256",
          "name": "stop",
          "type": "uint256"
        }
      ],
      "name": "tokensOfOwnerIn",
      "outputs": [
        {
          "internalType": "uint256[]",
          "name": "",
          "type": "uint256[]"
        }
      ],
      "stateMutability": "view",
      "type": "function"
    },
    {
      "inputs": [],
      "name": "totalSupply",
      "outputs": [
        {
          "internalType": "uint256",
          "name": "result",
          "type": "uint256"
        }
      ],
      "stateMutability": "view",
      "type": "function"
    },
    {
      "inputs": [
        {
          "internalType": "address",
          "name": "from",
          "type": "address"
        },
        {
          "internalType": "address",
          "name": "to",
          "type": "address"
        },
        {
          "internalType": "uint256",
          "name": "tokenId",
          "type": "uint256"
        }
      ],
      "name": "transferFrom",
      "outputs": [],
      "stateMutability": "payable",
      "type": "function"
    },
    {
      "inputs": [
        {
          "internalType": "address",
          "name": "newImplementation",
          "type": "address"
        },
        {
          "internalType": "bytes",
          "name": "data",
          "type": "bytes"
        }
      ],
      "name": "upgradeToAndCall",
      "outputs": [],
      "stateMutability": "payable",
      "type": "function"
    }
  ],
  "bytecode": "0x60a060405234602f57600e6034565b6040516146cd61007e82396080518181816133fc01526134ec01526146cd90f35b600080fd5b603a603c565b565b603a6071565b6054906057906001600160a01b031682565b90565b6001600160a01b031690565b6054906042565b6054906063565b607830606a565b60805256fe6080604052600436101561001257600080fd5b60003560e01c806301ffc9a7146102a257806304787ca21461029d57806306fdde0314610298578063081812fc14610293578063095ea7b31461028e578063135d088d1461028957806318160ddd146102845780631c67e7e21461027f5780631eb49a3f1461027a57806323b872dd14610275578063248a9ca3146102705780632f2ff15d1461026b57806336568abe1461026657806340c10f191461026157806342842e0e1461025c57806342966c68146102575780634f1ef2861461025257806352d1902d1461024d5780635bbb2177146102485780636352211e1461024357806370a082311461023e57806379cc6790146102395780637c88e3d9146102345780638462151c1461022f5780638e85643a1461022a57806391d148541461022557806395d89b411461022057806399a2557a1461021b578063a217fddf14610216578063a22cb46514610211578063ad3cb1cc1461020c578063b88d4fde14610207578063c23dc68f14610202578063c87b56dd146101fd578063cb19dae4146101f8578063d060c957146101f3578063d547741f146101ee578063d83e4e80146101e9578063e985e9c5146101e4578063f324b816146101df5763fb7961c8036102d257610e61565b610e49565b610e2d565b610df9565b610de0565b610dc5565b610dad565b610d92565b610d6b565b610cff565b610c94565b610c1e565b610bcb565b610b90565b610b4c565b610b30565b610b14565b610a86565b610a6a565b610a07565b6109ec565b6109bd565b610995565b6108e4565b6108d0565b610769565b610755565b61073c565b610723565b61070a565b6106cc565b6106b8565b610674565b61064c565b610564565b610549565b610535565b6104a7565b610440565b61038d565b610301565b7fffffffff0000000000000000000000000000000000000000000000000000000081165b036102d257565b600080fd5b905035906102e4826102a7565b565b906020828203126102d2576102fa916102d7565b90565b9052565b346102d25761032f61031c6103173660046102e6565b610e7c565b6040515b91829182901515815260200190565b0390f35b909182601f830112156102d25781359167ffffffffffffffff83116102d25760200192600183028401116102d257565b906020828203126102d257813567ffffffffffffffff81116102d2576103899201610333565b9091565b346102d2576103a66103a0366004610363565b906110dc565b604051005b60009103126102d257565b60005b8381106103c95750506000910152565b81810151838201526020016103b9565b6103fa61040360209361042b936103ee815190565b80835293849260200190565b958691016103b6565b601f017fffffffffffffffffffffffffffffffffffffffffffffffffffffffffffffffe01690565b0190565b60208082526102fa929101906103d9565b346102d2576104503660046103ab565b61032f61045b61119e565b6040519182918261042f565b806102cb565b905035906102e482610467565b906020828203126102d2576102fa9161046d565b73ffffffffffffffffffffffffffffffffffffffff1690565b346102d25761032f6104c26104bd36600461047a565b6111e3565b6040519182918273ffffffffffffffffffffffffffffffffffffffff909116815260200190565b73ffffffffffffffffffffffffffffffffffffffff81166102cb565b905035906102e4826104e9565b91906040838203126102d2576102fa90602061052e8286610505565b940161046d565b6103a6610543366004610512565b90611270565b346102d2576105593660046103ab565b61032f61045b61127c565b346102d2576105743660046103ab565b61032f61057f6112b8565b6040519182918290815260200190565b909182601f830112156102d25781359167ffffffffffffffff83116102d25760200192602083028401116102d257565b906020828203126102d257813567ffffffffffffffff81116102d257610389920161058f565b906106056105fe6105f4845190565b8084529260200190565b9260200190565b9060005b8181106106165750505090565b90919261063361062c6001928651815260200190565b9460200190565b929101610609565b60208082526102fa929101906105e5565b346102d25761032f6106686106623660046105bf565b906113ee565b6040519182918261063b565b346102d2576106843660046103ab565b61032f6104c261149e565b90916060828403126102d2576102fa6106a88484610505565b93604061052e8260208701610505565b6103a66106c636600461068f565b9161156f565b346102d25761032f61057f6106e236600461047a565b61185e565b91906040838203126102d2576102fa906020610703828661046d565b9401610505565b346102d2576103a661071d3660046106e7565b906118be565b346102d2576103a66107363660046106e7565b906118c8565b346102d2576103a661074f366004610512565b90611abf565b6103a661076336600461068f565b91611adb565b346102d2576103a661077c36600461047a565b611b32565b7f4e487b7100000000000000000000000000000000000000000000000000000000600052604160045260246000fd5b90601f017fffffffffffffffffffffffffffffffffffffffffffffffffffffffffffffffe016810190811067ffffffffffffffff8211176107f057604052565b610781565b906102e461080260405190565b92836107b0565b67ffffffffffffffff81116107f057602090601f017fffffffffffffffffffffffffffffffffffffffffffffffffffffffffffffffe0160190565b90826000939282370152565b9092919261086561086082610809565b6107f5565b93818552818301116102d2576102e4916020850190610844565b9080601f830112156102d2578160206102fa93359101610850565b9190916040818403126102d2576108b18382610505565b92602082013567ffffffffffffffff81116102d2576102fa920161087f565b6103a66108de36600461089a565b90611b62565b346102d2576108f43660046103ab565b61032f61057f611baf565b9061090e6105fe6105f4845190565b9060005b81811061091f5750505090565b90919261097c61062c6001928651805173ffffffffffffffffffffffffffffffffffffffff16825260208082015167ffffffffffffffff169083015260408082015115159083015260609081015162ffffff169082015260800190565b929101610912565b60208082526102fa929101906108ff565b346102d25761032f6109b16109ab3660046105bf565b90611bb9565b60405191829182610984565b346102d25761032f6104c26109d336600461047a565b611c02565b906020828203126102d2576102fa91610505565b346102d25761032f61057f610a023660046109d8565b611c39565b346102d2576103a6610a1a366004610512565b90611d46565b90916040828403126102d257813567ffffffffffffffff81116102d25783610a4991840161058f565b929093602082013567ffffffffffffffff81116102d257610389920161058f565b346102d2576103a6610a7d366004610a20565b92919091611dbe565b346102d25761032f610668610a9c3660046109d8565b611efa565b91909160a0818403126102d257610ab88382610505565b92610ac68160208401610505565b92610ad48260408501610505565b92606081013567ffffffffffffffff81116102d25783610af591830161087f565b92608082013567ffffffffffffffff81116102d2576102fa920161087f565b346102d2576103a6610b27366004610aa1565b9392909261243e565b346102d25761032f61031c610b463660046106e7565b9061244b565b346102d257610b5c3660046103ab565b61032f61045b61248d565b90916060828403126102d2576102fa610b808484610505565b93604061052e826020870161046d565b346102d25761032f610668610ba6366004610b67565b916124b8565b6102fa6102fa6102fa9290565b6102fa6000610bac565b6102fa610bb9565b346102d257610bdb3660046103ab565b61032f61057f610bc3565b8015156102cb565b905035906102e482610be6565b91906040838203126102d2576102fa906020610c178286610505565b9401610bee565b346102d2576103a6610c31366004610bfb565b906124c3565b90610c4461086083610809565b918252565b610c536005610c37565b7f352e302e30000000000000000000000000000000000000000000000000000000602082015290565b6102fa610c49565b6102fa610c7c565b6102fa610c84565b346102d257610ca43660046103ab565b61032f61045b610c8c565b906080828203126102d257610cc48183610505565b92610cd28260208501610505565b92610ce0836040830161046d565b92606082013567ffffffffffffffff81116102d2576102fa920161087f565b6103a6610d0d366004610caf565b92919091612535565b6080810192916102e49190805173ffffffffffffffffffffffffffffffffffffffff16825260208082015167ffffffffffffffff169083015260408082015115159083015260609081015162ffffff16910152565b346102d25761032f610d86610d8136600461047a565b6125d4565b60405191829182610d16565b346102d25761032f61045b610da836600461047a565b612879565b346102d2576103a6610dc03660046109d8565b61294a565b346102d25761032f61057f610ddb36600461047a565b612953565b346102d2576103a6610df33660046106e7565b906129a6565b346102d2576103a6610e0c3660046109d8565b6129eb565b91906040838203126102d2576102fa9060206107038286610505565b346102d25761032f61031c610e43366004610e11565b906129f4565b346102d2576103a6610e5c36600461047a565b612a5a565b346102d257610e713660046103ab565b61032f6104c2612b0c565b6102fa90612b37565b6102fa7f241ecf16d79d0f8dbfb92cbc07fe17840425976cf0667f022fe9877caa831b08610bac565b906102e491610ec3610ebe610e85565b612b91565b6110b1565b7f4e487b7100000000000000000000000000000000000000000000000000000000600052602260045260246000fd5b9060016002830492168015610f17575b6020831014610f1257565b610ec8565b91607f1691610f07565b91906008610f3b910291610f36600019841b90565b921b90565b9181191691161790565b9190610f566102fa610f5e93610bac565b908354610f21565b9055565b6102e491600091610f45565b818110610f79575050565b80610f876000600193610f62565b01610f6e565b9190601f8111610f9c57505050565b610fae6102e493600052602060002090565b906020601f840181900483019310610fd0575b6020601f909101040190610f6e565b9091508190610fc1565b919067ffffffffffffffff82116107f057610fff82610ff98554610ef7565b85610f8d565b600090601f831160011461103a57610f5e92916000918361102f575b5050600019600883021c1916906002021790565b01359050388061101b565b90601f1983169161105085600052602060002090565b92825b81811061108e57509160029391856001969410611074575b50505002019055565b0135600019601f84166008021c19165b905538808061106b565b92936020600181928786013581550195019301611053565b906102e49291610fda565b6102e491907fbcc05c61c7d0d195434463965fc0e4773cef5b2831056a0cd4dd5dbb8ec965026110a6565b906102e491610eae565b805460009392916111036110f983610ef7565b8085529360200190565b9160018116908115611155575060011461111c57505050565b61112f9192939450600052602060002090565b916000925b8184106111415750500190565b805484840152602090930192600101611134565b92949550505060ff1916825215156020020190565b906102fa916110e6565b906102e461118e9261118560405190565b9384809261116a565b03836107b0565b6102fa90611174565b6102fa60027f2569078dfb4b0305704d3008e7403993ae9601b85f7ae5e742de3de8f8011c405b01611195565b906111d590610bac565b600052602052604060002090565b6111f36111ef82612bcf565b1590565b61124a57600061122f6102fa9260066112297f2569078dfb4b0305704d3008e7403993ae9601b85f7ae5e742de3de8f8011c4090565b016111cb565b015473ffffffffffffffffffffffffffffffffffffffff1690565b7fcf4700e400000000000000000000000000000000000000000000000000000000612c83565b6102e491600191612c8c565b6102fa60027fbcc05c61c7d0d195434463965fc0e4773cef5b2831056a0cd4dd5dbb8ec965006111c5565b6102fa9081565b6102fa90546112a7565b7f2569078dfb4b0305704d3008e7403993ae9601b85f7ae5e742de3de8f8011c40906113026112fa6112e9846112ae565b6112f5600186016112ae565b900390565b6112f5610bb9565b809261130d60001990565b6000199061131a565b9190565b03611323575050565b6102fa929350600861042b91016112ae565b67ffffffffffffffff81116107f05760208091020190565b90610c4461086083611335565b369037565b906102e461137561136f8461134d565b93611335565b7fffffffffffffffffffffffffffffffffffffffffffffffffffffffffffffffe0016020840161135a565b7f4e487b7100000000000000000000000000000000000000000000000000000000600052603260045260246000fd5b906113d8825190565b8110156113e9576020809102010190565b6113a0565b507fbcc05c61c7d0d195434463965fc0e4773cef5b2831056a0cd4dd5dbb8ec965006114198261135f565b92839060005b845b8110156114615761145a816114546114476114426114219560038a016111cb565b6112ae565b611451838b6113cf565b52565b60010190565b905061141f565b509250925050565b61048e6102fa6102fa9273ffffffffffffffffffffffffffffffffffffffff1690565b6102fa90611469565b6102fa9061148c565b6102fa6114cc60007fbcc05c61c7d0d195434463965fc0e4773cef5b2831056a0cd4dd5dbb8ec9650061122f565b611495565b6102fa6102fa6102fa9273ffffffffffffffffffffffffffffffffffffffff1690565b6102fa73ffffffffffffffffffffffffffffffffffffffff610bac565b61048e6102fa6102fa9290565b906111d590611495565b9060001990610f3b565b906115426102fa610f5e92610bac565b8254611528565b6102fa7c0200000000000000000000000000000000000000000000000000000000610bac565b91909161158c61158761158184612d76565b9261148c565b6114d1565b916115a86115a361159b6114f4565b809516611511565b61148c565b936115b56115a384611511565b6115ea73ffffffffffffffffffffffffffffffffffffffff87165b9173ffffffffffffffffffffffffffffffffffffffff1690565b036118325784926115fa83612eba565b336116096111ef828985612ef8565b6117ea575b50611316959493611748979361171c93611587936117e0575b507f2569078dfb4b0305704d3008e7403993ae9601b85f7ae5e742de3de8f8011c40906116a961169d847f2569078dfb4b0305704d3008e7403993ae9601b85f7ae5e742de3de8f8011c4561169861167f8d8361151e565b61169261168b826112ae565b6000190190565b90611532565b61151e565b611692611454826112ae565b6116e26116bf82856116b9611549565b9b612f83565b89178473ffffffffffffffffffffffffffffffffffffffff16904260a01b171790565b6116f960048401916116f48a846111cb565b611532565b60009861170e6117088b610bac565b91841690565b14611775575b50505061148c565b1680957fddf252ad1be2c89b69c2b068fc378daa952ba7f163c4a11628f55a4df523b3ef8480a4610bac565b1461174f57565b7fea553b3400000000000000000000000000000000000000000000000000000000612c83565b886117886117836001610bac565b8a0190565b9361179661144286856111cb565b6117a261131684610bac565b146117af575b5050611714565b6117bd916102fa91016112ae565b83036117cb575b88816117a8565b6117d8926116f4916111cb565b3880806117c4565b6000905538611627565b6111ef906117fc9298949695976129f4565b61180c578694929391953861160e565b7f59c896be00000000000000000000000000000000000000000000000000000000612c83565b7fa114810000000000000000000000000000000000000000000000000000000000612c83565b906111d5565b600161189a6102fa9261186f600090565b5060007f02dd7bc7dec4dceedda775e58dd541e08a116c6c53815c0bd028192f7b6268005b01611858565b016112ae565b906102e4916118b1610ebe8261185e565b906118bb91612fc2565b50565b906102e4916118a0565b906118d23361048e565b73ffffffffffffffffffffffffffffffffffffffff8216036118f7576118bb9161305c565b7f6697b23200000000000000000000000000000000000000000000000000000000600090815260045b036000fd5b90611937916119326130e5565b61197c565b6102e461315c565b73ffffffffffffffffffffffffffffffffffffffff9182168152911660208201526060810192916102e49160400152565b6040513d6000823e3d90fd5b600061198781610bac565b8314611a97577fbcc05c61c7d0d195434463965fc0e4773cef5b2831056a0cd4dd5dbb8ec96500926119d26114cc8386015473ffffffffffffffffffffffffffffffffffffffff1690565b600185015473ffffffffffffffffffffffffffffffffffffffff1690803b156102d257828491611a269383611a0660405190565b809681958294611a1a6323b872dd60e01b90565b8452336004850161193f565b03925af18015611a92576102e495611a55946116f493600393611a65575b505001611a4f613191565b906111cb565b611a5f6001610bac565b906131bc565b81611a8492903d10611a8b575b611a7c81836107b0565b8101906103ab565b3880611a44565b503d611a72565b611970565b7fe8580803000000000000000000000000000000000000000000000000000000008152600490fd5b906102e491611925565b6102fa6000610c37565b6102fa611ac9565b90916102e492611ae9611ad3565b92612535565b6102fa7fc1afd8425b8b41464386646c3e1045d33b9103e915d44771f2b8986b8c964dc5610bac565b6102e490611b27610ebe611aef565b60016102e4916131d8565b6102e490611b18565b906102e491611b486133f1565b906102e491611b58610ebe610e85565b906102e4916134bf565b906102e491611b3b565b6102fa90611b786134c9565b611ba6565b6102fa7f360894a13ba1a3210667c828492db98dca3e2076cc3735a920a3ca505d382bbc610bac565b506102fa611b7d565b6102fa6000611b6c565b90916040519280845260051b8060208501016040525b611bd96000610bac565b8114611bfd576020900390611bf0828401356125d4565b8260208601015290611bcf565b509050565b6115a3611c1a6102fa92611c14600090565b50612d76565b611511565b6102fa90611511565b6102fa67ffffffffffffffff610bac565b611c4661048e6000611c1f565b73ffffffffffffffffffffffffffffffffffffffff821614611ca457611442611c98916005611c927f2569078dfb4b0305704d3008e7403993ae9601b85f7ae5e742de3de8f8011c4090565b0161151e565b611ca0611c28565b1690565b7f8f4eb60400000000000000000000000000000000000000000000000000000000612c83565b906102e491611cda610ebe611aef565b611ce59033906129f4565b8015611d28575b155b611cfd5760006102e4916131d8565b7fc19f17a9000000000000000000000000000000000000000000000000000000006000908152600490fd5b50611cee611d35826111e3565b611d3e336115d0565b149050611cec565b906102e491611cca565b91908110156113e9576020020190565b356102fa81610467565b7f4e487b7100000000000000000000000000000000000000000000000000000000600052601160045260246000fd5b9190611da4565b9290565b8201809211611daf57565b611d6a565b356102fa816104e9565b9093909184937fbcc05c61c7d0d195434463965fc0e4773cef5b2831056a0cd4dd5dbb8ec9650091600093845b87811015611e7257611e06611e01828686611d50565b611d60565b956000611e1281610bac565b8814611a97575086611e2391611d99565b9560038601611e30613191565b611e39916111cb565b90611e4391611532565b611e4e818a89611d50565b611e5790611db4565b611e616001610bac565b611e6a91613522565b600101611deb565b509650505092509050611ec06001611ea46114cc600086015473ffffffffffffffffffffffffffffffffffffffff1690565b93015473ffffffffffffffffffffffffffffffffffffffff1690565b90823b156102d257611ed99260009283611a0660405190565b03925af18015611a9257611eea5750565b6102e4906000611a7c81836107b0565b6060611f04610bb9565b611f0c613191565b9192828203611f1c575b50505090565b611f269350613706565b388080611f16565b6102fa9060081c5b60ff1690565b6102fa9054611f2e565b6102fa90611f36565b6102fa9054611f46565b15611f6057565b6040517f08c379a000000000000000000000000000000000000000000000000000000000815260206004820152603760248201527f455243373231415f5f496e697469616c697a61626c653a20636f6e747261637460448201527f20697320616c726561647920696e697469616c697a65640000000000000000006064820152608490fd5b9061ff009060081b610f3b565b906120026102fa610f5e92151590565b8254611fe5565b9060ff90610f3b565b906120226102fa610f5e92151590565b8254612009565b9093909261208c927fee151c8401928dc223602bb187aff91b9a56c7cae5476ef1b3287b085a16c85f95869561205e87611f3c565b156120ba5761207361206e613938565b611f59565b61207f6111ef88611f3c565b968761209f575b5061218a565b6120935750565b6102e490600090611ff2565b6001816120af826120b494611ff2565b612012565b38612086565b61207361206e6111ef8a611f4f565b6102fa9060401c611f36565b6102fa90546120c9565b6102fa905b67ffffffffffffffff1690565b6102fa90546120df565b6120e46102fa6102fa9290565b9067ffffffffffffffff90610f3b565b6120e46102fa6102fa9267ffffffffffffffff1690565b9061213f6102fa610f5e92612118565b8254612108565b9068ff00000000000000009060401b610f3b565b9061216a6102fa610f5e92151590565b8254612146565b6102fd906120fb565b6020810192916102e49190612171565b92939091907ff0c57e16840df040f15088dc2f81fe391c3923bec73e23a9662efc9c229c6a009485926121c86121c26111ef866120d5565b946120f1565b946000966121d5886120fb565b67ffffffffffffffff881614806122ee575b6001976122046121f68a6120fb565b9167ffffffffffffffff1690565b1490816122ca575b155b90816122c1575b50612299579061224294939291866122398a6122308b6120fb565b9c019b8c61212f565b61228a576123c9565b61224b57505050565b612279612285927fc7f505b2f371ae2175ee4913f4499e1f2633a7b5936321eed1cdaeb6115181d29461215a565b6040519182918261217a565b0390a1565b612294888b61215a565b6123c9565b7ff92ee8a9000000000000000000000000000000000000000000000000000000008852600488fd5b15905038612215565b905061220e6122d830611495565b3b6122e56113168c610bac565b1491905061220c565b50856121e7565b9073ffffffffffffffffffffffffffffffffffffffff90610f3b565b906123216102fa610f5e92611495565b82546122f5565b60026123737f6f6100000000000000000000000000000000000000000000000000000000000092612364604261235e8354610ef7565b83610f8d565b60858155600052602060002090565b7f697066733a2f2f626166796265696336647a726365376a73716a67786879636b81557f733273756664347876626973637769757a367471757171667070686a7776656860018201550155565b6102e490612328565b9261241c600261242994956124166118bb989561240d6124067fbcc05c61c7d0d195434463965fc0e4773cef5b2831056a0cd4dd5dbb8ec9650090565b9384612311565b60018301612311565b016123c0565b612424613962565b613a3a565b612431613a6d565b612439611aef565b612fc2565b906102e494939291612029565b6102fa916000611c9261248893612460600090565b50827f02dd7bc7dec4dceedda775e58dd541e08a116c6c53815c0bd028192f7b626800611894565b611f4f565b6102fa60037f2569078dfb4b0305704d3008e7403993ae9601b85f7ae5e742de3de8f8011c406111c5565b6102fa929190613706565b7f17307eab39ab6107e8899845ad3d59bd9653f200f220920489ca2b5937696c31612530612526612520336114cc876120af88611698857f2569078dfb4b0305704d3008e7403993ae9601b85f7ae5e742de3de8f8011c4761151e565b93611495565b9361032060405190565b0390a3565b9192909261254481858561156f565b833b6125536113166000610bac565b0361255f575b50505050565b61256c936111ef93613b31565b6125795738808080612559565b7fd1a57ed600000000000000000000000000000000000000000000000000000000612c83565b6102fa60806107f5565b6125b161259f565b60008082526020820181905260408201819052606082015290565b6102fa6125a9565b906125dd6125cc565b916125e96102fa610bb9565b8110156125f35750565b6125fe6102fa613191565b81106126075750565b9091505b6126176111ef82613c61565b15612625576000190161260b565b6102fa90613c21565b61042b61264692602092612640815190565b94859290565b938491016103b6565b8054600093929161266661266283610ef7565b9390565b91600181169081156126b7575060011461267f57505050565b6126929192939450600052602060002090565b6000905b8382106126a35750500190565b600181602092548486015201910190612696565b7fffffffffffffffffffffffffffffffffffffffffffffffffffffffffffffff001683525050811515909102019150565b612850936127316127606102fa979561273161273761284a97612731612821987f7b226e616d65223a2022000000000000000000000000000000000000000000008152600a0190565b9061262e565b7f2023000000000000000000000000000000000000000000000000000000000000815260020190565b7f222c20226465736372697074696f6e223a20224120436172626f6e204372656481527f69742037323120746f6b656e20726570726573656e74696e672061207370656360208201527f6966696320616d6f756e74206f6620436172626f6e204372656469742032302e60408201527f222c202261747472696275746573223a205b7b2274726169745f74797065223a60608201527f2022436172626f6e20437265646974222c202276616c7565223a2022000000006080820152609c0190565b7f227d5d2c2022696d616765223a000000000000000000000000000000000000008152600d0190565b9061264f565b7f7d00000000000000000000000000000000000000000000000000000000000000815260010190565b6102fa907fbcc05c61c7d0d195434463965fc0e4773cef5b2831056a0cd4dd5dbb8ec965009082906128ce611442827fbcc05c61c7d0d195434463965fc0e4773cef5b2831056a0cd4dd5dbb8ec965036111cb565b9061290160026128e86128e26128e261119e565b94613cd6565b95016128f360405190565b9586946020860194856126e8565b908103825203826107b0565b6102e49061291c610ebe610e85565b6102e49060007fbcc05c61c7d0d195434463965fc0e4773cef5b2831056a0cd4dd5dbb8ec965005b01612311565b6102e49061290d565b6114426102fa91612962600090565b5060037fbcc05c61c7d0d195434463965fc0e4773cef5b2831056a0cd4dd5dbb8ec96500611229565b906102e49161299c610ebe8261185e565b906118bb9161305c565b906102e49161298b565b6102e4906129bf610ebe610e85565b6102e49060017fbcc05c61c7d0d195434463965fc0e4773cef5b2831056a0cd4dd5dbb8ec96500612944565b6102e4906129b0565b6102fa9161169861248892612a07600090565b5060077f2569078dfb4b0305704d3008e7403993ae9601b85f7ae5e742de3de8f8011c40611c92565b73ffffffffffffffffffffffffffffffffffffffff90911681526040810192916102e49160200152565b612a656001826131d8565b612abd6114427fbcc05c61c7d0d195434463965fc0e4773cef5b2831056a0cd4dd5dbb8ec96500926003612ab66114cc6114cc600188015473ffffffffffffffffffffffffffffffffffffffff1690565b94016111cb565b90803b156102d257611ed9600092918392612ad760405190565b94859384928391907f9dab76010000000000000000000000000000000000000000000000000000000083523360048401612a30565b6102fa60017fbcc05c61c7d0d195434463965fc0e4773cef5b2831056a0cd4dd5dbb8ec9650061122f565b7f7965db0b000000000000000000000000000000000000000000000000000000007fffffffff00000000000000000000000000000000000000000000000000000000821614908115612b87575090565b6102fa9150613d75565b6102e4903390613d9e565b8015611daf576000190190565b6102fa7c0100000000000000000000000000000000000000000000000000000000610bac565b90600091612bdb610bb9565b811015612be55750565b7f2569078dfb4b0305704d3008e7403993ae9601b85f7ae5e742de3de8f8011c40612c126102fa826112ae565b8210612c1c575050565b9192505b612c3061144282600485016111cb565b80612c3e6113166000610bac565b03612c625750611442600492612c56612c3093612b9c565b9093509150612c209050565b915050612c7f612c70612ba9565b612c7a6000610bac565b921690565b1490565b60005260046000fd5b91612c9682611c02565b9080612d4e575b612d16575b612cdf612520612ce5926114cc8660006129448860066112297f2569078dfb4b0305704d3008e7403993ae9601b85f7ae5e742de3de8f8011c4090565b91610bac565b917f8c5be1e5ebec7d5bd14f71427d1e84f3dd0314c0f7b2291e5b200ac8c7c3b925612d1060405190565b600090a4565b612d236111ef33836129f4565b15612ca2577fcfb3b94200000000000000000000000000000000000000000000000000000000612c83565b5033612d6f73ffffffffffffffffffffffffffffffffffffffff83166115d0565b1415612c9d565b612d7e610bb9565b811015612dac575b7fdf2d9b4200000000000000000000000000000000000000000000000000000000612c83565b7f2569078dfb4b0305704d3008e7403993ae9601b85f7ae5e742de3de8f8011c407f2569078dfb4b0305704d3008e7403993ae9601b85f7ae5e742de3de8f8011c44612dfb61144284836111cb565b92600092612e0884610bac565b8514612e3357505050612e2b612e25612e1f612ba9565b92610bac565b91831690565b03612d865790565b83612e4692939495506102fa91016112ae565b811015612d8657909190600019015b91612e6361144284836111cb565b92612e6d83610bac565b8414612eae575050612e83612e25612e1f612ba9565b146102fa577fdf2d9b4200000000000000000000000000000000000000000000000000000000612c83565b90925060001901612e55565b6102fa612ef291612ec9600090565b5060067f2569078dfb4b0305704d3008e7403993ae9601b85f7ae5e742de3de8f8011c40611229565b90815490565b919073ffffffffffffffffffffffffffffffffffffffff8091612f19600090565b5016911691821491141790565b6102fa60e8610bac565b6102fa90612f416113166102fa9490565b901c90565b612f536102fa6102fa9290565b62ffffff1690565b6102fa6102fa6102fa9262ffffff1690565b6102fa90612f7e6113166102fa9490565b901b90565b612fb8612fbd916102fa9493612f97600090565b50612fb2612fad612fa6612f26565b8097612f30565b612f46565b91613de6565b612f5b565b612f6d565b7f02dd7bc7dec4dceedda775e58dd541e08a116c6c53815c0bd028192f7b626800612ff06111ef848461244b565b156130545760016120af846000611c92868261300c9701611858565b61302061301a612520339390565b91611495565b917f2f8788117e7eff1d82e926ec794901d17c78024a50270940304540a733656f0d61304b60405190565b600090a4600190565b505050600090565b7f02dd7bc7dec4dceedda775e58dd541e08a116c6c53815c0bd028192f7b626800613087838361244b565b156130545760006120af8482611c9286826130a29701611858565b6130b061301a612520339390565b917ff6391f5c32d9c69d2a47ea670b442974b53935d1edc7fd64eb21e047a839171b61304b60405190565b6102fa6002610bac565b7f9b779b17422d0df92223018b32b4d1fa46e071723d6817e2486d003becc55f0061310f816112ae565b6131176130db565b908114613127576102e491611532565b7f3ee5aeb5000000000000000000000000000000000000000000000000000000006000908152600490fd5b6102fa6001610bac565b6102e47f9b779b17422d0df92223018b32b4d1fa46e071723d6817e2486d003becc55f00600061318a613152565b9101611532565b6102fa60007f2569078dfb4b0305704d3008e7403993ae9601b85f7ae5e742de3de8f8011c4061189a565b6102e4916131c8611ad3565b91613df1565b6102fa6080610bac565b6131e181612d76565b916131ee6115a384611511565b906131f883612eba565b90916133b7575b92613320612cdf612520613238956102e498956001986133ad575b5061323c6132266131ce565b61322f8a610bac565b98899182612f6d565b0390565b7f2569078dfb4b0305704d3008e7403993ae9601b85f7ae5e742de3de8f8011c40979061329a90611692613290857f2569078dfb4b0305704d3008e7403993ae9601b85f7ae5e742de3de8f8011c4561151e565b9161042b836112ae565b6132a2612ba9565b966132ab611549565b809817976000926132ec6132be85611c1f565b9a6132ca858d89612f83565b178673ffffffffffffffffffffffffffffffffffffffff16904260a01b171790565b916132ff60048d01936116f48c866111cb565b61331161330b86610bac565b91851690565b1461335c575b50505050611495565b917fddf252ad1be2c89b69c2b068fc378daa952ba7f163c4a11628f55a4df523b3ef61334b60405190565b600090a401611692611454826112ae565b88019261336c61144285846111cb565b61337861131683610bac565b03613317576102fa61338b918c016112ae565b8303613398575b80613317565b6133a5926116f4916111cb565b388080613392565b600090553861321a565b336133c66111ef828685612ef8565b6133d1575b506131ff565b6111ef6133e3918597949693956129f4565b61180c5792909391386133cb565b6133fa30611495565b7f00000000000000000000000000000000000000000000000000000000000000009061343b73ffffffffffffffffffffffffffffffffffffffff83166115d0565b14908115613476575b5061344b57565b7fe07c8dba000000000000000000000000000000000000000000000000000000006000908152600490fd5b90506134a06115d0613486613ed6565b9273ffffffffffffffffffffffffffffffffffffffff1690565b141538613444565b906102e4916134b56133f1565b906102e491613f07565b906102e4916134a8565b6134d230611495565b61351173ffffffffffffffffffffffffffffffffffffffff7f0000000000000000000000000000000000000000000000000000000000000000166115d0565b0361344b57565b6102fa6040610bac565b9091907f2569078dfb4b0305704d3008e7403993ae9601b85f7ae5e742de3de8f8011c4090613550826112ae565b9160009161355d83610bac565b86146136e05780866135c76135ba61357b6135f19a60011460e11b90565b61359861358789611c1f565b6135908a610bac565b978891612f83565b178473ffffffffffffffffffffffffffffffffffffffff16904260a01b171790565b6116f488600488016111cb565b6136076115876001936115a36135f76135de613518565b6135e86001610bac565b9d8e9182612f6d565b17860290565b6116926132908460058c0161151e565b61360f6114f4565b169283146136ba576136249086019597860390565b61362f600019611316565b11613694576001815b61364c575b5050506102e493945001611532565b15613682575b83908783867fddf252ad1be2c89b69c2b068fc378daa952ba7f163c4a11628f55a4df523b3ef8180a49081613638565b9560010195848703613652578061363d565b7f81647e3a00000000000000000000000000000000000000000000000000000000612c83565b7f2e07630000000000000000000000000000000000000000000000000000000000612c83565b7fb562e8dd00000000000000000000000000000000000000000000000000000000612c83565b6060939291828110156139125761371b610bb9565b80821061390a575b5061372c613191565b600093600019929190613904565b808210156138fc575b5061374d85611c39565b94818410156138ea575b60009261376384610bac565b8703613774575b5050505050505050565b909192949698506137888484999597990390565b888111156138e2575b506000906040519460018a0160051b8601998a6040526137b0896125d4565b93886000956137c56111ef6040830151151590565b6138c1575b505060009c9b9a99949c509560015b1561388d575b8b9c899c9a9b9c9a613854575b6137f586613c21565b604081015115613817575050600189955b01998c6040529c9b9a99949c6137d9565b809691965161384b575b5086861860601b15613836575b600190613806565b6001909701600581901b89018890529661382e565b51955038613821565b848614613873575b8b8611156137ec575061386e89611c1f565b6137ec565b94506138876138826001610bac565b8c0190565b9461385c565b80851480156138b8575b156137df57505098505050509350945050508252388080808080808061376a565b50868214613897565b015173ffffffffffffffffffffffffffffffffffffffff16945088386137ca565b975038613791565b94506138f66000610bac565b94613757565b905038613743565b8161373a565b905038613723565b7f32c1995a00000000000000000000000000000000000000000000000000000000612c83565b61394130611495565b3b612c7f6113166000610bac565b61395761402e565b6102e46102e4614072565b6102e461394f565b1561397157565b6040517f08c379a000000000000000000000000000000000000000000000000000000000815260206004820152603460248201527f455243373231415f5f496e697469616c697a61626c653a20636f6e747261637460448201527f206973206e6f7420696e697469616c697a696e670000000000000000000000006064820152608490fd5b6102e49190613a30613a2b60007fee151c8401928dc223602bb187aff91b9a56c7cae5476ef1b3287b085a16c85f5b01611f3c565b61396a565b906102e491614214565b906102e4916139f6565b613a4c61402e565b6102e4613a61613a5a610e85565b3390612fc2565b506118bb613a5a610bb9565b6102e4613a44565b905051906102e4826102a7565b906020828203126102d2576102fa91613a75565b73ffffffffffffffffffffffffffffffffffffffff91821681529116602082015260408101919091526080606082018190526102fa929101906103d9565b613aed613ae76102fa9263ffffffff1690565b60e01b90565b7fffffffff000000000000000000000000000000000000000000000000000000001690565b3d15613b2c57613b213d610c37565b903d6000602084013e565b606090565b90939291602090613b466114cc600097611495565b63150b7a0293600033613b77613b5b60405190565b98899687958694613b6c8c60e01b90565b865260048601613a96565b03925af160009281613bf0575b50613bb75750506001613b9357565b613b9b613b12565b8051613baa6113166000610bac565b1461257957805190602001fd5b612c7f91929350613aed613bca91613ad4565b917fffffffff000000000000000000000000000000000000000000000000000000001690565b613c1391935060203d602011613c1a575b613c0b81836107b0565b810190613a82565b9138613b84565b503d613c01565b613c5c6114426102fa92613c336125cc565b5060047f2569078dfb4b0305704d3008e7403993ae9601b85f7ae5e742de3de8f8011c40611229565b614228565b611442613c7091613c33600090565b613c7d6113166000610bac565b141590565b906102e4611375613c9284610c37565b93610809565b7f4e487b7100000000000000000000000000000000000000000000000000000000600052601260045260246000fd5b8115613cd1570490565b613c98565b613cdf816142cd565b90613cf060019261042b6001610bac565b9180613cfb84613c82565b936020018401905b613d0d5750505090565b8115613d7057613d549060001901927f3031323334353637383961626364656600000000000000000000000000000000600a82061a8453613d4e600a610bac565b90613cc7565b9081613d636113166000610bac565b14613d7057909181613d03565b611f16565b612c7f7f01ffc9a700000000000000000000000000000000000000000000000000000000613bca565b90613dac6111ef828461244b565b613db4575050565b7fe2517d3f00000000000000000000000000000000000000000000000000000000600090815291611920916004612a30565b5050506102fa600090565b613dfb8282613522565b6000813b613e0b61131683610bac565b03613e165750505050565b9091929381613e427f2569078dfb4b0305704d3008e7403993ae9601b85f7ae5e742de3de8f8011c4090565b0193613e56613e50866112ae565b91820390565b9460015b15613ea8575b83613e7d6111ef89613e7188611c1f565b9989600182019b613b31565b15613e5a577fd1a57ed600000000000000000000000000000000000000000000000000000000612c83565b818610613e6057611316929650613ec6939550611da09194506112ae565b03613ed357808080612559565b80fd5b6102fa600061122f6102fa611b7d565b905051906102e482610467565b906020828203126102d2576102fa91613ee6565b90613f146114cc83611495565b906020613f2060405190565b7f52d1902d00000000000000000000000000000000000000000000000000000000815292839060049082905afa60009281613ffd575b50613fae5750506001613f665750565b7f4c9c8ce300000000000000000000000000000000000000000000000000000000600090815273ffffffffffffffffffffffffffffffffffffffff9091166004526024036000fd5b909291613fbc6102fa611b7d565b8403613fcd576102e492935061446f565b7faa1d49a40000000000000000000000000000000000000000000000000000000060009081526004859052602490fd5b61402091935060203d602011614027575b61401881836107b0565b810190613ef3565b9138613f56565b503d61400e565b6140396111ef6144d8565b61403f57565b7fd7e6bcf8000000000000000000000000000000000000000000000000000000006000908152600490fd5b61193761402e565b6102e461406a565b6102e491906140ad613a2b60007fee151c8401928dc223602bb187aff91b9a56c7cae5476ef1b3287b085a16c85f613a25565b614182565b906140bb815190565b9067ffffffffffffffff82116107f0576140d982610ff98554610ef7565b602090601f831160011461411357610f5e929160009183614108575050600019600883021c1916906002021790565b01519050388061101b565b601f1983169161412885600052602060002090565b9260005b8181106141605750916002939185600196941061414c5750505002019055565b01516000196008601f8516021c1916611084565b9193602060018192878701518155019501920161412c565b906102e4916140b2565b6141da906141c96000936141c06141b67f2569078dfb4b0305704d3008e7403993ae9601b85f7ae5e742de3de8f8011c4090565b9360028501614178565b60038301614178565b6141d1610bb9565b92839101611532565b6141e76113166000199290565b106141ee57565b7ffed8210f00000000000000000000000000000000000000000000000000000000612c83565b906102e49161407a565b6102fa60a0610bac565b906102e46142346125cc565b60606142c3612fad839661426761424d6115a383611511565b73ffffffffffffffffffffffffffffffffffffffff168652565b61429461428361427e61427861421e565b84612f30565b6120fb565b67ffffffffffffffff166020870152565b6142b561429f612ba9565b6142ac6117086000610bac565b14156040870152565b6142bd612f26565b90612f30565b62ffffff16910152565b6142d76000610bac565b907a184f03e93ff9f4daa797ed6e38ed64bf6a1f0100000000000000006142fd81610bac565b82101561444d575b506d04ee2d6d415b85acef810000000061431e81610bac565b82101561442b575b50662386f26fc1000061433881610bac565b821015614409575b506305f5e10061434f81610bac565b8210156143e7575b5061271061436481610bac565b8210156143c5575b506143776064610bac565b8110156143a3575b61438c611316600a610bac565b10156143955790565b6102fa9061042b6001610bac565b6143b46143bf91613d4e6064610bac565b9161042b6002610bac565b9061437f565b6143e091613d4e6143d592610bac565b9161042b6004610bac565b903861436c565b61440291613d4e6143f792610bac565b9161042b6008610bac565b9038614357565b61442491613d4e61441992610bac565b9161042b6010610bac565b9038614340565b61444691613d4e61443b92610bac565b9161042b6020610bac565b9038614326565b61446891613d4e61445d92610bac565b9161042b6040610bac565b9038614305565b9061447982614501565b61448282611495565b7fbc7cd75a20ee27fd9adebab32041f755214dbc6bffa90cc0225b39da2e5c2d3b6144ac60405190565b600090a280516144bf6113166000610bac565b11156144ce576118bb916145a8565b50506102e461456c565b6102fa7ff0c57e16840df040f15088dc2f81fe391c3923bec73e23a9662efc9c229c6a006120d5565b6000813b61451161131683610bac565b1461452657906102e4916129446102fa611b7d565b7f4c9c8ce300000000000000000000000000000000000000000000000000000000815273ffffffffffffffffffffffffffffffffffffffff919091166004820152602490fd5b600061457781610bac565b34116145805750565b7fb398979f000000000000000000000000000000000000000000000000000000008152600490fd5b6000806102fa936145b7606090565b50602081519101845af46145c9613b12565b91906145d5575061464f565b8151906000916145e761131684610bac565b148061463a575b6145f757505090565b7f9996b31500000000000000000000000000000000000000000000000000000000825273ffffffffffffffffffffffffffffffffffffffff166004820152602490fd5b50803b61464961131684610bac565b146145ee565b805160009061466061131683610bac565b111561466f5750805190602001fd5b7fd6bda275000000000000000000000000000000000000000000000000000000008152600490fdfea2646970667358221220e905581b24fee0dc415d901fb9eea3a68edc2b7cf1d6157740b23c7f135207c064736f6c634300081c0033",
  "linkReferences": {},
  "deployedLinkReferences": {}
}