{
  "_format": "hh-sol-artifact-1",
  "contractName": "CarbonCredit20Vault",
  "sourceName": "contracts/vaults/CarbonCredit20Vault.sol",
  "abi": [
    {
      "inputs": [],
      "name": "AccessControlBadConfirmation",
      "type": "error"
    },
    {
      "inputs": [
        {
          "internalType": "address",
          "name": "account",
          "type": "address"
        },
        {
          "internalType": "bytes32",
          "name": "neededRole",
          "type": "bytes32"
        }
      ],
      "name": "AccessControlUnauthorizedAccount",
      "type": "error"
    },
    {
      "inputs": [
        {
          "internalType": "address",
          "name": "target",
          "type": "address"
        }
      ],
      "name": "AddressEmptyCode",
      "type": "error"
    },
    {
      "inputs": [
        {
          "internalType": "address",
          "name": "implementation",
          "type": "address"
        }
      ],
      "name": "ERC1967InvalidImplementation",
      "type": "error"
    },
    {
      "inputs": [],
      "name": "ERC1967NonPayable",
      "type": "error"
    },
    {
      "inputs": [],
      "name": "FailedCall",
      "type": "error"
    },
    {
      "inputs": [],
      "name": "InvalidInitialization",
      "type": "error"
    },
    {
      "inputs": [],
      "name": "NotInitializing",
      "type": "error"
    },
    {
      "inputs": [],
      "name": "UUPSUnauthorizedCallContext",
      "type": "error"
    },
    {
      "inputs": [
        {
          "internalType": "bytes32",
          "name": "slot",
          "type": "bytes32"
        }
      ],
      "name": "UUPSUnsupportedProxiableUUID",
      "type": "error"
    },
    {
      "anonymous": false,
      "inputs": [
        {
          "indexed": false,
          "internalType": "uint64",
          "name": "version",
          "type": "uint64"
        }
      ],
      "name": "Initialized",
      "type": "event"
    },
    {
      "anonymous": false,
      "inputs": [
        {
          "indexed": true,
          "internalType": "bytes32",
          "name": "role",
          "type": "bytes32"
        },
        {
          "indexed": true,
          "internalType": "bytes32",
          "name": "previousAdminRole",
          "type": "bytes32"
        },
        {
          "indexed": true,
          "internalType": "bytes32",
          "name": "newAdminRole",
          "type": "bytes32"
        }
      ],
      "name": "RoleAdminChanged",
      "type": "event"
    },
    {
      "anonymous": false,
      "inputs": [
        {
          "indexed": true,
          "internalType": "bytes32",
          "name": "role",
          "type": "bytes32"
        },
        {
          "indexed": true,
          "internalType": "address",
          "name": "account",
          "type": "address"
        },
        {
          "indexed": true,
          "internalType": "address",
          "name": "sender",
          "type": "address"
        }
      ],
      "name": "RoleGranted",
      "type": "event"
    },
    {
      "anonymous": false,
      "inputs": [
        {
          "indexed": true,
          "internalType": "bytes32",
          "name": "role",
          "type": "bytes32"
        },
        {
          "indexed": true,
          "internalType": "address",
          "name": "account",
          "type": "address"
        },
        {
          "indexed": true,
          "internalType": "address",
          "name": "sender",
          "type": "address"
        }
      ],
      "name": "RoleRevoked",
      "type": "event"
    },
    {
      "anonymous": false,
      "inputs": [
        {
          "indexed": true,
          "internalType": "address",
          "name": "implementation",
          "type": "address"
        }
      ],
      "name": "Upgraded",
      "type": "event"
    },
    {
      "inputs": [],
      "name": "DEFAULT_ADMIN_ROLE",
      "outputs": [
        {
          "internalType": "bytes32",
          "name": "",
          "type": "bytes32"
        }
      ],
      "stateMutability": "view",
      "type": "function"
    },
    {
      "inputs": [],
      "name": "UPGRADE_INTERFACE_VERSION",
      "outputs": [
        {
          "internalType": "string",
          "name": "",
          "type": "string"
        }
      ],
      "stateMutability": "view",
      "type": "function"
    },
    {
      "inputs": [
        {
          "internalType": "uint256",
          "name": "_amount",
          "type": "uint256"
        }
      ],
      "name": "burnCredit20",
      "outputs": [],
      "stateMutability": "nonpayable",
      "type": "function"
    },
    {
      "inputs": [],
      "name": "carbonCredit20",
      "outputs": [
        {
          "internalType": "address",
          "name": "",
          "type": "address"
        }
      ],
      "stateMutability": "view",
      "type": "function"
    },
    {
      "inputs": [
        {
          "internalType": "bytes32",
          "name": "role",
          "type": "bytes32"
        }
      ],
      "name": "getRoleAdmin",
      "outputs": [
        {
          "internalType": "bytes32",
          "name": "",
          "type": "bytes32"
        }
      ],
      "stateMutability": "view",
      "type": "function"
    },
    {
      "inputs": [
        {
          "internalType": "bytes32",
          "name": "role",
          "type": "bytes32"
        },
        {
          "internalType": "address",
          "name": "account",
          "type": "address"
        }
      ],
      "name": "grantRole",
      "outputs": [],
      "stateMutability": "nonpayable",
      "type": "function"
    },
    {
      "inputs": [
        {
          "internalType": "bytes32",
          "name": "role",
          "type": "bytes32"
        },
        {
          "internalType": "address",
          "name": "account",
          "type": "address"
        }
      ],
      "name": "hasRole",
      "outputs": [
        {
          "internalType": "bool",
          "name": "",
          "type": "bool"
        }
      ],
      "stateMutability": "view",
      "type": "function"
    },
    {
      "inputs": [
        {
          "internalType": "contract ICarbonCredit20",
          "name": "_carbonCredit20",
          "type": "address"
        },
        {
          "internalType": "address",
          "name": "_carbonCredit721",
          "type": "address"
        }
      ],
      "name": "init",
      "outputs": [],
      "stateMutability": "nonpayable",
      "type": "function"
    },
    {
      "inputs": [
        {
          "internalType": "address",
          "name": "_to",
          "type": "address"
        },
        {
          "internalType": "uint256",
          "name": "_amount",
          "type": "uint256"
        }
      ],
      "name": "moveBackCredit20",
      "outputs": [],
      "stateMutability": "nonpayable",
      "type": "function"
    },
    {
      "inputs": [],
      "name": "proxiableUUID",
      "outputs": [
        {
          "internalType": "bytes32",
          "name": "",
          "type": "bytes32"
        }
      ],
      "stateMutability": "view",
      "type": "function"
    },
    {
      "inputs": [
        {
          "internalType": "bytes32",
          "name": "role",
          "type": "bytes32"
        },
        {
          "internalType": "address",
          "name": "callerConfirmation",
          "type": "address"
        }
      ],
      "name": "renounceRole",
      "outputs": [],
      "stateMutability": "nonpayable",
      "type": "function"
    },
    {
      "inputs": [
        {
          "internalType": "bytes32",
          "name": "role",
          "type": "bytes32"
        },
        {
          "internalType": "address",
          "name": "account",
          "type": "address"
        }
      ],
      "name": "revokeRole",
      "outputs": [],
      "stateMutability": "nonpayable",
      "type": "function"
    },
    {
      "inputs": [
        {
          "internalType": "contract ICarbonCredit20",
          "name": "_carbonCredit20",
          "type": "address"
        }
      ],
      "name": "setCarbonCredit20",
      "outputs": [],
      "stateMutability": "nonpayable",
      "type": "function"
    },
    {
      "inputs": [
        {
          "internalType": "bytes4",
          "name": "interfaceId",
          "type": "bytes4"
        }
      ],
      "name": "supportsInterface",
      "outputs": [
        {
          "internalType": "bool",
          "name": "",
          "type": "bool"
        }
      ],
      "stateMutability": "view",
      "type": "function"
    },
    {
      "inputs": [
        {
          "internalType": "address",
          "name": "newImplementation",
          "type": "address"
        },
        {
          "internalType": "bytes",
          "name": "data",
          "type": "bytes"
        }
      ],
      "name": "upgradeToAndCall",
      "outputs": [],
      "stateMutability": "payable",
      "type": "function"
    }
  ],
  "bytecode": "0x60a060405234602f57600e6034565b60405161157f61007e8239608051818181610fc301526110c9015261157f90f35b600080fd5b603a603c565b565b603a6071565b6054906057906001600160a01b031682565b90565b6001600160a01b031690565b6054906042565b6054906063565b607830606a565b60805256fe6080604052600436101561001257600080fd5b60003560e01c806301ffc9a7146101025780631eb49a3f146100fd578063248a9ca3146100f85780632f2ff15d146100f357806336568abe146100ee5780634f1ef286146100e957806352d1902d146100e457806391d14854146100df5780639dab7601146100da578063a0225d48146100d5578063a217fddf146100d0578063ad3cb1cc146100cb578063cb19dae4146100c6578063d547741f146100c15763f09a40160361013257610664565b61062f565b610617565b6105dc565b6104de565b6104a7565b61048e565b61044f565b610434565b610420565b6102b4565b610296565b61021f565b6101b6565b610161565b7fffffffff0000000000000000000000000000000000000000000000000000000081165b0361013257565b600080fd5b9050359061014482610107565b565b906020828203126101325761015a91610137565b90565b9052565b346101325761018e61017c610177366004610146565b61067d565b60405191829182901515815260200190565b0390f35b600091031261013257565b73ffffffffffffffffffffffffffffffffffffffff1690565b34610132576101c6366004610192565b61018e6101d161074e565b6040519182918273ffffffffffffffffffffffffffffffffffffffff909116815260200190565b8061012b565b90503590610144826101f8565b906020828203126101325761015a916101fe565b346101325761018e61023a61023536600461020b565b6107b9565b6040519182918290815260200190565b73ffffffffffffffffffffffffffffffffffffffff811661012b565b905035906101448261024a565b91906040838203126101325761015a90602061028f82866101fe565b9401610266565b34610132576102af6102a9366004610273565b9061081e565b604051005b34610132576102af6102c7366004610273565b90610828565b7f4e487b7100000000000000000000000000000000000000000000000000000000600052604160045260246000fd5b90601f017fffffffffffffffffffffffffffffffffffffffffffffffffffffffffffffffe016810190811067ffffffffffffffff82111761033c57604052565b6102cd565b9061014461034e60405190565b92836102fc565b67ffffffffffffffff811161033c57602090601f017fffffffffffffffffffffffffffffffffffffffffffffffffffffffffffffffe0160190565b0190565b90826000939282370152565b909291926103b56103b082610355565b610341565b938185528183011161013257610144916020850190610394565b9080601f830112156101325781602061015a933591016103a0565b919091604081840312610132576104018382610266565b92602082013567ffffffffffffffff81116101325761015a92016103cf565b6102af61042e3660046103ea565b906108da565b3461013257610444366004610192565b61018e61023a610927565b346101325761018e61017c610465366004610273565b90610950565b91906040838203126101325761015a9060206104878286610266565b94016101fe565b34610132576102af6104a136600461046b565b90610aa0565b34610132576102af6104ba36600461020b565b610b38565b61015a61015a61015a9290565b61015a60006104bf565b61015a6104cc565b34610132576104ee366004610192565b61018e61023a6104d6565b906105066103b083610355565b918252565b61051560056104f9565b7f352e302e30000000000000000000000000000000000000000000000000000000602082015290565b61015a61050b565b61015a61053e565b61015a610546565b60005b8381106105695750506000910152565b8181015183820152602001610559565b61059a6105a36020936103909361058e815190565b80835293849260200190565b95869101610556565b601f017fffffffffffffffffffffffffffffffffffffffffffffffffffffffffffffffe01690565b602080825261015a92910190610579565b34610132576105ec366004610192565b61018e6105f761054e565b604051918291826105cb565b906020828203126101325761015a91610266565b34610132576102af61062a366004610603565b610bc0565b34610132576102af610642366004610273565b90610be4565b91906040838203126101325761015a90602061028f8286610266565b34610132576102af610677366004610648565b90610e5f565b7f7965db0b000000000000000000000000000000000000000000000000000000007fffffffff000000000000000000000000000000000000000000000000000000008216149081156106cd575090565b61015a91507fffffffff00000000000000000000000000000000000000000000000000000000167f01ffc9a7000000000000000000000000000000000000000000000000000000001490565b61019d61015a61015a9273ffffffffffffffffffffffffffffffffffffffff1690565b61015a90610719565b61015a9061073c565b61015a61079360007f97621522b778c381691faae1ef61181b820eb92426d7df22f5286bde10e2b9005b015473ffffffffffffffffffffffffffffffffffffffff1690565b610745565b905b600052602052604060002090565b61015a9081565b61015a90546107a8565b60016107f561015a926107ca600090565b5060007f02dd7bc7dec4dceedda775e58dd541e08a116c6c53815c0bd028192f7b6268005b01610798565b016107af565b906101449161081161080c826107b9565b610e69565b9061081b91610e94565b50565b90610144916107fb565b906108323361019d565b73ffffffffffffffffffffffffffffffffffffffff8216036108575761081b91610f39565b7f6697b23200000000000000000000000000000000000000000000000000000000600090815260045b036000fd5b9061014491610892610fb8565b6108c0565b61015a7f241ecf16d79d0f8dbfb92cbc07fe17840425976cf0667f022fe9877caa831b086104bf565b90610144916108d061080c610897565b906101449161109c565b9061014491610885565b61015a906108f06110a6565b61091e565b61015a7f360894a13ba1a3210667c828492db98dca3e2076cc3735a920a3ca505d382bbc6104bf565b5061015a6108f5565b61015a60006108e4565b9061079a90610745565b61015a905b60ff1690565b61015a905461093b565b61015a91600061098d61099393610965600090565b50827f02dd7bc7dec4dceedda775e58dd541e08a116c6c53815c0bd028192f7b6268006107ef565b01610931565b610946565b61015a7fe964ec5cf39a6e0445036d53c706e8c2f5eef2d81603ffea17e06e2db4b943b26104bf565b90610144916109d161080c610998565b610a0c565b73ffffffffffffffffffffffffffffffffffffffff90911681526040810192916101449160200152565b6040513d6000823e3d90fd5b610a3a61079360007f97621522b778c381691faae1ef61181b820eb92426d7df22f5286bde10e2b900610778565b91823b1561013257610a729260009283610a5360405190565b809681958294610a6763a9059cbb60e01b90565b8452600484016109d6565b03925af18015610a9b57610a835750565b610144906000610a9381836102fc565b810190610192565b610a00565b90610144916109c1565b61014490610ab961080c610998565b610ae761079360007f97621522b778c381691faae1ef61181b820eb92426d7df22f5286bde10e2b900610778565b803b1561013257610a72600092918392610b0060405190565b94859384928391907f42966c680000000000000000000000000000000000000000000000000000000083526004830190815260200190565b61014490610aaa565b61014490610b5061080c610897565b610b92565b9073ffffffffffffffffffffffffffffffffffffffff905b9181191691161790565b90610b8761015a610b8e92610745565b8254610b55565b9055565b6101449060007f97621522b778c381691faae1ef61181b820eb92426d7df22f5286bde10e2b9005b01610b77565b61014490610b41565b9061014491610bda61080c826107b9565b9061081b91610f39565b9061014491610bc9565b61015a9060401c610940565b61015a9054610bee565b61015a905b67ffffffffffffffff1690565b61015a9054610c04565b610c0961015a61015a9290565b9067ffffffffffffffff90610b6d565b610c0961015a61015a9267ffffffffffffffff1690565b90610c6461015a610b8e92610c3d565b8254610c2d565b9068ff00000000000000009060401b610b6d565b90610c8f61015a610b8e92151590565b8254610c6b565b61015d90610c20565b6020810192916101449190610c96565b7ff0c57e16840df040f15088dc2f81fe391c3923bec73e23a9662efc9c229c6a009182610ceb610ce5610ce183610bfa565b1590565b91610c16565b91600093610cf885610c20565b67ffffffffffffffff85161480610e12575b600194610d27610d1987610c20565b9167ffffffffffffffff1690565b149081610dea575b155b9081610de1575b50610db95790610d629183610d5987610d5088610c20565b99019889610c54565b610daa57610e19565b610d6b57505050565b610d99610da5927fc7f505b2f371ae2175ee4913f4499e1f2633a7b5936321eed1cdaeb6115181d294610c7f565b60405191829182610c9f565b0390a1565b610db48588610c7f565b610e19565b7ff92ee8a9000000000000000000000000000000000000000000000000000000008552600485fd5b15905038610d38565b9050610d31610df830610745565b3b610e09610e05896104bf565b9190565b14919050610d2f565b5082610d0a565b90610e4a61081b926000610bba7f97621522b778c381691faae1ef61181b820eb92426d7df22f5286bde10e2b90090565b610e5261111e565b610e5a610998565b610e94565b9061014491610caf565b610144903390611126565b9060ff90610b6d565b90610e8d61015a610b8e92151590565b8254610e74565b7f02dd7bc7dec4dceedda775e58dd541e08a116c6c53815c0bd028192f7b626800610ec2610ce18484610950565b15610f31576001610ede84600061098d8682610ee39701610798565b610e7d565b610efd610ef7610ef1339390565b93610745565b91610745565b917f2f8788117e7eff1d82e926ec794901d17c78024a50270940304540a733656f0d610f2860405190565b600090a4600190565b505050600090565b7f02dd7bc7dec4dceedda775e58dd541e08a116c6c53815c0bd028192f7b626800610f648383610950565b15610f31576000610ede848261098d8682610f7f9701610798565b610f8d610ef7610ef1339390565b917ff6391f5c32d9c69d2a47ea670b442974b53935d1edc7fd64eb21e047a839171b610f2860405190565b610fc130610745565b7f00000000000000000000000000000000000000000000000000000000000000009061101873ffffffffffffffffffffffffffffffffffffffff83165b9173ffffffffffffffffffffffffffffffffffffffff1690565b14908115611053575b5061102857565b7fe07c8dba000000000000000000000000000000000000000000000000000000006000908152600490fd5b905061107d610ffe61106361116e565b9273ffffffffffffffffffffffffffffffffffffffff1690565b141538611021565b9061014491611092610fb8565b906101449161119f565b9061014491611085565b6110af30610745565b6110ee73ffffffffffffffffffffffffffffffffffffffff7f000000000000000000000000000000000000000000000000000000000000000016610ffe565b0361102857565b6110fd6112c6565b61014461111261110b610897565b3390610e94565b5061081b61110b6104cc565b6101446110f5565b90611134610ce18284610950565b61113c575050565b7fe2517d3f000000000000000000000000000000000000000000000000000000006000908152916108809160046109d6565b61015a600061077861015a6108f5565b90505190610144826101f8565b906020828203126101325761015a9161117e565b906111ac61079383610745565b9060206111b860405190565b7f52d1902d00000000000000000000000000000000000000000000000000000000815292839060049082905afa60009281611295575b5061124657505060016111fe5750565b7f4c9c8ce300000000000000000000000000000000000000000000000000000000600090815273ffffffffffffffffffffffffffffffffffffffff9091166004526024036000fd5b90929161125461015a6108f5565b840361126557610144929350611302565b7faa1d49a40000000000000000000000000000000000000000000000000000000060009081526004859052602490fd5b6112b891935060203d6020116112bf575b6112b081836102fc565b81019061118b565b91386111ee565b503d6112a6565b6112d1610ce161136b565b6112d757565b7fd7e6bcf8000000000000000000000000000000000000000000000000000000006000908152600490fd5b9061130c82611394565b61131582610745565b7fbc7cd75a20ee27fd9adebab32041f755214dbc6bffa90cc0225b39da2e5c2d3b61133f60405190565b600090a28051611352610e0560006104bf565b11156113615761081b9161145a565b50506101446113ff565b61015a7ff0c57e16840df040f15088dc2f81fe391c3923bec73e23a9662efc9c229c6a00610bfa565b6000813b6113a4610e05836104bf565b146113b9579061014491610bba61015a6108f5565b7f4c9c8ce300000000000000000000000000000000000000000000000000000000815273ffffffffffffffffffffffffffffffffffffffff919091166004820152602490fd5b600061140a816104bf565b34116114135750565b7fb398979f000000000000000000000000000000000000000000000000000000008152600490fd5b3d156114555761144a3d6104f9565b903d6000602084013e565b606090565b60008061015a93611469606090565b50602081519101845af461147b61143b565b91906114875750611501565b815190600091611499610e05846104bf565b14806114ec575b6114a957505090565b7f9996b31500000000000000000000000000000000000000000000000000000000825273ffffffffffffffffffffffffffffffffffffffff166004820152602490fd5b50803b6114fb610e05846104bf565b146114a0565b8051600090611512610e05836104bf565b11156115215750805190602001fd5b7fd6bda275000000000000000000000000000000000000000000000000000000008152600490fdfea2646970667358221220284e4782c4d24089ceb5679e3acae0ffcc2564a2b8f60595c31717ac8cf7dc7864736f6c634300081c0033",
  "linkReferences": {},
  "deployedLinkReferences": {},
  "networkId": 11155111,
  "address": "0xc31Df2daee7ebca3C74c5F853b5D87f2916b49Cb"
}